{
  "contractName": "AETH",
  "abi": [
    {
      "constant": true,
      "inputs": [],
      "name": "mintingFinished",
      "outputs": [
        {
          "name": "",
          "type": "bool"
        }
      ],
      "payable": false,
      "stateMutability": "view",
      "type": "function"
    },
    {
      "constant": true,
      "inputs": [],
      "name": "name",
      "outputs": [
        {
          "name": "",
          "type": "string"
        }
      ],
      "payable": false,
      "stateMutability": "view",
      "type": "function"
    },
    {
      "constant": false,
      "inputs": [
        {
          "name": "_spender",
          "type": "address"
        },
        {
          "name": "_value",
          "type": "uint256"
        }
      ],
      "name": "approve",
      "outputs": [
        {
          "name": "",
          "type": "bool"
        }
      ],
      "payable": false,
      "stateMutability": "nonpayable",
      "type": "function"
    },
    {
      "constant": true,
      "inputs": [],
      "name": "lockTime",
      "outputs": [
        {
          "name": "",
          "type": "uint256"
        }
      ],
      "payable": false,
      "stateMutability": "view",
      "type": "function"
    },
    {
      "constant": true,
      "inputs": [],
      "name": "totalSupply",
      "outputs": [
        {
          "name": "",
          "type": "uint256"
        }
      ],
      "payable": false,
      "stateMutability": "view",
      "type": "function"
    },
    {
      "constant": true,
      "inputs": [
        {
          "name": "_holder",
          "type": "address"
        },
        {
          "name": "_fromDate",
          "type": "uint256"
        }
      ],
      "name": "getCyclingStatesNr",
      "outputs": [
        {
          "name": "_total",
          "type": "uint8"
        },
        {
          "name": "_available",
          "type": "uint8"
        }
      ],
      "payable": false,
      "stateMutability": "view",
      "type": "function"
    },
    {
      "constant": false,
      "inputs": [
        {
          "name": "_from",
          "type": "address"
        },
        {
          "name": "_to",
          "type": "address"
        },
        {
          "name": "_value",
          "type": "uint256"
        }
      ],
      "name": "transferFrom",
      "outputs": [
        {
          "name": "",
          "type": "bool"
        }
      ],
      "payable": false,
      "stateMutability": "nonpayable",
      "type": "function"
    },
    {
      "constant": true,
      "inputs": [
        {
          "name": "_holder",
          "type": "address"
        },
        {
          "name": "_fromIndex",
          "type": "uint8"
        }
      ],
      "name": "getCyclingState",
      "outputs": [
        {
          "name": "_amount",
          "type": "uint256"
        },
        {
          "name": "_unlockDate",
          "type": "uint256"
        },
        {
          "name": "_index",
          "type": "uint8"
        }
      ],
      "payable": false,
      "stateMutability": "view",
      "type": "function"
    },
    {
      "constant": true,
      "inputs": [],
      "name": "decimals",
      "outputs": [
        {
          "name": "",
          "type": "uint8"
        }
      ],
      "payable": false,
      "stateMutability": "view",
      "type": "function"
    },
    {
      "constant": false,
      "inputs": [],
      "name": "unpause",
      "outputs": [],
      "payable": false,
      "stateMutability": "nonpayable",
      "type": "function"
    },
    {
      "constant": false,
      "inputs": [
        {
          "name": "_to",
          "type": "address"
        },
        {
          "name": "_amount",
          "type": "uint256"
        }
      ],
      "name": "mint",
      "outputs": [
        {
          "name": "",
          "type": "bool"
        }
      ],
      "payable": false,
      "stateMutability": "nonpayable",
      "type": "function"
    },
    {
      "constant": false,
      "inputs": [
        {
          "name": "_resolver",
          "type": "address"
        }
      ],
      "name": "setResolver",
      "outputs": [],
      "payable": false,
      "stateMutability": "nonpayable",
      "type": "function"
    },
    {
      "constant": false,
      "inputs": [
        {
          "name": "_amount",
          "type": "uint256"
        }
      ],
      "name": "bondAeth",
      "outputs": [
        {
          "name": "",
          "type": "bool"
        }
      ],
      "payable": false,
      "stateMutability": "nonpayable",
      "type": "function"
    },
    {
      "constant": true,
      "inputs": [],
      "name": "paused",
      "outputs": [
        {
          "name": "",
          "type": "bool"
        }
      ],
      "payable": false,
      "stateMutability": "view",
      "type": "function"
    },
    {
      "constant": false,
      "inputs": [],
      "name": "freeAeth",
      "outputs": [
        {
          "name": "",
          "type": "bool"
        }
      ],
      "payable": false,
      "stateMutability": "nonpayable",
      "type": "function"
    },
    {
      "constant": false,
      "inputs": [
        {
          "name": "_spender",
          "type": "address"
        },
        {
          "name": "_subtractedValue",
          "type": "uint256"
        }
      ],
      "name": "decreaseApproval",
      "outputs": [
        {
          "name": "success",
          "type": "bool"
        }
      ],
      "payable": false,
      "stateMutability": "nonpayable",
      "type": "function"
    },
    {
      "constant": false,
      "inputs": [
        {
          "name": "_amount",
          "type": "uint256"
        }
      ],
      "name": "cycleAeth",
      "outputs": [
        {
          "name": "",
          "type": "bool"
        }
      ],
      "payable": false,
      "stateMutability": "nonpayable",
      "type": "function"
    },
    {
      "constant": true,
      "inputs": [
        {
          "name": "_holder",
          "type": "address"
        }
      ],
      "name": "cycling",
      "outputs": [
        {
          "name": "_cycling",
          "type": "uint256"
        }
      ],
      "payable": false,
      "stateMutability": "view",
      "type": "function"
    },
    {
      "constant": true,
      "inputs": [
        {
          "name": "_owner",
          "type": "address"
        }
      ],
      "name": "balanceOf",
      "outputs": [
        {
          "name": "balance",
          "type": "uint256"
        }
      ],
      "payable": false,
      "stateMutability": "view",
      "type": "function"
    },
    {
      "constant": false,
      "inputs": [],
      "name": "finishMinting",
      "outputs": [
        {
          "name": "",
          "type": "bool"
        }
      ],
      "payable": false,
      "stateMutability": "nonpayable",
      "type": "function"
    },
    {
      "constant": false,
      "inputs": [],
      "name": "pause",
      "outputs": [],
      "payable": false,
      "stateMutability": "nonpayable",
      "type": "function"
    },
    {
      "constant": false,
      "inputs": [
        {
          "name": "_to",
          "type": "address"
        },
        {
          "name": "_aethAmount",
          "type": "uint256"
        },
        {
          "name": "_extraData",
          "type": "string"
        }
      ],
      "name": "donate",
      "outputs": [
        {
          "name": "",
          "type": "bool"
        }
      ],
      "payable": true,
      "stateMutability": "payable",
      "type": "function"
    },
    {
      "constant": true,
      "inputs": [],
      "name": "owner",
      "outputs": [
        {
          "name": "",
          "type": "address"
        }
      ],
      "payable": false,
      "stateMutability": "view",
      "type": "function"
    },
    {
      "constant": false,
      "inputs": [
        {
          "name": "_essence",
          "type": "address"
        }
      ],
      "name": "setEssence",
      "outputs": [],
      "payable": false,
      "stateMutability": "nonpayable",
      "type": "function"
    },
    {
      "constant": true,
      "inputs": [],
      "name": "symbol",
      "outputs": [
        {
          "name": "",
          "type": "string"
        }
      ],
      "payable": false,
      "stateMutability": "view",
      "type": "function"
    },
    {
      "constant": false,
      "inputs": [
        {
          "name": "_to",
          "type": "address"
        },
        {
          "name": "_value",
          "type": "uint256"
        }
      ],
      "name": "transfer",
      "outputs": [
        {
          "name": "",
          "type": "bool"
        }
      ],
      "payable": false,
      "stateMutability": "nonpayable",
      "type": "function"
    },
    {
      "constant": false,
      "inputs": [
        {
          "name": "_time",
          "type": "uint256"
        }
      ],
      "name": "setLockTime",
      "outputs": [],
      "payable": false,
      "stateMutability": "nonpayable",
      "type": "function"
    },
    {
      "constant": false,
      "inputs": [
        {
          "name": "_spender",
          "type": "address"
        },
        {
          "name": "_addedValue",
          "type": "uint256"
        }
      ],
      "name": "increaseApproval",
      "outputs": [
        {
          "name": "success",
          "type": "bool"
        }
      ],
      "payable": false,
      "stateMutability": "nonpayable",
      "type": "function"
    },
    {
      "constant": true,
      "inputs": [
        {
          "name": "_owner",
          "type": "address"
        },
        {
          "name": "_spender",
          "type": "address"
        }
      ],
      "name": "allowance",
      "outputs": [
        {
          "name": "",
          "type": "uint256"
        }
      ],
      "payable": false,
      "stateMutability": "view",
      "type": "function"
    },
    {
      "constant": true,
      "inputs": [
        {
          "name": "_holder",
          "type": "address"
        }
      ],
      "name": "bonded",
      "outputs": [
        {
          "name": "_bonded",
          "type": "uint256"
        }
      ],
      "payable": false,
      "stateMutability": "view",
      "type": "function"
    },
    {
      "constant": true,
      "inputs": [
        {
          "name": "_holder",
          "type": "address"
        }
      ],
      "name": "getTokenRecords",
      "outputs": [
        {
          "name": "_free",
          "type": "uint256"
        },
        {
          "name": "_bonded",
          "type": "uint256"
        },
        {
          "name": "_cycling",
          "type": "uint256"
        }
      ],
      "payable": false,
      "stateMutability": "view",
      "type": "function"
    },
    {
      "constant": false,
      "inputs": [
        {
          "name": "newOwner",
          "type": "address"
        }
      ],
      "name": "transferOwnership",
      "outputs": [],
      "payable": false,
      "stateMutability": "nonpayable",
      "type": "function"
    },
    {
      "constant": false,
      "inputs": [
        {
          "name": "_to",
          "type": "address"
        },
        {
          "name": "_amount",
          "type": "uint256"
        }
      ],
      "name": "consumeEssence",
      "outputs": [
        {
          "name": "",
          "type": "bool"
        }
      ],
      "payable": false,
      "stateMutability": "nonpayable",
      "type": "function"
    },
    {
      "anonymous": false,
      "inputs": [
        {
          "indexed": false,
          "name": "owner",
          "type": "address"
        },
        {
          "indexed": false,
          "name": "state",
          "type": "uint8"
        },
        {
          "indexed": false,
          "name": "value",
          "type": "uint256"
        }
      ],
      "name": "Transition",
      "type": "event"
    },
    {
      "anonymous": false,
      "inputs": [
        {
          "indexed": true,
          "name": "from",
          "type": "address"
        },
        {
          "indexed": true,
          "name": "to",
          "type": "address"
        },
        {
          "indexed": false,
          "name": "aeth",
          "type": "uint256"
        },
        {
          "indexed": false,
          "name": "eth",
          "type": "uint256"
        },
        {
          "indexed": false,
          "name": "extraData",
          "type": "string"
        }
      ],
      "name": "Donate",
      "type": "event"
    },
    {
      "anonymous": false,
      "inputs": [],
      "name": "Pause",
      "type": "event"
    },
    {
      "anonymous": false,
      "inputs": [],
      "name": "Unpause",
      "type": "event"
    },
    {
      "anonymous": false,
      "inputs": [
        {
          "indexed": true,
          "name": "to",
          "type": "address"
        },
        {
          "indexed": false,
          "name": "amount",
          "type": "uint256"
        }
      ],
      "name": "Mint",
      "type": "event"
    },
    {
      "anonymous": false,
      "inputs": [],
      "name": "MintFinished",
      "type": "event"
    },
    {
      "anonymous": false,
      "inputs": [
        {
          "indexed": true,
          "name": "previousOwner",
          "type": "address"
        },
        {
          "indexed": true,
          "name": "newOwner",
          "type": "address"
        }
      ],
      "name": "OwnershipTransferred",
      "type": "event"
    },
    {
      "anonymous": false,
      "inputs": [
        {
          "indexed": true,
          "name": "owner",
          "type": "address"
        },
        {
          "indexed": true,
          "name": "spender",
          "type": "address"
        },
        {
          "indexed": false,
          "name": "value",
          "type": "uint256"
        }
      ],
      "name": "Approval",
      "type": "event"
    },
    {
      "anonymous": false,
      "inputs": [
        {
          "indexed": true,
          "name": "from",
          "type": "address"
        },
        {
          "indexed": true,
          "name": "to",
          "type": "address"
        },
        {
          "indexed": false,
          "name": "value",
          "type": "uint256"
        }
      ],
      "name": "Transfer",
      "type": "event"
    }
  ],
  "bytecode": "0x60606040526000600360146101000a81548160ff0219169083151502179055506000600360156101000a81548160ff0219169083151502179055506040805190810160405280601981526020017f416b617368612042657461205465737420546f6b656e20233100000000000000815250600490805190602001906200008792919062000140565b506040805190810160405280600481526020017f414554480000000000000000000000000000000000000000000000000000000081525060059080519060200190620000d592919062000140565b506012600660006101000a81548160ff021916908360ff1602179055506201518060075533600360006101000a81548173ffffffffffffffffffffffffffffffffffffffff021916908373ffffffffffffffffffffffffffffffffffffffff160217905550620001ef565b828054600181600116156101000203166002900490600052602060002090601f016020900481019282601f106200018357805160ff1916838001178555620001b4565b82800160010185558215620001b4579182015b82811115620001b357825182559160200191906001019062000196565b5b509050620001c39190620001c7565b5090565b620001ec91905b80821115620001e8576000816000905550600101620001ce565b5090565b90565b61384080620001ff6000396000f3006060604052600436106101a1576000357c0100000000000000000000000000000000000000000000000000000000900463ffffffff16806305d2035b146101a657806306fdde03146101d3578063095ea7b3146102615780630d668087146102bb57806318160ddd146102e45780632108b3541461030d57806323b872dd146103765780632a3f5080146103ef578063313ce5671461045c5780633f4ba83a1461048b57806340c10f19146104a05780634e543b26146104fa578063501951ed146105335780635c975abb1461056e5780635f8962461461059b57806366188463146105c85780636ab465bd146106225780636d2b9de01461065d57806370a08231146106aa5780637d64bcb4146106f75780638456cb59146107245780638488893a146107395780638da5cb5b146107cb5780638f0ecae21461082057806395d89b4114610859578063a9059cbb146108e7578063ae04d45d14610941578063d73dd62314610964578063dd62ed3e146109be578063f19e2a2114610a2a578063f2a3668414610a77578063f2fde38b14610ad2578063f51724df14610b0b575b600080fd5b34156101b157600080fd5b6101b9610b65565b604051808215151515815260200191505060405180910390f35b34156101de57600080fd5b6101e6610b78565b6040518080602001828103825283818151815260200191508051906020019080838360005b8381101561022657808201518184015260208101905061020b565b50505050905090810190601f1680156102535780820380516001836020036101000a031916815260200191505b509250505060405180910390f35b341561026c57600080fd5b6102a1600480803573ffffffffffffffffffffffffffffffffffffffff16906020019091908035906020019091905050610c16565b604051808215151515815260200191505060405180910390f35b34156102c657600080fd5b6102ce610c46565b6040518082815260200191505060405180910390f35b34156102ef57600080fd5b6102f7610c4c565b6040518082815260200191505060405180910390f35b341561031857600080fd5b61034d600480803573ffffffffffffffffffffffffffffffffffffffff16906020019091908035906020019091905050610c52565b604051808360ff1660ff1681526020018260ff1660ff1681526020019250505060405180910390f35b341561038157600080fd5b6103d5600480803573ffffffffffffffffffffffffffffffffffffffff1690602001909190803573ffffffffffffffffffffffffffffffffffffffff16906020019091908035906020019091905050610d65565b604051808215151515815260200191505060405180910390f35b34156103fa57600080fd5b610432600480803573ffffffffffffffffffffffffffffffffffffffff1690602001909190803560ff16906020019091905050610d97565b604051808481526020018381526020018260ff1660ff168152602001935050505060405180910390f35b341561046757600080fd5b61046f610ee4565b604051808260ff1660ff16815260200191505060405180910390f35b341561049657600080fd5b61049e610ef7565b005b34156104ab57600080fd5b6104e0600480803573ffffffffffffffffffffffffffffffffffffffff16906020019091908035906020019091905050610fb7565b604051808215151515815260200191505060405180910390f35b341561050557600080fd5b610531600480803573ffffffffffffffffffffffffffffffffffffffff1690602001909190505061119f565b005b341561053e57600080fd5b610554600480803590602001909190505061123f565b604051808215151515815260200191505060405180910390f35b341561057957600080fd5b6105816114d5565b604051808215151515815260200191505060405180910390f35b34156105a657600080fd5b6105ae6114e8565b604051808215151515815260200191505060405180910390f35b34156105d357600080fd5b610608600480803573ffffffffffffffffffffffffffffffffffffffff1690602001909190803590602001909190505061193a565b604051808215151515815260200191505060405180910390f35b341561062d57600080fd5b610643600480803590602001909190505061196a565b604051808215151515815260200191505060405180910390f35b341561066857600080fd5b610694600480803573ffffffffffffffffffffffffffffffffffffffff16906020019091905050611fbb565b6040518082815260200191505060405180910390f35b34156106b557600080fd5b6106e1600480803573ffffffffffffffffffffffffffffffffffffffff16906020019091905050612027565b6040518082815260200191505060405180910390f35b341561070257600080fd5b61070a612070565b604051808215151515815260200191505060405180910390f35b341561072f57600080fd5b610737612138565b005b6107b1600480803573ffffffffffffffffffffffffffffffffffffffff1690602001909190803590602001909190803590602001908201803590602001908080601f016020809104026020016040519081016040528093929190818152602001838380828437820191505050505050919050506121f9565b604051808215151515815260200191505060405180910390f35b34156107d657600080fd5b6107de612520565b604051808273ffffffffffffffffffffffffffffffffffffffff1673ffffffffffffffffffffffffffffffffffffffff16815260200191505060405180910390f35b341561082b57600080fd5b610857600480803573ffffffffffffffffffffffffffffffffffffffff16906020019091905050612546565b005b341561086457600080fd5b61086c6125e6565b6040518080602001828103825283818151815260200191508051906020019080838360005b838110156108ac578082015181840152602081019050610891565b50505050905090810190601f1680156108d95780820380516001836020036101000a031916815260200191505b509250505060405180910390f35b34156108f257600080fd5b610927600480803573ffffffffffffffffffffffffffffffffffffffff16906020019091908035906020019091905050612684565b604051808215151515815260200191505060405180910390f35b341561094c57600080fd5b61096260048080359060200190919050506126b4565b005b341561096f57600080fd5b6109a4600480803573ffffffffffffffffffffffffffffffffffffffff1690602001909190803590602001909190505061271a565b604051808215151515815260200191505060405180910390f35b34156109c957600080fd5b610a14600480803573ffffffffffffffffffffffffffffffffffffffff1690602001909190803573ffffffffffffffffffffffffffffffffffffffff1690602001909190505061274a565b6040518082815260200191505060405180910390f35b3415610a3557600080fd5b610a61600480803573ffffffffffffffffffffffffffffffffffffffff169060200190919050506127d1565b6040518082815260200191505060405180910390f35b3415610a8257600080fd5b610aae600480803573ffffffffffffffffffffffffffffffffffffffff1690602001909190505061283c565b60405180848152602001838152602001828152602001935050505060405180910390f35b3415610add57600080fd5b610b09600480803573ffffffffffffffffffffffffffffffffffffffff16906020019091905050612953565b005b3415610b1657600080fd5b610b4b600480803573ffffffffffffffffffffffffffffffffffffffff16906020019091908035906020019091905050612aab565b604051808215151515815260200191505060405180910390f35b600360149054906101000a900460ff1681565b60048054600181600116156101000203166002900480601f016020809104026020016040519081016040528092919081815260200182805460018160011615610100020316600290048015610c0e5780601f10610be357610100808354040283529160200191610c0e565b820191906000526020600020905b815481529060010190602001808311610bf157829003601f168201915b505050505081565b6000600360159054906101000a900460ff16151515610c3457600080fd5b610c3e8383612c61565b905092915050565b60075481565b60005481565b600080600080600080925060009150600090505b60208160ff161015610d55576000600b60008973ffffffffffffffffffffffffffffffffffffffff1673ffffffffffffffffffffffffffffffffffffffff1681526020019081526020016000206000018260ff16602081101515610cc657fe5b60020201600001541115610d4857828060010193505085600b60008973ffffffffffffffffffffffffffffffffffffffff1673ffffffffffffffffffffffffffffffffffffffff1681526020019081526020016000206000018260ff16602081101515610d2f57fe5b6002020160010154111515610d475781806001019250505b5b8080600101915050610c66565b8282945094505050509250929050565b6000600360159054906101000a900460ff16151515610d8357600080fd5b610d8e848484612d53565b90509392505050565b6000806000808490505b60208160ff161015610edc576000600b60008873ffffffffffffffffffffffffffffffffffffffff1673ffffffffffffffffffffffffffffffffffffffff1681526020019081526020016000206000018260ff16602081101515610e0157fe5b60020201600001541115610ecf57600b60008773ffffffffffffffffffffffffffffffffffffffff1673ffffffffffffffffffffffffffffffffffffffff1681526020019081526020016000206000018160ff16602081101515610e6157fe5b60020201600001549350600b60008773ffffffffffffffffffffffffffffffffffffffff1673ffffffffffffffffffffffffffffffffffffffff1681526020019081526020016000206000018160ff16602081101515610ebd57fe5b60020201600101549250809150610edc565b8080600101915050610da1565b509250925092565b600660009054906101000a900460ff1681565b600360009054906101000a900473ffffffffffffffffffffffffffffffffffffffff1673ffffffffffffffffffffffffffffffffffffffff163373ffffffffffffffffffffffffffffffffffffffff16141515610f5357600080fd5b600360159054906101000a900460ff161515610f6e57600080fd5b6000600360156101000a81548160ff0219169083151502179055507f7805862f689e2f13df9f062ff482ad3ad112aca9e0847911ed832e158c525b3360405160405180910390a1565b6000600360009054906101000a900473ffffffffffffffffffffffffffffffffffffffff1673ffffffffffffffffffffffffffffffffffffffff163373ffffffffffffffffffffffffffffffffffffffff1614151561101557600080fd5b600360149054906101000a900460ff1615151561103157600080fd5b6110468260005461311290919063ffffffff16565b60008190555061109e82600160008673ffffffffffffffffffffffffffffffffffffffff1673ffffffffffffffffffffffffffffffffffffffff1681526020019081526020016000205461311290919063ffffffff16565b600160008573ffffffffffffffffffffffffffffffffffffffff1673ffffffffffffffffffffffffffffffffffffffff168152602001908152602001600020819055508273ffffffffffffffffffffffffffffffffffffffff167f0f6798a560793a54c3bcfe86a93cde1e73087d944c0ea20544137d4121396885836040518082815260200191505060405180910390a28273ffffffffffffffffffffffffffffffffffffffff16600073ffffffffffffffffffffffffffffffffffffffff167fddf252ad1be2c89b69c2b068fc378daa952ba7f163c4a11628f55a4df523b3ef846040518082815260200191505060405180910390a36001905092915050565b600360009054906101000a900473ffffffffffffffffffffffffffffffffffffffff1673ffffffffffffffffffffffffffffffffffffffff163373ffffffffffffffffffffffffffffffffffffffff161415156111fb57600080fd5b80600960006101000a81548173ffffffffffffffffffffffffffffffffffffffff021916908373ffffffffffffffffffffffffffffffffffffffff16021790555050565b600081600160003373ffffffffffffffffffffffffffffffffffffffff1673ffffffffffffffffffffffffffffffffffffffff168152602001908152602001600020541015151561128c57fe5b6112de82600160003373ffffffffffffffffffffffffffffffffffffffff1673ffffffffffffffffffffffffffffffffffffffff1681526020019081526020016000205461313090919063ffffffff16565b600160003373ffffffffffffffffffffffffffffffffffffffff1673ffffffffffffffffffffffffffffffffffffffff1681526020019081526020016000208190555061139582600a60003373ffffffffffffffffffffffffffffffffffffffff1673ffffffffffffffffffffffffffffffffffffffff168152602001908152602001600020600080600281111561137257fe5b60ff1660ff1681526020019081526020016000205461311290919063ffffffff16565b600a60003373ffffffffffffffffffffffffffffffffffffffff1673ffffffffffffffffffffffffffffffffffffffff16815260200190815260200160002060008060028111156113e257fe5b60ff1660ff1681526020019081526020016000208190555060003373ffffffffffffffffffffffffffffffffffffffff167fddf252ad1be2c89b69c2b068fc378daa952ba7f163c4a11628f55a4df523b3ef846040518082815260200191505060405180910390a37f0f30aa5a186db94018a20857f8cbe6f1156cb35de19b2f988e78733e44f6590f33600084604051808473ffffffffffffffffffffffffffffffffffffffff1673ffffffffffffffffffffffffffffffffffffffff1681526020018360028111156114b157fe5b60ff168152602001828152602001935050505060405180910390a160019050919050565b600360159054906101000a900460ff1681565b60008060008090505b60208160ff1610156119315742600b60003373ffffffffffffffffffffffffffffffffffffffff1673ffffffffffffffffffffffffffffffffffffffff1681526020019081526020016000206000018260ff1660208110151561155057fe5b60020201600101541015611924576000600b60003373ffffffffffffffffffffffffffffffffffffffff1673ffffffffffffffffffffffffffffffffffffffff1681526020019081526020016000206000018260ff166020811015156115b257fe5b6002020160000154111561192357600b60003373ffffffffffffffffffffffffffffffffffffffff1673ffffffffffffffffffffffffffffffffffffffff1681526020019081526020016000206000018160ff1660208110151561161257fe5b6002020160000154915061169182600a60003373ffffffffffffffffffffffffffffffffffffffff1673ffffffffffffffffffffffffffffffffffffffff16815260200190815260200160002060006001600281111561166e57fe5b60ff1660ff1681526020019081526020016000205461313090919063ffffffff16565b600a60003373ffffffffffffffffffffffffffffffffffffffff1673ffffffffffffffffffffffffffffffffffffffff1681526020019081526020016000206000600160028111156116df57fe5b60ff1660ff1681526020019081526020016000208190555061174982600160003373ffffffffffffffffffffffffffffffffffffffff1673ffffffffffffffffffffffffffffffffffffffff1681526020019081526020016000205461311290919063ffffffff16565b600160003373ffffffffffffffffffffffffffffffffffffffff1673ffffffffffffffffffffffffffffffffffffffff16815260200190815260200160002081905550600b60003373ffffffffffffffffffffffffffffffffffffffff1673ffffffffffffffffffffffffffffffffffffffff1681526020019081526020016000206000018160ff166020811015156117de57fe5b600202016000808201600090556001820160009055505080600b60003373ffffffffffffffffffffffffffffffffffffffff1673ffffffffffffffffffffffffffffffffffffffff16815260200190815260200160002060400160006101000a81548160ff021916908360ff1602179055503373ffffffffffffffffffffffffffffffffffffffff1660007fddf252ad1be2c89b69c2b068fc378daa952ba7f163c4a11628f55a4df523b3ef846040518082815260200191505060405180910390a37f0f30aa5a186db94018a20857f8cbe6f1156cb35de19b2f988e78733e44f6590f33600284604051808473ffffffffffffffffffffffffffffffffffffffff1673ffffffffffffffffffffffffffffffffffffffff16815260200183600281111561190757fe5b60ff168152602001828152602001935050505060405180910390a15b5b80806001019150506114f1565b60019250505090565b6000600360159054906101000a900460ff1615151561195857600080fd5b6119628383613149565b905092915050565b60006119746137fa565b6000808411151561198457600080fd5b6020600b60003373ffffffffffffffffffffffffffffffffffffffff1673ffffffffffffffffffffffffffffffffffffffff16815260200190815260200160002060400160009054906101000a900460ff1660ff161015156119e257fe5b611a5684600a60003373ffffffffffffffffffffffffffffffffffffffff1673ffffffffffffffffffffffffffffffffffffffff1681526020019081526020016000206000806002811115611a3357fe5b60ff1660ff1681526020019081526020016000205461313090919063ffffffff16565b600a60003373ffffffffffffffffffffffffffffffffffffffff1673ffffffffffffffffffffffffffffffffffffffff1681526020019081526020016000206000806002811115611aa357fe5b60ff1660ff16815260200190815260200160002081905550611b3084600a60003373ffffffffffffffffffffffffffffffffffffffff1673ffffffffffffffffffffffffffffffffffffffff168152602001908152602001600020600060016002811115611b0d57fe5b60ff1660ff1681526020019081526020016000205461311290919063ffffffff16565b600a60003373ffffffffffffffffffffffffffffffffffffffff1673ffffffffffffffffffffffffffffffffffffffff168152602001908152602001600020600060016002811115611b7e57fe5b60ff1660ff1681526020019081526020016000208190555060408051908101604052808581526020016007544201815250915081600b60003373ffffffffffffffffffffffffffffffffffffffff1673ffffffffffffffffffffffffffffffffffffffff168152602001908152602001600020600001600b60003373ffffffffffffffffffffffffffffffffffffffff1673ffffffffffffffffffffffffffffffffffffffff16815260200190815260200160002060400160009054906101000a900460ff1660ff16602081101515611c5357fe5b600202016000820151816000015560208201518160010155905050601f600b60003373ffffffffffffffffffffffffffffffffffffffff1673ffffffffffffffffffffffffffffffffffffffff16815260200190815260200160002060400160009054906101000a900460ff1660ff161415611d2a576000600b60003373ffffffffffffffffffffffffffffffffffffffff1673ffffffffffffffffffffffffffffffffffffffff16815260200190815260200160002060400160006101000a81548160ff021916908360ff160217905550611d9d565b600b60003373ffffffffffffffffffffffffffffffffffffffff1673ffffffffffffffffffffffffffffffffffffffff168152602001908152602001600020604001600081819054906101000a900460ff168092919060010191906101000a81548160ff021916908360ff160217905550505b600090505b6020600b60003373ffffffffffffffffffffffffffffffffffffffff1673ffffffffffffffffffffffffffffffffffffffff16815260200190815260200160002060400160009054906101000a900460ff1660ff161015611f2e576000600b60003373ffffffffffffffffffffffffffffffffffffffff1673ffffffffffffffffffffffffffffffffffffffff168152602001908152602001600020600001600b60003373ffffffffffffffffffffffffffffffffffffffff1673ffffffffffffffffffffffffffffffffffffffff16815260200190815260200160002060400160009054906101000a900460ff1660ff16602081101515611ea057fe5b60020201600101541415611eb75760019050611f2e565b600b60003373ffffffffffffffffffffffffffffffffffffffff1673ffffffffffffffffffffffffffffffffffffffff168152602001908152602001600020604001600081819054906101000a900460ff168092919060010191906101000a81548160ff021916908360ff16021790555050611da2565b7f0f30aa5a186db94018a20857f8cbe6f1156cb35de19b2f988e78733e44f6590f33600186604051808473ffffffffffffffffffffffffffffffffffffffff1673ffffffffffffffffffffffffffffffffffffffff168152602001836002811115611f9557fe5b60ff168152602001828152602001935050505060405180910390a1600192505050919050565b6000600a60008373ffffffffffffffffffffffffffffffffffffffff1673ffffffffffffffffffffffffffffffffffffffff16815260200190815260200160002060006001600281111561200b57fe5b60ff1660ff168152602001908152602001600020549050919050565b6000600160008373ffffffffffffffffffffffffffffffffffffffff1673ffffffffffffffffffffffffffffffffffffffff168152602001908152602001600020549050919050565b6000600360009054906101000a900473ffffffffffffffffffffffffffffffffffffffff1673ffffffffffffffffffffffffffffffffffffffff163373ffffffffffffffffffffffffffffffffffffffff161415156120ce57600080fd5b600360149054906101000a900460ff161515156120ea57600080fd5b6001600360146101000a81548160ff0219169083151502179055507fae5184fba832cb2b1f702aca6117b8d265eaf03ad33eb133f19dde0f5920fa0860405160405180910390a16001905090565b600360009054906101000a900473ffffffffffffffffffffffffffffffffffffffff1673ffffffffffffffffffffffffffffffffffffffff163373ffffffffffffffffffffffffffffffffffffffff1614151561219457600080fd5b600360159054906101000a900460ff161515156121b057600080fd5b6001600360156101000a81548160ff0219169083151502179055507f6985a02210a168e66602d3235cb6db0e70f92b3ba4d376a33c0f3d9434bff62560405160405180910390a1565b600080600084118061220b5750600034115b151561221657600080fd5b600960009054906101000a900473ffffffffffffffffffffffffffffffffffffffff1673ffffffffffffffffffffffffffffffffffffffff1663e30bd740866000604051602001526040518263ffffffff167c0100000000000000000000000000000000000000000000000000000000028152600401808273ffffffffffffffffffffffffffffffffffffffff1673ffffffffffffffffffffffffffffffffffffffff168152602001915050602060405180830381600087803b15156122db57600080fd5b6102c65a03f115156122ec57600080fd5b50505060405180519050905060006001026000191681600019161415156123d557600960009054906101000a900473ffffffffffffffffffffffffffffffffffffffff1673ffffffffffffffffffffffffffffffffffffffff1663c59315bf826000604051602001526040518263ffffffff167c0100000000000000000000000000000000000000000000000000000000028152600401808260001916600019168152602001915050602060405180830381600087803b15156123ae57600080fd5b6102c65a03f115156123bf57600080fd5b5050506040518051905015156123d457600080fd5b5b60008411156123f4576123e88585612684565b15156123f357600080fd5b5b600034111561243e578473ffffffffffffffffffffffffffffffffffffffff166108fc349081150290604051600060405180830381858888f19350505050151561243d57600080fd5b5b8473ffffffffffffffffffffffffffffffffffffffff163373ffffffffffffffffffffffffffffffffffffffff167ff0867503c5147c27b10a8e12f7c0ca20f597dc2174d3a6b51a25cb7c5191460a8634876040518084815260200183815260200180602001828103825283818151815260200191508051906020019080838360005b838110156124dc5780820151818401526020810190506124c1565b50505050905090810190601f1680156125095780820380516001836020036101000a031916815260200191505b5094505050505060405180910390a3509392505050565b600360009054906101000a900473ffffffffffffffffffffffffffffffffffffffff1681565b600360009054906101000a900473ffffffffffffffffffffffffffffffffffffffff1673ffffffffffffffffffffffffffffffffffffffff163373ffffffffffffffffffffffffffffffffffffffff161415156125a257600080fd5b80600860006101000a81548173ffffffffffffffffffffffffffffffffffffffff021916908373ffffffffffffffffffffffffffffffffffffffff16021790555050565b60058054600181600116156101000203166002900480601f01602080910402602001604051908101604052809291908181526020018280546001816001161561010002031660029004801561267c5780601f106126515761010080835404028352916020019161267c565b820191906000526020600020905b81548152906001019060200180831161265f57829003601f168201915b505050505081565b6000600360159054906101000a900460ff161515156126a257600080fd5b6126ac83836133da565b905092915050565b600360009054906101000a900473ffffffffffffffffffffffffffffffffffffffff1673ffffffffffffffffffffffffffffffffffffffff163373ffffffffffffffffffffffffffffffffffffffff1614151561271057600080fd5b8060078190555050565b6000600360159054906101000a900460ff1615151561273857600080fd5b61274283836135fe565b905092915050565b6000600260008473ffffffffffffffffffffffffffffffffffffffff1673ffffffffffffffffffffffffffffffffffffffff16815260200190815260200160002060008373ffffffffffffffffffffffffffffffffffffffff1673ffffffffffffffffffffffffffffffffffffffff16815260200190815260200160002054905092915050565b6000600a60008373ffffffffffffffffffffffffffffffffffffffff1673ffffffffffffffffffffffffffffffffffffffff168152602001908152602001600020600080600281111561282057fe5b60ff1660ff168152602001908152602001600020549050919050565b6000806000600160008573ffffffffffffffffffffffffffffffffffffffff1673ffffffffffffffffffffffffffffffffffffffff168152602001908152602001600020549250600a60008573ffffffffffffffffffffffffffffffffffffffff1673ffffffffffffffffffffffffffffffffffffffff16815260200190815260200160002060008060028111156128d057fe5b60ff1660ff168152602001908152602001600020549150600a60008573ffffffffffffffffffffffffffffffffffffffff1673ffffffffffffffffffffffffffffffffffffffff16815260200190815260200160002060006001600281111561293557fe5b60ff1660ff1681526020019081526020016000205490509193909250565b600360009054906101000a900473ffffffffffffffffffffffffffffffffffffffff1673ffffffffffffffffffffffffffffffffffffffff163373ffffffffffffffffffffffffffffffffffffffff161415156129af57600080fd5b600073ffffffffffffffffffffffffffffffffffffffff168173ffffffffffffffffffffffffffffffffffffffff16141515156129eb57600080fd5b8073ffffffffffffffffffffffffffffffffffffffff16600360009054906101000a900473ffffffffffffffffffffffffffffffffffffffff1673ffffffffffffffffffffffffffffffffffffffff167f8be0079c531659141344cd1fd0a4f28419497f9722a3daafe3b4186f6b6457e060405160405180910390a380600360006101000a81548173ffffffffffffffffffffffffffffffffffffffff021916908373ffffffffffffffffffffffffffffffffffffffff16021790555050565b6000600860009054906101000a900473ffffffffffffffffffffffffffffffffffffffff1673ffffffffffffffffffffffffffffffffffffffff163373ffffffffffffffffffffffffffffffffffffffff16141515612b0957600080fd5b612b1e8260005461311290919063ffffffff16565b600081905550612b7682600160008673ffffffffffffffffffffffffffffffffffffffff1673ffffffffffffffffffffffffffffffffffffffff1681526020019081526020016000205461311290919063ffffffff16565b600160008573ffffffffffffffffffffffffffffffffffffffff1673ffffffffffffffffffffffffffffffffffffffff168152602001908152602001600020819055508273ffffffffffffffffffffffffffffffffffffffff167f0f6798a560793a54c3bcfe86a93cde1e73087d944c0ea20544137d4121396885836040518082815260200191505060405180910390a28273ffffffffffffffffffffffffffffffffffffffff1660007fddf252ad1be2c89b69c2b068fc378daa952ba7f163c4a11628f55a4df523b3ef846040518082815260200191505060405180910390a36001905092915050565b600081600260003373ffffffffffffffffffffffffffffffffffffffff1673ffffffffffffffffffffffffffffffffffffffff16815260200190815260200160002060008573ffffffffffffffffffffffffffffffffffffffff1673ffffffffffffffffffffffffffffffffffffffff168152602001908152602001600020819055508273ffffffffffffffffffffffffffffffffffffffff163373ffffffffffffffffffffffffffffffffffffffff167f8c5be1e5ebec7d5bd14f71427d1e84f3dd0314c0f7b2291e5b200ac8c7c3b925846040518082815260200191505060405180910390a36001905092915050565b60008073ffffffffffffffffffffffffffffffffffffffff168373ffffffffffffffffffffffffffffffffffffffff1614151515612d9057600080fd5b600160008573ffffffffffffffffffffffffffffffffffffffff1673ffffffffffffffffffffffffffffffffffffffff168152602001908152602001600020548211151515612dde57600080fd5b600260008573ffffffffffffffffffffffffffffffffffffffff1673ffffffffffffffffffffffffffffffffffffffff16815260200190815260200160002060003373ffffffffffffffffffffffffffffffffffffffff1673ffffffffffffffffffffffffffffffffffffffff168152602001908152602001600020548211151515612e6957600080fd5b612ebb82600160008773ffffffffffffffffffffffffffffffffffffffff1673ffffffffffffffffffffffffffffffffffffffff1681526020019081526020016000205461313090919063ffffffff16565b600160008673ffffffffffffffffffffffffffffffffffffffff1673ffffffffffffffffffffffffffffffffffffffff16815260200190815260200160002081905550612f5082600160008673ffffffffffffffffffffffffffffffffffffffff1673ffffffffffffffffffffffffffffffffffffffff1681526020019081526020016000205461311290919063ffffffff16565b600160008573ffffffffffffffffffffffffffffffffffffffff1673ffffffffffffffffffffffffffffffffffffffff1681526020019081526020016000208190555061302282600260008773ffffffffffffffffffffffffffffffffffffffff1673ffffffffffffffffffffffffffffffffffffffff16815260200190815260200160002060003373ffffffffffffffffffffffffffffffffffffffff1673ffffffffffffffffffffffffffffffffffffffff1681526020019081526020016000205461313090919063ffffffff16565b600260008673ffffffffffffffffffffffffffffffffffffffff1673ffffffffffffffffffffffffffffffffffffffff16815260200190815260200160002060003373ffffffffffffffffffffffffffffffffffffffff1673ffffffffffffffffffffffffffffffffffffffff168152602001908152602001600020819055508273ffffffffffffffffffffffffffffffffffffffff168473ffffffffffffffffffffffffffffffffffffffff167fddf252ad1be2c89b69c2b068fc378daa952ba7f163c4a11628f55a4df523b3ef846040518082815260200191505060405180910390a3600190509392505050565b600080828401905083811015151561312657fe5b8091505092915050565b600082821115151561313e57fe5b818303905092915050565b600080600260003373ffffffffffffffffffffffffffffffffffffffff1673ffffffffffffffffffffffffffffffffffffffff16815260200190815260200160002060008573ffffffffffffffffffffffffffffffffffffffff1673ffffffffffffffffffffffffffffffffffffffff1681526020019081526020016000205490508083111561325a576000600260003373ffffffffffffffffffffffffffffffffffffffff1673ffffffffffffffffffffffffffffffffffffffff16815260200190815260200160002060008673ffffffffffffffffffffffffffffffffffffffff1673ffffffffffffffffffffffffffffffffffffffff168152602001908152602001600020819055506132ee565b61326d838261313090919063ffffffff16565b600260003373ffffffffffffffffffffffffffffffffffffffff1673ffffffffffffffffffffffffffffffffffffffff16815260200190815260200160002060008673ffffffffffffffffffffffffffffffffffffffff1673ffffffffffffffffffffffffffffffffffffffff168152602001908152602001600020819055505b8373ffffffffffffffffffffffffffffffffffffffff163373ffffffffffffffffffffffffffffffffffffffff167f8c5be1e5ebec7d5bd14f71427d1e84f3dd0314c0f7b2291e5b200ac8c7c3b925600260003373ffffffffffffffffffffffffffffffffffffffff1673ffffffffffffffffffffffffffffffffffffffff16815260200190815260200160002060008873ffffffffffffffffffffffffffffffffffffffff1673ffffffffffffffffffffffffffffffffffffffff168152602001908152602001600020546040518082815260200191505060405180910390a3600191505092915050565b60008073ffffffffffffffffffffffffffffffffffffffff168373ffffffffffffffffffffffffffffffffffffffff161415151561341757600080fd5b600160003373ffffffffffffffffffffffffffffffffffffffff1673ffffffffffffffffffffffffffffffffffffffff16815260200190815260200160002054821115151561346557600080fd5b6134b782600160003373ffffffffffffffffffffffffffffffffffffffff1673ffffffffffffffffffffffffffffffffffffffff1681526020019081526020016000205461313090919063ffffffff16565b600160003373ffffffffffffffffffffffffffffffffffffffff1673ffffffffffffffffffffffffffffffffffffffff1681526020019081526020016000208190555061354c82600160008673ffffffffffffffffffffffffffffffffffffffff1673ffffffffffffffffffffffffffffffffffffffff1681526020019081526020016000205461311290919063ffffffff16565b600160008573ffffffffffffffffffffffffffffffffffffffff1673ffffffffffffffffffffffffffffffffffffffff168152602001908152602001600020819055508273ffffffffffffffffffffffffffffffffffffffff163373ffffffffffffffffffffffffffffffffffffffff167fddf252ad1be2c89b69c2b068fc378daa952ba7f163c4a11628f55a4df523b3ef846040518082815260200191505060405180910390a36001905092915050565b600061368f82600260003373ffffffffffffffffffffffffffffffffffffffff1673ffffffffffffffffffffffffffffffffffffffff16815260200190815260200160002060008673ffffffffffffffffffffffffffffffffffffffff1673ffffffffffffffffffffffffffffffffffffffff1681526020019081526020016000205461311290919063ffffffff16565b600260003373ffffffffffffffffffffffffffffffffffffffff1673ffffffffffffffffffffffffffffffffffffffff16815260200190815260200160002060008573ffffffffffffffffffffffffffffffffffffffff1673ffffffffffffffffffffffffffffffffffffffff168152602001908152602001600020819055508273ffffffffffffffffffffffffffffffffffffffff163373ffffffffffffffffffffffffffffffffffffffff167f8c5be1e5ebec7d5bd14f71427d1e84f3dd0314c0f7b2291e5b200ac8c7c3b925600260003373ffffffffffffffffffffffffffffffffffffffff1673ffffffffffffffffffffffffffffffffffffffff16815260200190815260200160002060008773ffffffffffffffffffffffffffffffffffffffff1673ffffffffffffffffffffffffffffffffffffffff168152602001908152602001600020546040518082815260200191505060405180910390a36001905092915050565b6040805190810160405280600081526020016000815250905600a165627a7a723058205fcc43defad1fcefa8b6d98f5185c67d35ad7b2dcbc505c1c86443d68aef81640029",
  "source": "pragma solidity ^0.4.0;\n\nimport 'zeppelin-solidity/contracts/token/MintableToken.sol';\nimport 'zeppelin-solidity/contracts/token/PausableToken.sol';\nimport './ResolverInterface.sol';\n\ncontract AETH is MintableToken, PausableToken {\n    string public name = \"Akasha Beta Test Token #1\";\n\n    string public symbol = \"AETH\";\n\n    uint8 public decimals = 18;\n\n    uint256 public lockTime = 1 days;\n\n    address essence;\n\n    ResolverInterface resolver;\n\n    enum AethState {Bonded, Cycling, Free}\n\n    event Transition(address owner, AethState state, uint256 value);\n\n    event Donate(address indexed from, address indexed to, uint256 aeth, uint256 eth, string extraData);\n\n    struct CyclingState {\n    uint256 amount;\n    uint256 unlockDate;\n    }\n\n    struct CyclingStates {\n    CyclingState[32] states;\n    uint8 lastFreed;\n    }\n\n    mapping (address => mapping (uint8 => uint256)) tokenRecords;\n\n    mapping (address => CyclingStates) cycles;\n\n    modifier fromEssence()\n    {\n        require(msg.sender == essence);\n        _;\n    }\n\n    function setEssence(address _essence)\n    public\n    onlyOwner\n    {\n        essence = _essence;\n    }\n\n    function setResolver(ResolverInterface _resolver)\n    public\n    onlyOwner\n    {\n        resolver = _resolver;\n    }\n\n    function setLockTime(uint256 _time)\n    public\n    onlyOwner\n    {\n        lockTime = _time;\n    }\n\n\n    function bondAeth(uint256 _amount)\n    public\n    returns (bool)\n    {\n        assert(balances[msg.sender] >= _amount);\n        balances[msg.sender] = balances[msg.sender].sub(_amount);\n        tokenRecords[msg.sender][uint8(AethState.Bonded)] = tokenRecords[msg.sender][uint8(AethState.Bonded)].add(_amount);\n        Transfer(msg.sender, 0x0, _amount);\n        Transition(msg.sender, AethState.Bonded, _amount);\n        return true;\n    }\n\n    function cycleAeth(uint256 _amount)\n    public\n    returns (bool)\n    {\n        require(_amount > 0);\n        assert(cycles[msg.sender].lastFreed < 32);\n        tokenRecords[msg.sender][uint8(AethState.Bonded)] = tokenRecords[msg.sender][uint8(AethState.Bonded)].sub(_amount);\n        tokenRecords[msg.sender][uint8(AethState.Cycling)] = tokenRecords[msg.sender][uint8(AethState.Cycling)].add(_amount);\n        var state = CyclingState({amount : _amount, unlockDate : now + lockTime});\n        cycles[msg.sender].states[cycles[msg.sender].lastFreed] = state;\n\n        if (cycles[msg.sender].lastFreed == 31) {\n            cycles[msg.sender].lastFreed = 0;\n        }\n        else {\n            cycles[msg.sender].lastFreed++;\n        }\n        var found = false;\n        while (cycles[msg.sender].lastFreed < 32)\n        {\n            if (cycles[msg.sender].states[cycles[msg.sender].lastFreed].unlockDate == 0) {\n                found = true;\n                break;\n            }\n            cycles[msg.sender].lastFreed++;\n        }\n\n        Transition(msg.sender, AethState.Cycling, _amount);\n        return true;\n    }\n\n    function freeAeth()\n    public\n    returns (bool)\n    {\n        uint256 currentAmount;\n        for (uint8 i = 0; i < 32; i++) {\n            if (cycles[msg.sender].states[i].unlockDate < now ) {\n                if (cycles[msg.sender].states[i].amount > 0) {\n                    currentAmount = cycles[msg.sender].states[i].amount;\n                    tokenRecords[msg.sender][uint8(AethState.Cycling)] = tokenRecords[msg.sender][uint8(AethState.Cycling)].sub(currentAmount);\n                    balances[msg.sender] = balances[msg.sender].add(currentAmount);\n                    delete cycles[msg.sender].states[i];\n                    // must refactor this\n                    cycles[msg.sender].lastFreed = i;\n                    Transfer(0x0, msg.sender, currentAmount);\n                    Transition(msg.sender, AethState.Free, currentAmount);\n                }\n            }\n        }\n        return true;\n    }\n\n    function consumeEssence(address _to, uint256 _amount)\n    fromEssence\n    external\n    returns (bool)\n    {\n        totalSupply = totalSupply.add(_amount);\n        balances[_to] = balances[_to].add(_amount);\n        Mint(_to, _amount);\n        Transfer(0x0, _to, _amount);\n        return true;\n    }\n\n    function getCyclingStatesNr(address _holder, uint256 _fromDate)\n    public\n    constant\n    returns (uint8 _total, uint8 _available)\n    {\n        uint8 total = 0;\n        uint8 available = 0;\n\n        for (uint8 i = 0; i < 32; i++) {\n            if (cycles[_holder].states[i].amount > 0) {\n                total++;\n                if (cycles[_holder].states[i].unlockDate <= _fromDate) {\n                    available++;\n                }\n            }\n        }\n\n        return (total, available);\n    }\n\n    function getCyclingState(address _holder, uint8 _fromIndex)\n    public\n    constant\n    returns (uint256 _amount, uint256 _unlockDate, uint8 _index)\n    {\n        for (uint8 i = _fromIndex; i < 32; i++) {\n            if (cycles[_holder].states[i].amount > 0) {\n                _amount = cycles[_holder].states[i].amount;\n                _unlockDate = cycles[_holder].states[i].unlockDate;\n                _index = i;\n                break;\n            }\n        }\n    }\n\n    function bonded(address _holder)\n    public\n    constant\n    returns (uint256 _bonded)\n    {\n        _bonded = tokenRecords[_holder][uint8(AethState.Bonded)];\n    }\n\n    function cycling(address _holder)\n    public\n    constant\n    returns (uint256 _cycling)\n    {\n        _cycling = tokenRecords[_holder][uint8(AethState.Cycling)];\n    }\n\n    function getTokenRecords(address _holder)\n    public\n    constant\n    returns (uint256 _free, uint256 _bonded, uint256 _cycling)\n    {\n        _free = balances[_holder];\n        _bonded = tokenRecords[_holder][uint8(AethState.Bonded)];\n        _cycling = tokenRecords[_holder][uint8(AethState.Cycling)];\n    }\n\n    function donate(address _to, uint256 _aethAmount, string _extraData)\n    public\n    payable\n    returns (bool)\n    {\n        require(_aethAmount > 0 || msg.value > 0);\n        bytes32 resolved = resolver.reverse(_to);\n        if (resolved != bytes32(0x0)) {\n            // explicit opt for receiving donations\n            require(resolver.donationsEnabled(resolved));\n        }\n        if (_aethAmount > 0) {\n            require(transfer(_to, _aethAmount));\n        }\n\n        if (msg.value > 0) {\n            require(_to.send(msg.value));\n        }\n        Donate(msg.sender, _to, _aethAmount, msg.value, _extraData);\n    }\n\n}\n",
  "sourcePath": "/home/kenshyx/projects/contracts.alpha/contracts/token/AETH.sol",
  "compiler": {
    "name": "solc",
    "version": "0.4.18+commit.9cf6e910.Emscripten.clang"
  },
  "schemaVersion": "1.0.1",
  "updatedAt": "2018-01-09T14:50:25.402Z"
}