{
  "contractName": "AkashaStore",
  "abi": [
    {
      "constant": false,
      "inputs": [
        {
          "name": "token",
          "type": "address"
        }
      ],
      "name": "reclaimToken",
      "outputs": [],
      "payable": false,
      "stateMutability": "nonpayable",
      "type": "function"
    },
    {
      "constant": true,
      "inputs": [
        {
          "name": "_nameSpace",
          "type": "bytes32"
        },
        {
          "name": "_key",
          "type": "uint256"
        }
      ],
      "name": "get",
      "outputs": [
        {
          "name": "",
          "type": "bytes32"
        }
      ],
      "payable": false,
      "stateMutability": "view",
      "type": "function"
    },
    {
      "constant": true,
      "inputs": [],
      "name": "moduleAddress",
      "outputs": [
        {
          "name": "",
          "type": "address"
        }
      ],
      "payable": false,
      "stateMutability": "view",
      "type": "function"
    },
    {
      "constant": false,
      "inputs": [
        {
          "name": "_moduleAddress",
          "type": "address"
        }
      ],
      "name": "setModule",
      "outputs": [
        {
          "name": "",
          "type": "bool"
        }
      ],
      "payable": false,
      "stateMutability": "nonpayable",
      "type": "function"
    },
    {
      "constant": false,
      "inputs": [
        {
          "name": "_nameSpace",
          "type": "bytes32"
        },
        {
          "name": "_key",
          "type": "uint256"
        },
        {
          "name": "_value",
          "type": "bytes32"
        }
      ],
      "name": "set",
      "outputs": [
        {
          "name": "",
          "type": "bool"
        }
      ],
      "payable": false,
      "stateMutability": "nonpayable",
      "type": "function"
    },
    {
      "constant": true,
      "inputs": [
        {
          "name": "_nameSpace",
          "type": "bytes32"
        },
        {
          "name": "_key",
          "type": "bytes32"
        }
      ],
      "name": "get",
      "outputs": [
        {
          "name": "",
          "type": "uint256"
        }
      ],
      "payable": false,
      "stateMutability": "view",
      "type": "function"
    },
    {
      "constant": false,
      "inputs": [
        {
          "name": "_nameSpace",
          "type": "bytes32"
        },
        {
          "name": "_key",
          "type": "bytes32"
        },
        {
          "name": "_value",
          "type": "uint256"
        }
      ],
      "name": "set",
      "outputs": [
        {
          "name": "",
          "type": "bool"
        }
      ],
      "payable": false,
      "stateMutability": "nonpayable",
      "type": "function"
    },
    {
      "constant": false,
      "inputs": [],
      "name": "destroy",
      "outputs": [],
      "payable": false,
      "stateMutability": "nonpayable",
      "type": "function"
    },
    {
      "constant": false,
      "inputs": [
        {
          "name": "_moduleAddress",
          "type": "address"
        }
      ],
      "name": "updateModule",
      "outputs": [
        {
          "name": "",
          "type": "bool"
        }
      ],
      "payable": false,
      "stateMutability": "nonpayable",
      "type": "function"
    },
    {
      "constant": true,
      "inputs": [],
      "name": "owner",
      "outputs": [
        {
          "name": "",
          "type": "address"
        }
      ],
      "payable": false,
      "stateMutability": "view",
      "type": "function"
    },
    {
      "constant": false,
      "inputs": [],
      "name": "reclaimEther",
      "outputs": [],
      "payable": false,
      "stateMutability": "nonpayable",
      "type": "function"
    },
    {
      "constant": false,
      "inputs": [
        {
          "name": "from_",
          "type": "address"
        },
        {
          "name": "value_",
          "type": "uint256"
        },
        {
          "name": "data_",
          "type": "bytes"
        }
      ],
      "name": "tokenFallback",
      "outputs": [],
      "payable": false,
      "stateMutability": "nonpayable",
      "type": "function"
    },
    {
      "constant": false,
      "inputs": [
        {
          "name": "newOwner",
          "type": "address"
        }
      ],
      "name": "transferOwnership",
      "outputs": [],
      "payable": false,
      "stateMutability": "nonpayable",
      "type": "function"
    },
    {
      "constant": true,
      "inputs": [],
      "name": "previousStore",
      "outputs": [
        {
          "name": "",
          "type": "address"
        }
      ],
      "payable": false,
      "stateMutability": "view",
      "type": "function"
    },
    {
      "inputs": [
        {
          "name": "_owner",
          "type": "address"
        }
      ],
      "payable": false,
      "stateMutability": "nonpayable",
      "type": "constructor"
    },
    {
      "payable": false,
      "stateMutability": "nonpayable",
      "type": "fallback"
    },
    {
      "anonymous": false,
      "inputs": [
        {
          "indexed": true,
          "name": "previousOwner",
          "type": "address"
        },
        {
          "indexed": true,
          "name": "newOwner",
          "type": "address"
        }
      ],
      "name": "OwnershipTransferred",
      "type": "event"
    }
  ],
  "bytecode": "0x6060604052341561000f57600080fd5b604051602080610ecf83398101604052808051906020019091905050336000806101000a81548173ffffffffffffffffffffffffffffffffffffffff021916908373ffffffffffffffffffffffffffffffffffffffff16021790555060003414151561007a57600080fd5b50610e458061008a6000396000f3006060604052600436106100d0576000357c0100000000000000000000000000000000000000000000000000000000900463ffffffff16806317ffc320146100dd57806318ae19c21461011657806335b2bd2d1461016257806347f543bc146101b757806354221c8314610208578063658cc1f61461025d57806369469d57146102a557806383197ef0146102fa5780638c5f89dc1461030f5780638da5cb5b146103605780639f727c27146103b5578063c0ee0b8a146103ca578063f2fde38b14610420578063f8ce386c14610459575b34156100db57600080fd5b005b34156100e857600080fd5b610114600480803573ffffffffffffffffffffffffffffffffffffffff169060200190919050506104ae565b005b341561012157600080fd5b61014460048080356000191690602001909190803590602001909190505061061b565b60405180826000191660001916815260200191505060405180910390f35b341561016d57600080fd5b610175610655565b604051808273ffffffffffffffffffffffffffffffffffffffff1673ffffffffffffffffffffffffffffffffffffffff16815260200191505060405180910390f35b34156101c257600080fd5b6101ee600480803573ffffffffffffffffffffffffffffffffffffffff1690602001909190505061067b565b604051808215151515815260200191505060405180910390f35b341561021357600080fd5b6102436004808035600019169060200190919080359060200190919080356000191690602001909190505061075e565b604051808215151515815260200191505060405180910390f35b341561026857600080fd5b61028f60048080356000191690602001909190803560001916906020019091905050610837565b6040518082815260200191505060405180910390f35b34156102b057600080fd5b6102e060048080356000191690602001909190803560001916906020019091908035906020019091905050610879565b604051808215151515815260200191505060405180910390f35b341561030557600080fd5b61030d610956565b005b341561031a57600080fd5b610346600480803573ffffffffffffffffffffffffffffffffffffffff169060200190919050506109eb565b604051808215151515815260200191505060405180910390f35b341561036b57600080fd5b610373610acf565b604051808273ffffffffffffffffffffffffffffffffffffffff1673ffffffffffffffffffffffffffffffffffffffff16815260200191505060405180910390f35b34156103c057600080fd5b6103c8610af4565b005b34156103d557600080fd5b61041e600480803573ffffffffffffffffffffffffffffffffffffffff169060200190919080359060200190919080359060200190820180359060200191909192905050610bc6565b005b341561042b57600080fd5b610457600480803573ffffffffffffffffffffffffffffffffffffffff16906020019091905050610bcb565b005b341561046457600080fd5b61046c610d20565b604051808273ffffffffffffffffffffffffffffffffffffffff1673ffffffffffffffffffffffffffffffffffffffff16815260200191505060405180910390f35b60008060009054906101000a900473ffffffffffffffffffffffffffffffffffffffff1673ffffffffffffffffffffffffffffffffffffffff163373ffffffffffffffffffffffffffffffffffffffff1614151561050b57600080fd5b8173ffffffffffffffffffffffffffffffffffffffff166370a08231306000604051602001526040518263ffffffff167c0100000000000000000000000000000000000000000000000000000000028152600401808273ffffffffffffffffffffffffffffffffffffffff1673ffffffffffffffffffffffffffffffffffffffff168152602001915050602060405180830381600087803b15156105ae57600080fd5b6102c65a03f115156105bf57600080fd5b5050506040518051905090506106176000809054906101000a900473ffffffffffffffffffffffffffffffffffffffff16828473ffffffffffffffffffffffffffffffffffffffff16610d469092919063ffffffff16565b5050565b6000600360008460001916600019168152602001908152602001600020600001600083815260200190815260200160002054905092915050565b600160009054906101000a900473ffffffffffffffffffffffffffffffffffffffff1681565b60008060009054906101000a900473ffffffffffffffffffffffffffffffffffffffff1673ffffffffffffffffffffffffffffffffffffffff163373ffffffffffffffffffffffffffffffffffffffff161415156106d857600080fd5b600073ffffffffffffffffffffffffffffffffffffffff168273ffffffffffffffffffffffffffffffffffffffff161415151561071457600080fd5b81600160006101000a81548173ffffffffffffffffffffffffffffffffffffffff021916908373ffffffffffffffffffffffffffffffffffffffff16021790555060019050919050565b6000600160009054906101000a900473ffffffffffffffffffffffffffffffffffffffff1673ffffffffffffffffffffffffffffffffffffffff163373ffffffffffffffffffffffffffffffffffffffff161415156107bc57600080fd5b81600360008660001916600019168152602001908152602001600020600001600085815260200190815260200160002081600019169055508160001916600360008660001916600019168152602001908152602001600020600001600085815260200190815260200160002054600019161490509392505050565b60006003600084600019166000191681526020019081526020016000206001016000836000191660001916815260200190815260200160002054905092915050565b6000600160009054906101000a900473ffffffffffffffffffffffffffffffffffffffff1673ffffffffffffffffffffffffffffffffffffffff163373ffffffffffffffffffffffffffffffffffffffff161415156108d757600080fd5b8160036000866000191660001916815260200190815260200160002060010160008560001916600019168152602001908152602001600020819055508160036000866000191660001916815260200190815260200160002060010160008560001916600019168152602001908152602001600020541490509392505050565b6000809054906101000a900473ffffffffffffffffffffffffffffffffffffffff1673ffffffffffffffffffffffffffffffffffffffff163373ffffffffffffffffffffffffffffffffffffffff161415156109b157600080fd5b6000809054906101000a900473ffffffffffffffffffffffffffffffffffffffff1673ffffffffffffffffffffffffffffffffffffffff16ff5b6000600160009054906101000a900473ffffffffffffffffffffffffffffffffffffffff1673ffffffffffffffffffffffffffffffffffffffff163373ffffffffffffffffffffffffffffffffffffffff16141515610a4957600080fd5b600073ffffffffffffffffffffffffffffffffffffffff168273ffffffffffffffffffffffffffffffffffffffff1614151515610a8557600080fd5b81600160006101000a81548173ffffffffffffffffffffffffffffffffffffffff021916908373ffffffffffffffffffffffffffffffffffffffff16021790555060019050919050565b6000809054906101000a900473ffffffffffffffffffffffffffffffffffffffff1681565b6000809054906101000a900473ffffffffffffffffffffffffffffffffffffffff1673ffffffffffffffffffffffffffffffffffffffff163373ffffffffffffffffffffffffffffffffffffffff16141515610b4f57600080fd5b6000809054906101000a900473ffffffffffffffffffffffffffffffffffffffff1673ffffffffffffffffffffffffffffffffffffffff166108fc3073ffffffffffffffffffffffffffffffffffffffff16319081150290604051600060405180830381858888f193505050501515610bc457fe5b565b600080fd5b6000809054906101000a900473ffffffffffffffffffffffffffffffffffffffff1673ffffffffffffffffffffffffffffffffffffffff163373ffffffffffffffffffffffffffffffffffffffff16141515610c2657600080fd5b600073ffffffffffffffffffffffffffffffffffffffff168173ffffffffffffffffffffffffffffffffffffffff1614151515610c6257600080fd5b8073ffffffffffffffffffffffffffffffffffffffff166000809054906101000a900473ffffffffffffffffffffffffffffffffffffffff1673ffffffffffffffffffffffffffffffffffffffff167f8be0079c531659141344cd1fd0a4f28419497f9722a3daafe3b4186f6b6457e060405160405180910390a3806000806101000a81548173ffffffffffffffffffffffffffffffffffffffff021916908373ffffffffffffffffffffffffffffffffffffffff16021790555050565b600260009054906101000a900473ffffffffffffffffffffffffffffffffffffffff1681565b8273ffffffffffffffffffffffffffffffffffffffff1663a9059cbb83836000604051602001526040518363ffffffff167c0100000000000000000000000000000000000000000000000000000000028152600401808373ffffffffffffffffffffffffffffffffffffffff1673ffffffffffffffffffffffffffffffffffffffff16815260200182815260200192505050602060405180830381600087803b1515610df157600080fd5b6102c65a03f11515610e0257600080fd5b505050604051805190501515610e1457fe5b5050505600a165627a7a72305820f4d766c7932bb58cd7fddc96bf2ae5bdd14699e585ea9937c4841ef3e6d631700029",
  "source": "pragma solidity ^0.4.0;\n\n\nimport './Bundled.sol';\n\n\ncontract AkashaStore is Bundled {\n\n    address public previousStore;\n\n    struct Store {\n    mapping (uint => bytes32) uintBytes;\n    mapping (bytes32 => uint) bytesUint;\n    }\n\n    mapping (bytes32 => Store) state;\n\n    function AkashaStore(address _owner) Bundled() {\n\n    }\n\n    function set(bytes32 _nameSpace, bytes32 _key, uint _value)\n    external\n    onlyModule\n    returns (bool)\n    {\n        state[_nameSpace].bytesUint[_key] = _value;\n\n        return state[_nameSpace].bytesUint[_key] == _value;\n    }\n\n    function set(bytes32 _nameSpace, uint _key, bytes32 _value)\n    external\n    onlyModule\n    returns (bool)\n    {\n        state[_nameSpace].uintBytes[_key] = _value;\n\n        return state[_nameSpace].uintBytes[_key] == _value;\n    }\n\n    function get(bytes32 _nameSpace, uint _key)\n    constant\n    returns (bytes32)\n    {\n        return state[_nameSpace].uintBytes[_key];\n    }\n\n    function get(bytes32 _nameSpace, bytes32 _key)\n    constant\n    returns (uint)\n    {\n        return state[_nameSpace].bytesUint[_key];\n    }\n\n}\n",
  "sourcePath": "/home/kenshyx/projects/contracts.alpha/contracts/AkashaStore.sol",
  "compiler": {
    "name": "solc",
    "version": "0.4.18+commit.9cf6e910.Emscripten.clang"
  },
  "schemaVersion": "1.0.1",
  "updatedAt": "2017-11-13T17:09:54.101Z"
}