{
  "contractName": "Comments",
  "abi": [
    {
      "constant": false,
      "inputs": [
        {
          "name": "_entryId",
          "type": "bytes32"
        },
        {
          "name": "_entryAuthor",
          "type": "address"
        },
        {
          "name": "_commentId",
          "type": "bytes32"
        },
        {
          "name": "_hash",
          "type": "bytes32"
        },
        {
          "name": "_fn",
          "type": "uint8"
        },
        {
          "name": "_digestSize",
          "type": "uint8"
        }
      ],
      "name": "edit",
      "outputs": [
        {
          "name": "",
          "type": "bool"
        }
      ],
      "payable": false,
      "stateMutability": "nonpayable",
      "type": "function"
    },
    {
      "constant": true,
      "inputs": [
        {
          "name": "_entryId",
          "type": "bytes32"
        }
      ],
      "name": "totalComments",
      "outputs": [
        {
          "name": "_total",
          "type": "uint256"
        }
      ],
      "payable": false,
      "stateMutability": "view",
      "type": "function"
    },
    {
      "constant": true,
      "inputs": [
        {
          "name": "_entryId",
          "type": "bytes32"
        },
        {
          "name": "_commentId",
          "type": "bytes32"
        }
      ],
      "name": "isDeleted",
      "outputs": [
        {
          "name": "_deleted",
          "type": "bool"
        }
      ],
      "payable": false,
      "stateMutability": "view",
      "type": "function"
    },
    {
      "constant": true,
      "inputs": [],
      "name": "discount_every",
      "outputs": [
        {
          "name": "",
          "type": "uint256"
        }
      ],
      "payable": false,
      "stateMutability": "view",
      "type": "function"
    },
    {
      "constant": false,
      "inputs": [
        {
          "name": "token",
          "type": "address"
        }
      ],
      "name": "reclaimToken",
      "outputs": [],
      "payable": false,
      "stateMutability": "nonpayable",
      "type": "function"
    },
    {
      "constant": false,
      "inputs": [
        {
          "name": "_votes",
          "type": "address"
        }
      ],
      "name": "setVotes",
      "outputs": [],
      "payable": false,
      "stateMutability": "nonpayable",
      "type": "function"
    },
    {
      "constant": false,
      "inputs": [
        {
          "name": "_entryId",
          "type": "bytes32"
        },
        {
          "name": "_entryAuthor",
          "type": "address"
        },
        {
          "name": "_commentId",
          "type": "bytes32"
        }
      ],
      "name": "deleteComment",
      "outputs": [
        {
          "name": "",
          "type": "bool"
        }
      ],
      "payable": false,
      "stateMutability": "nonpayable",
      "type": "function"
    },
    {
      "constant": true,
      "inputs": [
        {
          "name": "_entryId",
          "type": "bytes32"
        },
        {
          "name": "_commentId",
          "type": "bytes32"
        }
      ],
      "name": "getComment",
      "outputs": [
        {
          "name": "parent",
          "type": "bytes32"
        },
        {
          "name": "author",
          "type": "address"
        },
        {
          "name": "deleted",
          "type": "bool"
        },
        {
          "name": "publishDate",
          "type": "uint256"
        },
        {
          "name": "_fn",
          "type": "uint8"
        },
        {
          "name": "_digestSize",
          "type": "uint8"
        },
        {
          "name": "_hash",
          "type": "bytes32"
        }
      ],
      "payable": false,
      "stateMutability": "view",
      "type": "function"
    },
    {
      "constant": false,
      "inputs": [
        {
          "name": "_entryId",
          "type": "bytes32"
        },
        {
          "name": "_entryAuthor",
          "type": "address"
        },
        {
          "name": "_parent",
          "type": "bytes32"
        },
        {
          "name": "_hash",
          "type": "bytes32"
        },
        {
          "name": "_fn",
          "type": "uint8"
        },
        {
          "name": "_digestSize",
          "type": "uint8"
        }
      ],
      "name": "publish",
      "outputs": [
        {
          "name": "",
          "type": "bool"
        }
      ],
      "payable": false,
      "stateMutability": "nonpayable",
      "type": "function"
    },
    {
      "constant": true,
      "inputs": [
        {
          "name": "_entryId",
          "type": "bytes32"
        },
        {
          "name": "_commentId",
          "type": "bytes32"
        }
      ],
      "name": "exists",
      "outputs": [
        {
          "name": "",
          "type": "bool"
        }
      ],
      "payable": false,
      "stateMutability": "view",
      "type": "function"
    },
    {
      "constant": true,
      "inputs": [],
      "name": "owner",
      "outputs": [
        {
          "name": "",
          "type": "address"
        }
      ],
      "payable": false,
      "stateMutability": "view",
      "type": "function"
    },
    {
      "constant": false,
      "inputs": [
        {
          "name": "_essence",
          "type": "address"
        }
      ],
      "name": "setEssence",
      "outputs": [],
      "payable": false,
      "stateMutability": "nonpayable",
      "type": "function"
    },
    {
      "constant": false,
      "inputs": [],
      "name": "reclaimEther",
      "outputs": [],
      "payable": false,
      "stateMutability": "nonpayable",
      "type": "function"
    },
    {
      "constant": true,
      "inputs": [
        {
          "name": "_publisher",
          "type": "address"
        }
      ],
      "name": "totalCommentsOf",
      "outputs": [
        {
          "name": "",
          "type": "uint256"
        }
      ],
      "payable": false,
      "stateMutability": "view",
      "type": "function"
    },
    {
      "constant": true,
      "inputs": [
        {
          "name": "_entryId",
          "type": "bytes32"
        },
        {
          "name": "_commentId",
          "type": "bytes32"
        }
      ],
      "name": "commentAuthor",
      "outputs": [
        {
          "name": "_author",
          "type": "address"
        }
      ],
      "payable": false,
      "stateMutability": "view",
      "type": "function"
    },
    {
      "constant": false,
      "inputs": [
        {
          "name": "from_",
          "type": "address"
        },
        {
          "name": "value_",
          "type": "uint256"
        },
        {
          "name": "data_",
          "type": "bytes"
        }
      ],
      "name": "tokenFallback",
      "outputs": [],
      "payable": false,
      "stateMutability": "nonpayable",
      "type": "function"
    },
    {
      "constant": false,
      "inputs": [
        {
          "name": "_entries",
          "type": "address"
        }
      ],
      "name": "setEntries",
      "outputs": [],
      "payable": false,
      "stateMutability": "nonpayable",
      "type": "function"
    },
    {
      "constant": true,
      "inputs": [],
      "name": "voting_period",
      "outputs": [
        {
          "name": "",
          "type": "uint256"
        }
      ],
      "payable": false,
      "stateMutability": "view",
      "type": "function"
    },
    {
      "constant": false,
      "inputs": [
        {
          "name": "_period",
          "type": "uint256"
        }
      ],
      "name": "setVotingPeriod",
      "outputs": [
        {
          "name": "",
          "type": "bool"
        }
      ],
      "payable": false,
      "stateMutability": "nonpayable",
      "type": "function"
    },
    {
      "constant": true,
      "inputs": [],
      "name": "required_essence",
      "outputs": [
        {
          "name": "",
          "type": "uint256"
        }
      ],
      "payable": false,
      "stateMutability": "view",
      "type": "function"
    },
    {
      "constant": false,
      "inputs": [
        {
          "name": "newOwner",
          "type": "address"
        }
      ],
      "name": "transferOwnership",
      "outputs": [],
      "payable": false,
      "stateMutability": "nonpayable",
      "type": "function"
    },
    {
      "constant": false,
      "inputs": [
        {
          "name": "_amount",
          "type": "uint256"
        }
      ],
      "name": "setRequiredEssence",
      "outputs": [
        {
          "name": "",
          "type": "bool"
        }
      ],
      "payable": false,
      "stateMutability": "nonpayable",
      "type": "function"
    },
    {
      "inputs": [],
      "payable": false,
      "stateMutability": "nonpayable",
      "type": "constructor"
    },
    {
      "payable": false,
      "stateMutability": "nonpayable",
      "type": "fallback"
    },
    {
      "anonymous": false,
      "inputs": [
        {
          "indexed": true,
          "name": "author",
          "type": "address"
        },
        {
          "indexed": true,
          "name": "entryId",
          "type": "bytes32"
        },
        {
          "indexed": true,
          "name": "parent",
          "type": "bytes32"
        },
        {
          "indexed": false,
          "name": "id",
          "type": "bytes32"
        }
      ],
      "name": "Publish",
      "type": "event"
    },
    {
      "anonymous": false,
      "inputs": [
        {
          "indexed": true,
          "name": "author",
          "type": "address"
        },
        {
          "indexed": true,
          "name": "entryId",
          "type": "bytes32"
        },
        {
          "indexed": true,
          "name": "id",
          "type": "bytes32"
        }
      ],
      "name": "Update",
      "type": "event"
    },
    {
      "anonymous": false,
      "inputs": [
        {
          "indexed": true,
          "name": "previousOwner",
          "type": "address"
        },
        {
          "indexed": true,
          "name": "newOwner",
          "type": "address"
        }
      ],
      "name": "OwnershipTransferred",
      "type": "event"
    }
  ],
  "bytecode": "0x6060604052671bc16d674ec80000600455686c6b935b8bbd4000006005556301e13380600655341561003057600080fd5b336000806101000a81548173ffffffffffffffffffffffffffffffffffffffff021916908373ffffffffffffffffffffffffffffffffffffffff16021790555060003414151561007f57600080fd5b61215b8061008e6000396000f300606060405260043610610128576000357c0100000000000000000000000000000000000000000000000000000000900463ffffffff168063054bcf9a1461013557806309227663146101c55780631026418a14610200578063152c85aa1461024c57806317ffc3201461027557806339004b27146102ae5780633c56ec36146102e75780636920ef70146103525780638613456b146104105780638683612b146104a05780638da5cb5b146104ec5780638f0ecae2146105415780639f727c271461057a578063a3180d331461058f578063bbd34ac0146105dc578063c0ee0b8a14610650578063c42a7b52146106a6578063e100bfe6146106df578063ea0217cf14610708578063ea75446914610743578063f2fde38b1461076c578063fe4bc0f0146107a5575b341561013357600080fd5b005b341561014057600080fd5b6101ab60048080356000191690602001909190803573ffffffffffffffffffffffffffffffffffffffff16906020019091908035600019169060200190919080356000191690602001909190803560ff1690602001909190803560ff169060200190919050506107e0565b604051808215151515815260200191505060405180910390f35b34156101d057600080fd5b6101ea600480803560001916906020019091905050610aca565b6040518082815260200191505060405180910390f35b341561020b57600080fd5b61023260048080356000191690602001909190803560001916906020019091905050610af2565b604051808215151515815260200191505060405180910390f35b341561025757600080fd5b61025f610b44565b6040518082815260200191505060405180910390f35b341561028057600080fd5b6102ac600480803573ffffffffffffffffffffffffffffffffffffffff16906020019091905050610b4a565b005b34156102b957600080fd5b6102e5600480803573ffffffffffffffffffffffffffffffffffffffff16906020019091905050610cb7565b005b34156102f257600080fd5b61033860048080356000191690602001909190803573ffffffffffffffffffffffffffffffffffffffff1690602001909190803560001916906020019091905050610d56565b604051808215151515815260200191505060405180910390f35b341561035d57600080fd5b61038460048080356000191690602001909190803560001916906020019091905050610fff565b6040518088600019166000191681526020018773ffffffffffffffffffffffffffffffffffffffff1673ffffffffffffffffffffffffffffffffffffffff168152602001861515151581526020018581526020018460ff1660ff1681526020018360ff1660ff168152602001826000191660001916815260200197505050505050505060405180910390f35b341561041b57600080fd5b61048660048080356000191690602001909190803573ffffffffffffffffffffffffffffffffffffffff16906020019091908035600019169060200190919080356000191690602001909190803560ff1690602001909190803560ff169060200190919050506111dd565b604051808215151515815260200191505060405180910390f35b34156104ab57600080fd5b6104d2600480803560001916906020019091908035600019169060200190919050506118a7565b604051808215151515815260200191505060405180910390f35b34156104f757600080fd5b6104ff61198c565b604051808273ffffffffffffffffffffffffffffffffffffffff1673ffffffffffffffffffffffffffffffffffffffff16815260200191505060405180910390f35b341561054c57600080fd5b610578600480803573ffffffffffffffffffffffffffffffffffffffff169060200190919050506119b1565b005b341561058557600080fd5b61058d611a50565b005b341561059a57600080fd5b6105c6600480803573ffffffffffffffffffffffffffffffffffffffff16906020019091905050611b22565b6040518082815260200191505060405180910390f35b34156105e757600080fd5b61060e60048080356000191690602001909190803560001916906020019091905050611b6b565b604051808273ffffffffffffffffffffffffffffffffffffffff1673ffffffffffffffffffffffffffffffffffffffff16815260200191505060405180910390f35b341561065b57600080fd5b6106a4600480803573ffffffffffffffffffffffffffffffffffffffff169060200190919080359060200190919080359060200190820180359060200191909192905050611bd0565b005b34156106b157600080fd5b6106dd600480803573ffffffffffffffffffffffffffffffffffffffff16906020019091905050611bd5565b005b34156106ea57600080fd5b6106f2611c74565b6040518082815260200191505060405180910390f35b341561071357600080fd5b6107296004808035906020019091905050611c7a565b604051808215151515815260200191505060405180910390f35b341561074e57600080fd5b610756611ce7565b6040518082815260200191505060405180910390f35b341561077757600080fd5b6107a3600480803573ffffffffffffffffffffffffffffffffffffffff16906020019091905050611ced565b005b34156107b057600080fd5b6107c66004808035906020019091905050611e42565b604051808215151515815260200191505060405180910390f35b6000600160009054906101000a900473ffffffffffffffffffffffffffffffffffffffff1673ffffffffffffffffffffffffffffffffffffffff16634512051187896000604051602001526040518363ffffffff167c0100000000000000000000000000000000000000000000000000000000028152600401808373ffffffffffffffffffffffffffffffffffffffff1673ffffffffffffffffffffffffffffffffffffffff168152602001826000191660001916815260200192505050602060405180830381600087803b15156108b757600080fd5b6102c65a03f115156108c857600080fd5b5050506040518051905015156108dd57600080fd5b3373ffffffffffffffffffffffffffffffffffffffff166008600089600019166000191681526020019081526020016000206001016000876000191660001916815260200190815260200160002060030160009054906101000a900473ffffffffffffffffffffffffffffffffffffffff1673ffffffffffffffffffffffffffffffffffffffff1614151561097157600080fd5b73__IpfsHash______________________________63294ba8e7600860008a60001916600019168152602001908152602001600020600101600088600019166000191681526020019081526020016000206001018686866000604051602001526040518563ffffffff167c01000000000000000000000000000000000000000000000000000000000281526004018085815260200184600019166000191681526020018360ff1660ff1681526020018260ff1660ff16815260200194505050505060206040518083038186803b1515610a4957600080fd5b6102c65a03f41515610a5a57600080fd5b505050604051805190501515610a6f57600080fd5b846000191687600019163373ffffffffffffffffffffffffffffffffffffffff167fe7e154f822858c98d161949b394a7608624b34731b51bb82c3f3535d443d722860405160405180910390a4600190509695505050505050565b6000600860008360001916600019168152602001908152602001600020600001549050919050565b60006008600084600019166000191681526020019081526020016000206001016000836000191660001916815260200190815260200160002060030160149054906101000a900460ff16905092915050565b60055481565b60008060009054906101000a900473ffffffffffffffffffffffffffffffffffffffff1673ffffffffffffffffffffffffffffffffffffffff163373ffffffffffffffffffffffffffffffffffffffff16141515610ba757600080fd5b8173ffffffffffffffffffffffffffffffffffffffff166370a08231306000604051602001526040518263ffffffff167c0100000000000000000000000000000000000000000000000000000000028152600401808273ffffffffffffffffffffffffffffffffffffffff1673ffffffffffffffffffffffffffffffffffffffff168152602001915050602060405180830381600087803b1515610c4a57600080fd5b6102c65a03f11515610c5b57600080fd5b505050604051805190509050610cb36000809054906101000a900473ffffffffffffffffffffffffffffffffffffffff16828473ffffffffffffffffffffffffffffffffffffffff16611eaf9092919063ffffffff16565b5050565b6000809054906101000a900473ffffffffffffffffffffffffffffffffffffffff1673ffffffffffffffffffffffffffffffffffffffff163373ffffffffffffffffffffffffffffffffffffffff16141515610d1257600080fd5b80600360006101000a81548173ffffffffffffffffffffffffffffffffffffffff021916908373ffffffffffffffffffffffffffffffffffffffff16021790555050565b6000600160009054906101000a900473ffffffffffffffffffffffffffffffffffffffff1673ffffffffffffffffffffffffffffffffffffffff16634512051184866000604051602001526040518363ffffffff167c0100000000000000000000000000000000000000000000000000000000028152600401808373ffffffffffffffffffffffffffffffffffffffff1673ffffffffffffffffffffffffffffffffffffffff168152602001826000191660001916815260200192505050602060405180830381600087803b1515610e2d57600080fd5b6102c65a03f11515610e3e57600080fd5b505050604051805190501515610e5357600080fd5b3373ffffffffffffffffffffffffffffffffffffffff166008600086600019166000191681526020019081526020016000206001016000846000191660001916815260200190815260200160002060030160009054906101000a900473ffffffffffffffffffffffffffffffffffffffff1673ffffffffffffffffffffffffffffffffffffffff16141515610ee757600080fd5b600860008560001916600019168152602001908152602001600020600101600083600019166000191681526020019081526020016000206001016000808201600090556001820160006101000a81549060ff02191690556001820160016101000a81549060ff0219169055505060016008600086600019166000191681526020019081526020016000206001016000846000191660001916815260200190815260200160002060030160146101000a81548160ff021916908315150217905550816000191684600019163373ffffffffffffffffffffffffffffffffffffffff167fe7e154f822858c98d161949b394a7608624b34731b51bb82c3f3535d443d722860405160405180910390a4600190509392505050565b6000806000806000806000600860008a6000191660001916815260200190815260200160002060010160008960001916600019168152602001908152602001600020600001549650600860008a600019166000191681526020019081526020016000206001016000896000191660001916815260200190815260200160002060030160009054906101000a900473ffffffffffffffffffffffffffffffffffffffff169550600860008a600019166000191681526020019081526020016000206001016000896000191660001916815260200190815260200160002060030160149054906101000a900460ff169450600860008a60001916600019168152602001908152602001600020600101600089600019166000191681526020019081526020016000206004015493506111c5600860008b6000191660001916815260200190815260200160002060010160008a60001916600019168152602001908152602001600020600101606060405190810160405290816000820154600019166000191681526020016001820160009054906101000a900460ff1660ff1660ff1681526020016001820160019054906101000a900460ff1660ff1660ff1681525050611f82565b80935081945082955050505092959891949750929550565b6000806000600160009054906101000a900473ffffffffffffffffffffffffffffffffffffffff1673ffffffffffffffffffffffffffffffffffffffff166345120511898b6000604051602001526040518363ffffffff167c0100000000000000000000000000000000000000000000000000000000028152600401808373ffffffffffffffffffffffffffffffffffffffff1673ffffffffffffffffffffffffffffffffffffffff168152602001826000191660001916815260200192505050602060405180830381600087803b15156112b757600080fd5b6102c65a03f115156112c857600080fd5b5050506040518051905015156112dd57600080fd5b600260009054906101000a900473ffffffffffffffffffffffffffffffffffffffff1673ffffffffffffffffffffffffffffffffffffffff1663da5ecde03361132533611fa3565b6e636f6d6d656e743a7075626c6973686000604051602001526040518463ffffffff167c0100000000000000000000000000000000000000000000000000000000028152600401808473ffffffffffffffffffffffffffffffffffffffff1673ffffffffffffffffffffffffffffffffffffffff168152602001838152602001826001026000191681526020019350505050602060405180830381600087803b15156113d057600080fd5b6102c65a03f115156113e157600080fd5b5050506040518051905015156113f657600080fd5b6000600102600019168760001916141515611452576000600860008b60001916600019168152602001908152602001600020600101600089600019166000191681526020019081526020016000206004015411151561145157fe5b5b88600860008b6000191660001916815260200190815260200160002060000154336040518084600019166000191681526020018381526020018273ffffffffffffffffffffffffffffffffffffffff1673ffffffffffffffffffffffffffffffffffffffff166c010000000000000000000000000281526014019350505050604051809103902091506114f0426006546120dd90919063ffffffff16565b905073__IpfsHash______________________________63294ba8e7600860008c60001916600019168152602001908152602001600020600101600085600019166000191681526020019081526020016000206001018888886000604051602001526040518563ffffffff167c01000000000000000000000000000000000000000000000000000000000281526004018085815260200184600019166000191681526020018360ff1660ff1681526020018260ff1660ff16815260200194505050505060206040518083038186803b15156115ca57600080fd5b6102c65a03f415156115db57600080fd5b5050506040518051905015156115f057600080fd5b33600860008b600019166000191681526020019081526020016000206001016000846000191660001916815260200190815260200160002060030160006101000a81548173ffffffffffffffffffffffffffffffffffffffff021916908373ffffffffffffffffffffffffffffffffffffffff16021790555086600860008b6000191660001916815260200190815260200160002060010160008460001916600019168152602001908152602001600020600001816000191690555042600860008b600019166000191681526020019081526020016000206001016000846000191660001916815260200190815260200160002060040181905550600360009054906101000a900473ffffffffffffffffffffffffffffffffffffffff1673ffffffffffffffffffffffffffffffffffffffff1663d97995a083836000604051602001526040518363ffffffff167c010000000000000000000000000000000000000000000000000000000002815260040180836000191660001916815260200182815260200192505050602060405180830381600087803b151561179457600080fd5b6102c65a03f115156117a557600080fd5b5050506040518051905015156117ba57600080fd5b600860008a6000191660001916815260200190815260200160002060000160008154809291906001019190505550600760003373ffffffffffffffffffffffffffffffffffffffff1673ffffffffffffffffffffffffffffffffffffffff16815260200190815260200160002060008154809291906001019190505550866000191689600019163373ffffffffffffffffffffffffffffffffffffffff167f7f6b1cd311d41d73f8ed4b87ba42952b5dcdc185b1e84b2f03dfc48d4e9f42b08560405180826000191660001916815260200191505060405180910390a46001925050509695505050505050565b60008073ffffffffffffffffffffffffffffffffffffffff166008600085600019166000191681526020019081526020016000206001016000846000191660001916815260200190815260200160002060030160009054906101000a900473ffffffffffffffffffffffffffffffffffffffff1673ffffffffffffffffffffffffffffffffffffffff161415801561198457506008600084600019166000191681526020019081526020016000206001016000836000191660001916815260200190815260200160002060030160149054906101000a900460ff16155b905092915050565b6000809054906101000a900473ffffffffffffffffffffffffffffffffffffffff1681565b6000809054906101000a900473ffffffffffffffffffffffffffffffffffffffff1673ffffffffffffffffffffffffffffffffffffffff163373ffffffffffffffffffffffffffffffffffffffff16141515611a0c57600080fd5b80600260006101000a81548173ffffffffffffffffffffffffffffffffffffffff021916908373ffffffffffffffffffffffffffffffffffffffff16021790555050565b6000809054906101000a900473ffffffffffffffffffffffffffffffffffffffff1673ffffffffffffffffffffffffffffffffffffffff163373ffffffffffffffffffffffffffffffffffffffff16141515611aab57600080fd5b6000809054906101000a900473ffffffffffffffffffffffffffffffffffffffff1673ffffffffffffffffffffffffffffffffffffffff166108fc3073ffffffffffffffffffffffffffffffffffffffff16319081150290604051600060405180830381858888f193505050501515611b2057fe5b565b6000600760008373ffffffffffffffffffffffffffffffffffffffff1673ffffffffffffffffffffffffffffffffffffffff168152602001908152602001600020549050919050565b60006008600084600019166000191681526020019081526020016000206001016000836000191660001916815260200190815260200160002060030160009054906101000a900473ffffffffffffffffffffffffffffffffffffffff16905092915050565b600080fd5b6000809054906101000a900473ffffffffffffffffffffffffffffffffffffffff1673ffffffffffffffffffffffffffffffffffffffff163373ffffffffffffffffffffffffffffffffffffffff16141515611c3057600080fd5b80600160006101000a81548173ffffffffffffffffffffffffffffffffffffffff021916908373ffffffffffffffffffffffffffffffffffffffff16021790555050565b60065481565b60008060009054906101000a900473ffffffffffffffffffffffffffffffffffffffff1673ffffffffffffffffffffffffffffffffffffffff163373ffffffffffffffffffffffffffffffffffffffff16141515611cd757600080fd5b8160068190555060019050919050565b60045481565b6000809054906101000a900473ffffffffffffffffffffffffffffffffffffffff1673ffffffffffffffffffffffffffffffffffffffff163373ffffffffffffffffffffffffffffffffffffffff16141515611d4857600080fd5b600073ffffffffffffffffffffffffffffffffffffffff168173ffffffffffffffffffffffffffffffffffffffff1614151515611d8457600080fd5b8073ffffffffffffffffffffffffffffffffffffffff166000809054906101000a900473ffffffffffffffffffffffffffffffffffffffff1673ffffffffffffffffffffffffffffffffffffffff167f8be0079c531659141344cd1fd0a4f28419497f9722a3daafe3b4186f6b6457e060405160405180910390a3806000806101000a81548173ffffffffffffffffffffffffffffffffffffffff021916908373ffffffffffffffffffffffffffffffffffffffff16021790555050565b60008060009054906101000a900473ffffffffffffffffffffffffffffffffffffffff1673ffffffffffffffffffffffffffffffffffffffff163373ffffffffffffffffffffffffffffffffffffffff16141515611e9f57600080fd5b8160048190555060019050919050565b8273ffffffffffffffffffffffffffffffffffffffff1663a9059cbb83836000604051602001526040518363ffffffff167c0100000000000000000000000000000000000000000000000000000000028152600401808373ffffffffffffffffffffffffffffffffffffffff1673ffffffffffffffffffffffffffffffffffffffff16815260200182815260200192505050602060405180830381600087803b1515611f5a57600080fd5b6102c65a03f11515611f6b57600080fd5b505050604051805190501515611f7d57fe5b505050565b60008060008360200151846040015185600001519250925092509193909250565b6000806000600260009054906101000a900473ffffffffffffffffffffffffffffffffffffffff1673ffffffffffffffffffffffffffffffffffffffff1663fb166bb0856000604051604001526040518263ffffffff167c0100000000000000000000000000000000000000000000000000000000028152600401808273ffffffffffffffffffffffffffffffffffffffff1673ffffffffffffffffffffffffffffffffffffffff1681526020019150506040805180830381600087803b151561206c57600080fd5b6102c65a03f1151561207d57600080fd5b505050604051805190602001805190509050809250506120a8600554836120fb90919063ffffffff16565b9050600454811015156120be57600192506120d6565b6120d38160045461211690919063ffffffff16565b92505b5050919050565b60008082840190508381101515156120f157fe5b8091505092915050565b600080828481151561210957fe5b0490508091505092915050565b600082821115151561212457fe5b8183039050929150505600a165627a7a7230582067408013ffa304342cfa5a7cf6cd05804ebf17327953219ae7e97876fae024b10029",
  "source": "pragma solidity ^0.4.0;\n\n\nimport 'zeppelin-solidity/contracts/ownership/HasNoTokens.sol';\nimport 'zeppelin-solidity/contracts/ownership/HasNoEther.sol';\nimport 'zeppelin-solidity/contracts/math/SafeMath.sol';\nimport \"./IpfsHash.sol\";\nimport './token/Essence.sol';\nimport './Votes.sol';\nimport './Entries.sol';\n\n\ncontract Comments is HasNoEther, HasNoTokens {\n    using SafeMath for uint256;\n\n    Entries entries;\n\n    Essence essence;\n\n    Votes votes;\n\n    uint256 public required_essence = 2*10**18;\n\n    uint256 public discount_every = 2*10**21;\n\n    uint256 public voting_period = 1 years; // blocks\n\n    mapping (address => uint) totalAddressComments;\n\n    event Publish(address indexed author, bytes32 indexed entryId, bytes32 indexed parent, bytes32 id);\n\n    event Update(address indexed author, bytes32 indexed entryId, bytes32 indexed id);\n\n    struct Comment {\n    bytes32 parent;\n    IpfsHash.Multihash hash;\n    address author;\n    bool deleted;\n    uint date;\n    }\n\n    struct Record {\n    uint256 nextId;\n    mapping (bytes32 => Comment) comment;\n    }\n\n    mapping (bytes32 => Record) commentList;\n\n    function Comments()\n    HasNoEther()\n    HasNoTokens()\n    {\n    }\n\n    function setEssence(Essence _essence)\n    onlyOwner\n    {\n        essence = _essence;\n    }\n\n    function setVotes(Votes _votes)\n    onlyOwner\n    {\n        votes = _votes;\n    }\n\n    function setVotingPeriod(uint256 _period)\n    onlyOwner\n    returns (bool)\n    {\n        voting_period = _period;\n        return true;\n    }\n\n    function setRequiredEssence(uint256 _amount)\n    onlyOwner\n    returns (bool)\n    {\n        required_essence = _amount;\n        return true;\n    }\n\n    function setEntries(Entries _entries)\n    onlyOwner\n    {\n        entries = _entries;\n    }\n\n    function calcPublishCost(address _author)\n    internal\n    returns (uint _amount)\n    {\n        uint256 essenceAmount;\n        (, essenceAmount) = essence.getCollected(_author);\n        uint256 discount = essenceAmount.div(discount_every);\n        if (discount >= required_essence) {\n            return 1;\n        }\n        return required_essence.sub(discount);\n    }\n\n    function publish(bytes32 _entryId, address _entryAuthor, bytes32 _parent, bytes32 _hash, uint8 _fn, uint8 _digestSize)\n    returns (bool)\n    {\n        require(entries.exists(_entryAuthor, _entryId));\n        require(essence.spendMana(msg.sender, calcPublishCost(msg.sender), 0x636f6d6d656e743a7075626c697368));\n        if (_parent!=bytes32(0x0)) {\n            assert(commentList[_entryId].comment[_parent].date > 0);\n        }\n        bytes32 commentId = sha3(_entryId, commentList[_entryId].nextId, msg.sender);\n        uint256 endPeriod = voting_period.add(now);\n        require(IpfsHash.create(commentList[_entryId].comment[commentId].hash, _hash, _fn, _digestSize));\n        commentList[_entryId].comment[commentId].author = msg.sender;\n        commentList[_entryId].comment[commentId].parent = _parent;\n        commentList[_entryId].comment[commentId].date = now;\n        require(votes.registerResource(commentId, endPeriod));\n        commentList[_entryId].nextId++;\n        totalAddressComments[msg.sender]++;\n        Publish(msg.sender, _entryId, _parent, commentId);\n        return true;\n    }\n\n    function edit(bytes32 _entryId, address _entryAuthor, bytes32 _commentId, bytes32 _hash, uint8 _fn, uint8 _digestSize)\n    returns (bool)\n    {\n        require(entries.exists(_entryAuthor, _entryId));\n        require(commentList[_entryId].comment[_commentId].author == msg.sender);\n        require(IpfsHash.create(commentList[_entryId].comment[_commentId].hash, _hash, _fn, _digestSize));\n        Update(msg.sender, _entryId, _commentId);\n        return true;\n    }\n\n    function deleteComment(bytes32 _entryId, address _entryAuthor, bytes32 _commentId)\n    returns (bool)\n    {\n        require(entries.exists(_entryAuthor, _entryId));\n        require(commentList[_entryId].comment[_commentId].author == msg.sender);\n        delete commentList[_entryId].comment[_commentId].hash;\n        commentList[_entryId].comment[_commentId].deleted = true;\n        Update(msg.sender, _entryId, _commentId);\n        return true;\n    }\n\n    function getComment(bytes32 _entryId, bytes32 _commentId)\n    constant\n    returns (bytes32 parent, address author, bool deleted, uint256 publishDate, uint8 _fn, uint8 _digestSize, bytes32 _hash)\n    {\n        parent = commentList[_entryId].comment[_commentId].parent;\n        author = commentList[_entryId].comment[_commentId].author;\n        deleted = commentList[_entryId].comment[_commentId].deleted;\n        publishDate = commentList[_entryId].comment[_commentId].date;\n        (_fn, _digestSize, _hash) = IpfsHash.getHash(commentList[_entryId].comment[_commentId].hash);\n    }\n\n    function exists(bytes32 _entryId, bytes32 _commentId)\n    constant\n    returns (bool)\n    {\n        return (commentList[_entryId].comment[_commentId].author != address(0x0) && !commentList[_entryId].comment[_commentId].deleted);\n    }\n\n    function commentAuthor(bytes32 _entryId, bytes32 _commentId)\n    constant\n    returns (address _author)\n    {\n        _author = commentList[_entryId].comment[_commentId].author;\n    }\n\n    function isDeleted(bytes32 _entryId, bytes32 _commentId)\n    constant\n    returns (bool _deleted)\n    {\n        _deleted = commentList[_entryId].comment[_commentId].deleted;\n    }\n\n    function totalComments(bytes32 _entryId)\n    constant\n    returns (uint256 _total)\n    {\n        _total = commentList[_entryId].nextId;\n    }\n\n    function totalCommentsOf(address _publisher)\n    constant\n    returns (uint)\n    {\n        return totalAddressComments[_publisher];\n    }\n}\n",
  "sourcePath": "/home/kenshyx/projects/contracts.alpha/contracts/Comments.sol",
  "compiler": {
    "name": "solc",
    "version": "0.4.18+commit.9cf6e910.Emscripten.clang"
  },
  "schemaVersion": "1.0.1",
  "updatedAt": "2017-11-10T14:25:03.565Z"
}