{
  "contractName": "Entries",
  "abi": [
    {
      "constant": false,
      "inputs": [
        {
          "name": "_essence",
          "type": "address"
        }
      ],
      "name": "setEssenceAddress",
      "outputs": [
        {
          "name": "",
          "type": "bool"
        }
      ],
      "payable": false,
      "stateMutability": "nonpayable",
      "type": "function"
    },
    {
      "constant": true,
      "inputs": [],
      "name": "discount_every",
      "outputs": [
        {
          "name": "",
          "type": "uint256"
        }
      ],
      "payable": false,
      "stateMutability": "view",
      "type": "function"
    },
    {
      "constant": false,
      "inputs": [
        {
          "name": "token",
          "type": "address"
        }
      ],
      "name": "reclaimToken",
      "outputs": [],
      "payable": false,
      "stateMutability": "nonpayable",
      "type": "function"
    },
    {
      "constant": false,
      "inputs": [
        {
          "name": "_amount",
          "type": "uint256"
        }
      ],
      "name": "setDiscountEvery",
      "outputs": [
        {
          "name": "",
          "type": "bool"
        }
      ],
      "payable": false,
      "stateMutability": "nonpayable",
      "type": "function"
    },
    {
      "constant": true,
      "inputs": [
        {
          "name": "_publisher",
          "type": "address"
        },
        {
          "name": "_entryId",
          "type": "bytes32"
        }
      ],
      "name": "exists",
      "outputs": [
        {
          "name": "",
          "type": "bool"
        }
      ],
      "payable": false,
      "stateMutability": "view",
      "type": "function"
    },
    {
      "constant": false,
      "inputs": [
        {
          "name": "_entryId",
          "type": "bytes32"
        },
        {
          "name": "_hash",
          "type": "bytes32"
        },
        {
          "name": "_fn",
          "type": "uint8"
        },
        {
          "name": "_digestSize",
          "type": "uint8"
        }
      ],
      "name": "edit",
      "outputs": [],
      "payable": false,
      "stateMutability": "nonpayable",
      "type": "function"
    },
    {
      "constant": false,
      "inputs": [
        {
          "name": "_hash",
          "type": "bytes32"
        },
        {
          "name": "_fn",
          "type": "uint8"
        },
        {
          "name": "_digestSize",
          "type": "uint8"
        },
        {
          "name": "_tags",
          "type": "bytes32[]"
        }
      ],
      "name": "publishArticle",
      "outputs": [],
      "payable": false,
      "stateMutability": "nonpayable",
      "type": "function"
    },
    {
      "constant": false,
      "inputs": [
        {
          "name": "_votes",
          "type": "address"
        }
      ],
      "name": "setVotesAddress",
      "outputs": [
        {
          "name": "",
          "type": "bool"
        }
      ],
      "payable": false,
      "stateMutability": "nonpayable",
      "type": "function"
    },
    {
      "constant": true,
      "inputs": [],
      "name": "owner",
      "outputs": [
        {
          "name": "",
          "type": "address"
        }
      ],
      "payable": false,
      "stateMutability": "view",
      "type": "function"
    },
    {
      "constant": false,
      "inputs": [],
      "name": "reclaimEther",
      "outputs": [],
      "payable": false,
      "stateMutability": "nonpayable",
      "type": "function"
    },
    {
      "constant": false,
      "inputs": [
        {
          "name": "_hash",
          "type": "bytes32"
        },
        {
          "name": "_fn",
          "type": "uint8"
        },
        {
          "name": "_digestSize",
          "type": "uint8"
        },
        {
          "name": "_tags",
          "type": "bytes32[]"
        }
      ],
      "name": "publishOther",
      "outputs": [],
      "payable": false,
      "stateMutability": "nonpayable",
      "type": "function"
    },
    {
      "constant": false,
      "inputs": [
        {
          "name": "_tags",
          "type": "address"
        }
      ],
      "name": "setTagsAddress",
      "outputs": [
        {
          "name": "",
          "type": "bool"
        }
      ],
      "payable": false,
      "stateMutability": "nonpayable",
      "type": "function"
    },
    {
      "constant": false,
      "inputs": [
        {
          "name": "_entryId",
          "type": "bytes32"
        }
      ],
      "name": "claim",
      "outputs": [
        {
          "name": "",
          "type": "bool"
        }
      ],
      "payable": false,
      "stateMutability": "nonpayable",
      "type": "function"
    },
    {
      "constant": false,
      "inputs": [
        {
          "name": "from_",
          "type": "address"
        },
        {
          "name": "value_",
          "type": "uint256"
        },
        {
          "name": "data_",
          "type": "bytes"
        }
      ],
      "name": "tokenFallback",
      "outputs": [],
      "payable": false,
      "stateMutability": "nonpayable",
      "type": "function"
    },
    {
      "constant": true,
      "inputs": [
        {
          "name": "_publisher",
          "type": "address"
        }
      ],
      "name": "getEntryCount",
      "outputs": [
        {
          "name": "",
          "type": "uint256"
        }
      ],
      "payable": false,
      "stateMutability": "view",
      "type": "function"
    },
    {
      "constant": true,
      "inputs": [
        {
          "name": "_publisher",
          "type": "address"
        },
        {
          "name": "_entryId",
          "type": "bytes32"
        }
      ],
      "name": "getEntry",
      "outputs": [
        {
          "name": "_fn",
          "type": "uint8"
        },
        {
          "name": "_digestSize",
          "type": "uint8"
        },
        {
          "name": "_hash",
          "type": "bytes32"
        }
      ],
      "payable": false,
      "stateMutability": "view",
      "type": "function"
    },
    {
      "constant": false,
      "inputs": [
        {
          "name": "_hash",
          "type": "bytes32"
        },
        {
          "name": "_fn",
          "type": "uint8"
        },
        {
          "name": "_digestSize",
          "type": "uint8"
        },
        {
          "name": "_tags",
          "type": "bytes32[]"
        }
      ],
      "name": "publishLink",
      "outputs": [],
      "payable": false,
      "stateMutability": "nonpayable",
      "type": "function"
    },
    {
      "constant": false,
      "inputs": [
        {
          "name": "_hash",
          "type": "bytes32"
        },
        {
          "name": "_fn",
          "type": "uint8"
        },
        {
          "name": "_digestSize",
          "type": "uint8"
        },
        {
          "name": "_tags",
          "type": "bytes32[]"
        }
      ],
      "name": "publishMedia",
      "outputs": [],
      "payable": false,
      "stateMutability": "nonpayable",
      "type": "function"
    },
    {
      "constant": true,
      "inputs": [],
      "name": "voting_period",
      "outputs": [
        {
          "name": "",
          "type": "uint256"
        }
      ],
      "payable": false,
      "stateMutability": "view",
      "type": "function"
    },
    {
      "constant": false,
      "inputs": [
        {
          "name": "_period",
          "type": "uint256"
        }
      ],
      "name": "setVotingPeriod",
      "outputs": [
        {
          "name": "",
          "type": "bool"
        }
      ],
      "payable": false,
      "stateMutability": "nonpayable",
      "type": "function"
    },
    {
      "constant": true,
      "inputs": [],
      "name": "required_essence",
      "outputs": [
        {
          "name": "",
          "type": "uint256"
        }
      ],
      "payable": false,
      "stateMutability": "view",
      "type": "function"
    },
    {
      "constant": false,
      "inputs": [
        {
          "name": "newOwner",
          "type": "address"
        }
      ],
      "name": "transferOwnership",
      "outputs": [],
      "payable": false,
      "stateMutability": "nonpayable",
      "type": "function"
    },
    {
      "constant": false,
      "inputs": [
        {
          "name": "_amount",
          "type": "uint256"
        }
      ],
      "name": "setRequiredEssence",
      "outputs": [
        {
          "name": "",
          "type": "bool"
        }
      ],
      "payable": false,
      "stateMutability": "nonpayable",
      "type": "function"
    },
    {
      "inputs": [
        {
          "name": "_essence",
          "type": "address"
        }
      ],
      "payable": false,
      "stateMutability": "nonpayable",
      "type": "constructor"
    },
    {
      "payable": false,
      "stateMutability": "nonpayable",
      "type": "fallback"
    },
    {
      "anonymous": false,
      "inputs": [
        {
          "indexed": true,
          "name": "author",
          "type": "address"
        },
        {
          "indexed": true,
          "name": "entryId",
          "type": "bytes32"
        }
      ],
      "name": "Publish",
      "type": "event"
    },
    {
      "anonymous": false,
      "inputs": [
        {
          "indexed": true,
          "name": "tagName",
          "type": "bytes32"
        },
        {
          "indexed": true,
          "name": "entryId",
          "type": "bytes32"
        },
        {
          "indexed": true,
          "name": "entryType",
          "type": "uint8"
        }
      ],
      "name": "TagIndex",
      "type": "event"
    },
    {
      "anonymous": false,
      "inputs": [
        {
          "indexed": true,
          "name": "author",
          "type": "address"
        },
        {
          "indexed": true,
          "name": "entryId",
          "type": "bytes32"
        }
      ],
      "name": "Update",
      "type": "event"
    },
    {
      "anonymous": false,
      "inputs": [
        {
          "indexed": true,
          "name": "previousOwner",
          "type": "address"
        },
        {
          "indexed": true,
          "name": "newOwner",
          "type": "address"
        }
      ],
      "name": "OwnershipTransferred",
      "type": "event"
    }
  ],
  "bytecode": "0x6060604052678ac7230489e8000060045569021e19e0c9bab240000060055562127500600655341561003057600080fd5b60405160208061206e83398101604052808051906020019091905050336000806101000a81548173ffffffffffffffffffffffffffffffffffffffff021916908373ffffffffffffffffffffffffffffffffffffffff16021790555060003414151561009b57600080fd5b80600260006101000a81548173ffffffffffffffffffffffffffffffffffffffff021916908373ffffffffffffffffffffffffffffffffffffffff16021790555050611f82806100ec6000396000f300606060405260043610610133576000357c0100000000000000000000000000000000000000000000000000000000900463ffffffff1680630455d89d14610140578063152c85aa1461019157806317ffc320146101ba5780631eec8289146101f3578063451205111461022e578063758a592d1461028c5780638ab62406146102d85780638d4e5963146103575780638da5cb5b146103a85780639f727c27146103fd578063a92ac25214610412578063ab6e5eda14610491578063bd66528a146104e2578063c0ee0b8a14610521578063c5c9bd2514610577578063cad2ab23146105c4578063d1b33ca414610640578063d2aa00f4146106bf578063e100bfe61461073e578063ea0217cf14610767578063ea754469146107a2578063f2fde38b146107cb578063fe4bc0f014610804575b341561013e57600080fd5b005b341561014b57600080fd5b610177600480803573ffffffffffffffffffffffffffffffffffffffff1690602001909190505061083f565b604051808215151515815260200191505060405180910390f35b341561019c57600080fd5b6101a46108e6565b6040518082815260200191505060405180910390f35b34156101c557600080fd5b6101f1600480803573ffffffffffffffffffffffffffffffffffffffff169060200190919050506108ec565b005b34156101fe57600080fd5b6102146004808035906020019091905050610a59565b604051808215151515815260200191505060405180910390f35b341561023957600080fd5b610272600480803573ffffffffffffffffffffffffffffffffffffffff1690602001909190803560001916906020019091905050610ac2565b604051808215151515815260200191505060405180910390f35b341561029757600080fd5b6102d66004808035600019169060200190919080356000191690602001909190803560ff1690602001909190803560ff16906020019091905050610b3e565b005b34156102e357600080fd5b61035560048080356000191690602001909190803560ff1690602001909190803560ff1690602001909190803590602001908201803590602001908080602002602001604051908101604052809392919081815260200183836020028082843782019150505050505091905050610d29565b005b341561036257600080fd5b61038e600480803573ffffffffffffffffffffffffffffffffffffffff16906020019091905050610d48565b604051808215151515815260200191505060405180910390f35b34156103b357600080fd5b6103bb610def565b604051808273ffffffffffffffffffffffffffffffffffffffff1673ffffffffffffffffffffffffffffffffffffffff16815260200191505060405180910390f35b341561040857600080fd5b610410610e14565b005b341561041d57600080fd5b61048f60048080356000191690602001909190803560ff1690602001909190803560ff1690602001909190803590602001908201803590602001908080602002602001604051908101604052809392919081815260200183836020028082843782019150505050505091905050610ee6565b005b341561049c57600080fd5b6104c8600480803573ffffffffffffffffffffffffffffffffffffffff16906020019091905050610f05565b604051808215151515815260200191505060405180910390f35b34156104ed57600080fd5b610507600480803560001916906020019091905050610fac565b604051808215151515815260200191505060405180910390f35b341561052c57600080fd5b610575600480803573ffffffffffffffffffffffffffffffffffffffff16906020019091908035906020019091908035906020019082018035906020019190919290505061112f565b005b341561058257600080fd5b6105ae600480803573ffffffffffffffffffffffffffffffffffffffff16906020019091905050611134565b6040518082815260200191505060405180910390f35b34156105cf57600080fd5b610608600480803573ffffffffffffffffffffffffffffffffffffffff1690602001909190803560001916906020019091905050611180565b604051808460ff1660ff1681526020018360ff1660ff1681526020018260001916600019168152602001935050505060405180910390f35b341561064b57600080fd5b6106bd60048080356000191690602001909190803560ff1690602001909190803560ff1690602001909190803590602001908201803590602001908080602002602001604051908101604052809392919081815260200183836020028082843782019150505050505091905050611253565b005b34156106ca57600080fd5b61073c60048080356000191690602001909190803560ff1690602001909190803560ff1690602001909190803590602001908201803590602001908080602002602001604051908101604052809392919081815260200183836020028082843782019150505050505091905050611272565b005b341561074957600080fd5b610751611291565b6040518082815260200191505060405180910390f35b341561077257600080fd5b6107886004808035906020019091905050611297565b604051808215151515815260200191505060405180910390f35b34156107ad57600080fd5b6107b5611304565b6040518082815260200191505060405180910390f35b34156107d657600080fd5b610802600480803573ffffffffffffffffffffffffffffffffffffffff1690602001909190505061130a565b005b341561080f57600080fd5b610825600480803590602001909190505061145f565b604051808215151515815260200191505060405180910390f35b60008060009054906101000a900473ffffffffffffffffffffffffffffffffffffffff1673ffffffffffffffffffffffffffffffffffffffff163373ffffffffffffffffffffffffffffffffffffffff1614151561089c57600080fd5b81600260006101000a81548173ffffffffffffffffffffffffffffffffffffffff021916908373ffffffffffffffffffffffffffffffffffffffff16021790555060019050919050565b60055481565b60008060009054906101000a900473ffffffffffffffffffffffffffffffffffffffff1673ffffffffffffffffffffffffffffffffffffffff163373ffffffffffffffffffffffffffffffffffffffff1614151561094957600080fd5b8173ffffffffffffffffffffffffffffffffffffffff166370a08231306000604051602001526040518263ffffffff167c0100000000000000000000000000000000000000000000000000000000028152600401808273ffffffffffffffffffffffffffffffffffffffff1673ffffffffffffffffffffffffffffffffffffffff168152602001915050602060405180830381600087803b15156109ec57600080fd5b6102c65a03f115156109fd57600080fd5b505050604051805190509050610a556000809054906101000a900473ffffffffffffffffffffffffffffffffffffffff16828473ffffffffffffffffffffffffffffffffffffffff166114cc9092919063ffffffff16565b5050565b60008060009054906101000a900473ffffffffffffffffffffffffffffffffffffffff1673ffffffffffffffffffffffffffffffffffffffff163373ffffffffffffffffffffffffffffffffffffffff16141515610ab657600080fd5b81600581905550919050565b600080600760008573ffffffffffffffffffffffffffffffffffffffff1673ffffffffffffffffffffffffffffffffffffffff1681526020019081526020016000206001016000846000191660001916815260200190815260200160002060010160009054906101000a900460ff1660ff161415905092915050565b6000600760003373ffffffffffffffffffffffffffffffffffffffff1673ffffffffffffffffffffffffffffffffffffffff1681526020019081526020016000206001016000866000191660001916815260200190815260200160002060010160009054906101000a900460ff1660ff1614151515610bbc57600080fd5b73__IpfsHash______________________________63294ba8e7600760003373ffffffffffffffffffffffffffffffffffffffff1673ffffffffffffffffffffffffffffffffffffffff168152602001908152602001600020600101600087600019166000191681526020019081526020016000208585856000604051602001526040518563ffffffff167c01000000000000000000000000000000000000000000000000000000000281526004018085815260200184600019166000191681526020018360ff1660ff1681526020018260ff1660ff16815260200194505050505060206040518083038186803b1515610cb557600080fd5b6102c65a03f41515610cc657600080fd5b505050604051805190501515610cdb57600080fd5b83600019163373ffffffffffffffffffffffffffffffffffffffff167fc270eb3f985f34bb5584f38c55f673923cda3c6529ffad6f711e691078ead90960405160405180910390a350505050565b610d3784848484600061159f565b1515610d4257600080fd5b50505050565b60008060009054906101000a900473ffffffffffffffffffffffffffffffffffffffff1673ffffffffffffffffffffffffffffffffffffffff163373ffffffffffffffffffffffffffffffffffffffff16141515610da557600080fd5b81600360006101000a81548173ffffffffffffffffffffffffffffffffffffffff021916908373ffffffffffffffffffffffffffffffffffffffff16021790555060019050919050565b6000809054906101000a900473ffffffffffffffffffffffffffffffffffffffff1681565b6000809054906101000a900473ffffffffffffffffffffffffffffffffffffffff1673ffffffffffffffffffffffffffffffffffffffff163373ffffffffffffffffffffffffffffffffffffffff16141515610e6f57600080fd5b6000809054906101000a900473ffffffffffffffffffffffffffffffffffffffff1673ffffffffffffffffffffffffffffffffffffffff166108fc3073ffffffffffffffffffffffffffffffffffffffff16319081150290604051600060405180830381858888f193505050501515610ee457fe5b565b610ef484848484600361159f565b1515610eff57600080fd5b50505050565b60008060009054906101000a900473ffffffffffffffffffffffffffffffffffffffff1673ffffffffffffffffffffffffffffffffffffffff163373ffffffffffffffffffffffffffffffffffffffff16141515610f6257600080fd5b81600160006101000a81548173ffffffffffffffffffffffffffffffffffffffff021916908373ffffffffffffffffffffffffffffffffffffffff16021790555060019050919050565b600080600760003373ffffffffffffffffffffffffffffffffffffffff1673ffffffffffffffffffffffffffffffffffffffff1681526020019081526020016000206001016000846000191660001916815260200190815260200160002060010160009054906101000a900460ff1660ff161415151561102b57600080fd5b600360009054906101000a900473ffffffffffffffffffffffffffffffffffffffff1673ffffffffffffffffffffffffffffffffffffffff1663bde7962583336000604051602001526040518363ffffffff167c01000000000000000000000000000000000000000000000000000000000281526004018083600019166000191681526020018273ffffffffffffffffffffffffffffffffffffffff1673ffffffffffffffffffffffffffffffffffffffff16815260200192505050602060405180830381600087803b151561110057600080fd5b6102c65a03f1151561111157600080fd5b50505060405180519050151561112657600080fd5b60019050919050565b600080fd5b6000600760008373ffffffffffffffffffffffffffffffffffffffff1673ffffffffffffffffffffffffffffffffffffffff168152602001908152602001600020600001549050919050565b6000806000611240600760008773ffffffffffffffffffffffffffffffffffffffff1673ffffffffffffffffffffffffffffffffffffffff16815260200190815260200160002060010160008660001916600019168152602001908152602001600020606060405190810160405290816000820154600019166000191681526020016001820160009054906101000a900460ff1660ff1660ff1681526020016001820160019054906101000a900460ff1660ff1660ff1681525050611da9565b8093508194508295505050509250925092565b61126184848484600161159f565b151561126c57600080fd5b50505050565b61128084848484600261159f565b151561128b57600080fd5b50505050565b60065481565b60008060009054906101000a900473ffffffffffffffffffffffffffffffffffffffff1673ffffffffffffffffffffffffffffffffffffffff163373ffffffffffffffffffffffffffffffffffffffff161415156112f457600080fd5b8160068190555060019050919050565b60045481565b6000809054906101000a900473ffffffffffffffffffffffffffffffffffffffff1673ffffffffffffffffffffffffffffffffffffffff163373ffffffffffffffffffffffffffffffffffffffff1614151561136557600080fd5b600073ffffffffffffffffffffffffffffffffffffffff168173ffffffffffffffffffffffffffffffffffffffff16141515156113a157600080fd5b8073ffffffffffffffffffffffffffffffffffffffff166000809054906101000a900473ffffffffffffffffffffffffffffffffffffffff1673ffffffffffffffffffffffffffffffffffffffff167f8be0079c531659141344cd1fd0a4f28419497f9722a3daafe3b4186f6b6457e060405160405180910390a3806000806101000a81548173ffffffffffffffffffffffffffffffffffffffff021916908373ffffffffffffffffffffffffffffffffffffffff16021790555050565b60008060009054906101000a900473ffffffffffffffffffffffffffffffffffffffff1673ffffffffffffffffffffffffffffffffffffffff163373ffffffffffffffffffffffffffffffffffffffff161415156114bc57600080fd5b8160048190555060019050919050565b8273ffffffffffffffffffffffffffffffffffffffff1663a9059cbb83836000604051602001526040518363ffffffff167c0100000000000000000000000000000000000000000000000000000000028152600401808373ffffffffffffffffffffffffffffffffffffffff1673ffffffffffffffffffffffffffffffffffffffff16815260200182815260200192505050602060405180830381600087803b151561157757600080fd5b6102c65a03f1151561158857600080fd5b50505060405180519050151561159a57fe5b505050565b600080600080600b86511080156115b7575060008651115b15156115c257600080fd5b600260009054906101000a900473ffffffffffffffffffffffffffffffffffffffff1673ffffffffffffffffffffffffffffffffffffffff1663da5ecde03361160a33611dca565b6c656e7472793a7075626c6973686000604051602001526040518463ffffffff167c0100000000000000000000000000000000000000000000000000000000028152600401808473ffffffffffffffffffffffffffffffffffffffff1673ffffffffffffffffffffffffffffffffffffffff168152602001838152602001826001026000191681526020019350505050602060405180830381600087803b15156116b357600080fd5b6102c65a03f115156116c457600080fd5b5050506040518051905015156116d957600080fd5b33600760003373ffffffffffffffffffffffffffffffffffffffff1673ffffffffffffffffffffffffffffffffffffffff1681526020019081526020016000206000015442604051808473ffffffffffffffffffffffffffffffffffffffff1673ffffffffffffffffffffffffffffffffffffffff166c01000000000000000000000000028152601401838152602001828152602001935050505060405180910390209250600091505b85518260ff161015611ab057600160009054906101000a900473ffffffffffffffffffffffffffffffffffffffff1673ffffffffffffffffffffffffffffffffffffffff166338a699a4878460ff168151811015156117de57fe5b906020019060200201516000604051602001526040518263ffffffff167c0100000000000000000000000000000000000000000000000000000000028152600401808260001916600019168152602001915050602060405180830381600087803b151561184a57600080fd5b6102c65a03f1151561185b57600080fd5b50505060405180519050151561198157600160009054906101000a900473ffffffffffffffffffffffffffffffffffffffff1673ffffffffffffffffffffffffffffffffffffffff1663ab735f04878460ff168151811015156118ba57fe5b90602001906020020151336000604051602001526040518363ffffffff167c01000000000000000000000000000000000000000000000000000000000281526004018083600019166000191681526020018273ffffffffffffffffffffffffffffffffffffffff1673ffffffffffffffffffffffffffffffffffffffff16815260200192505050602060405180830381600087803b151561195a57600080fd5b6102c65a03f1151561196b57600080fd5b50505060405180519050151561198057600080fd5b5b600160009054906101000a900473ffffffffffffffffffffffffffffffffffffffff1673ffffffffffffffffffffffffffffffffffffffff166398751a5c878460ff168151811015156119d057fe5b906020019060200201516040518263ffffffff167c0100000000000000000000000000000000000000000000000000000000028152600401808260001916600019168152602001915050600060405180830381600087803b1515611a3357600080fd5b6102c65a03f11515611a4457600080fd5b505050846003811115611a5357fe5b8360001916878460ff16815181101515611a6957fe5b90602001906020020151600019167f7c61ee1955d4d884d26ad3d7b2e7bbccebf672517e391878c03a44a3c3b6526a60405160405180910390a48180600101925050611783565b611ac542600654611f0490919063ffffffff16565b905073__IpfsHash______________________________63294ba8e7600760003373ffffffffffffffffffffffffffffffffffffffff1673ffffffffffffffffffffffffffffffffffffffff168152602001908152602001600020600101600086600019166000191681526020019081526020016000208b8b8b6000604051602001526040518563ffffffff167c01000000000000000000000000000000000000000000000000000000000281526004018085815260200184600019166000191681526020018360ff1660ff1681526020018260ff1660ff16815260200194505050505060206040518083038186803b1515611bc057600080fd5b6102c65a03f41515611bd157600080fd5b505050604051805190501515611be657600080fd5b600360009054906101000a900473ffffffffffffffffffffffffffffffffffffffff1673ffffffffffffffffffffffffffffffffffffffff1663d97995a084836000604051602001526040518363ffffffff167c010000000000000000000000000000000000000000000000000000000002815260040180836000191660001916815260200182815260200192505050602060405180830381600087803b1515611c8f57600080fd5b6102c65a03f11515611ca057600080fd5b505050604051805190501515611cb557600080fd5b611d0b6001600760003373ffffffffffffffffffffffffffffffffffffffff1673ffffffffffffffffffffffffffffffffffffffff16815260200190815260200160002060000154611f0490919063ffffffff16565b600760003373ffffffffffffffffffffffffffffffffffffffff1673ffffffffffffffffffffffffffffffffffffffff1681526020019081526020016000206000018190555082600019163373ffffffffffffffffffffffffffffffffffffffff167fac6d015ca4b9b742bdf7acc16fcae54c45052fa461961fa47e75ae6cb182e77560405160405180910390a36001935050505095945050505050565b60008060008360200151846040015185600001519250925092509193909250565b6000806000600260009054906101000a900473ffffffffffffffffffffffffffffffffffffffff1673ffffffffffffffffffffffffffffffffffffffff1663fb166bb0856000604051604001526040518263ffffffff167c0100000000000000000000000000000000000000000000000000000000028152600401808273ffffffffffffffffffffffffffffffffffffffff1673ffffffffffffffffffffffffffffffffffffffff1681526020019150506040805180830381600087803b1515611e9357600080fd5b6102c65a03f11515611ea457600080fd5b50505060405180519060200180519050905080925050611ecf60055483611f2290919063ffffffff16565b905060045481101515611ee55760019250611efd565b611efa81600454611f3d90919063ffffffff16565b92505b5050919050565b6000808284019050838110151515611f1857fe5b8091505092915050565b6000808284811515611f3057fe5b0490508091505092915050565b6000828211151515611f4b57fe5b8183039050929150505600a165627a7a72305820164eee0d1819f9dc5ecd16d2571d53f0b832f8851df19c25b912bf4f35ee63c90029",
  "source": "pragma solidity ^0.4.0;\n\n\nimport 'zeppelin-solidity/contracts/ownership/HasNoTokens.sol';\nimport 'zeppelin-solidity/contracts/ownership/HasNoEther.sol';\nimport 'zeppelin-solidity/contracts/math/SafeMath.sol';\nimport './Tags.sol';\nimport \"./IpfsHash.sol\";\nimport './token/Essence.sol';\nimport './Votes.sol';\n\n\ncontract Entries is HasNoEther, HasNoTokens {\n    using SafeMath for uint256;\n\n    Tags tags;\n\n    Essence essence;\n\n    Votes votes;\n\n\n    uint256 public required_essence = 10**19;\n\n    uint256 public discount_every = 10**22;\n\n    uint256 public voting_period = 2 weeks;\n\n    enum EntryType { Article, Link, Media, Other }\n\n    event Publish(address indexed author, bytes32 indexed entryId);\n\n    event TagIndex(bytes32 indexed tagName, bytes32 indexed entryId, EntryType indexed entryType);\n\n    event Update(address indexed author, bytes32 indexed entryId);\n\n    struct Entry {\n    uint total;\n    mapping (bytes32 => IpfsHash.Multihash) records;\n    }\n\n    mapping (address => Entry) entryIndex;\n\n    function Entries(Essence _essence)\n    HasNoEther()\n    HasNoTokens()\n    {\n        essence = _essence;\n    }\n\n    function setRequiredEssence(uint256 _amount)\n    onlyOwner\n    returns (bool)\n    {\n        required_essence = _amount;\n        return true;\n    }\n\n    function setVotingPeriod(uint256 _period)\n    onlyOwner\n    returns (bool)\n    {\n        voting_period = _period;\n        return true;\n    }\n\n    function setDiscountEvery(uint256 _amount)\n    onlyOwner\n    returns (bool)\n    {\n        discount_every = _amount;\n    }\n\n    function setTagsAddress(address _tags)\n    onlyOwner\n    returns (bool)\n    {\n        tags = Tags(_tags);\n        return true;\n    }\n\n    function setEssenceAddress(address _essence)\n    onlyOwner\n    returns (bool)\n    {\n        essence = Essence(_essence);\n        return true;\n    }\n\n    function setVotesAddress(address _votes)\n    onlyOwner\n    returns (bool)\n    {\n        votes = Votes(_votes);\n        return true;\n    }\n\n    function calcPublishCost(address _author)\n    internal\n    returns (uint _amount)\n    {\n        uint256 essenceAmount;\n        (, essenceAmount) = essence.getCollected(_author);\n        uint256 discount = essenceAmount.div(discount_every);\n        if (discount >= required_essence) {\n            return 1;\n        }\n        return required_essence.sub(discount);\n    }\n\n    function publish(bytes32 _hash, uint8 _fn, uint8 _digestSize, bytes32[] _tags, EntryType _type)\n    internal\n    returns(bool)\n    {\n        require(_tags.length < 11 && _tags.length > 0);\n        require(essence.spendMana(msg.sender, calcPublishCost(msg.sender), 0x656e7472793a7075626c697368));\n        bytes32 entryId = sha3(msg.sender, entryIndex[msg.sender].total, now);\n        for (uint8 i = 0; i < _tags.length; i++)\n        {\n            if (!tags.exists(_tags[i])) {\n                require(tags.addFromEntry(_tags[i], msg.sender));\n            }\n            tags.incrementTotalEntries(_tags[i]);\n            TagIndex(_tags[i], entryId, _type);\n        }\n\n        uint256 endPeriod = voting_period.add(now);\n        require(IpfsHash.create(entryIndex[msg.sender].records[entryId], _hash, _fn, _digestSize));\n        require(votes.registerResource(entryId, endPeriod));\n        entryIndex[msg.sender].total = entryIndex[msg.sender].total.add(1);\n        Publish(msg.sender, entryId);\n        return true;\n    }\n\n    function publishArticle(bytes32 _hash, uint8 _fn, uint8 _digestSize, bytes32[] _tags)\n    {\n        require(publish(_hash, _fn, _digestSize, _tags, EntryType.Article));\n    }\n\n    function publishLink(bytes32 _hash, uint8 _fn, uint8 _digestSize, bytes32[] _tags)\n    {\n        require(publish(_hash, _fn, _digestSize, _tags, EntryType.Link));\n    }\n\n    function publishMedia(bytes32 _hash, uint8 _fn, uint8 _digestSize, bytes32[] _tags)\n    {\n        require(publish(_hash, _fn, _digestSize, _tags, EntryType.Media));\n    }\n\n    function publishOther(bytes32 _hash, uint8 _fn, uint8 _digestSize, bytes32[] _tags)\n    {\n        require(publish(_hash, _fn, _digestSize, _tags, EntryType.Other));\n    }\n\n    function edit(bytes32 _entryId, bytes32 _hash, uint8 _fn, uint8 _digestSize)\n    {\n        require(entryIndex[msg.sender].records[_entryId].fn != 0);\n        require(IpfsHash.create(entryIndex[msg.sender].records[_entryId], _hash, _fn, _digestSize));\n        Update(msg.sender, _entryId);\n    }\n\n    function getEntryCount(address _publisher)\n    constant\n    returns (uint256)\n    {\n        return entryIndex[_publisher].total;\n    }\n\n    function getEntry(address _publisher, bytes32 _entryId)\n    constant\n    returns (uint8 _fn, uint8 _digestSize, bytes32 _hash)\n    {\n        (_fn, _digestSize, _hash) = IpfsHash.getHash(entryIndex[_publisher].records[_entryId]);\n    }\n\n    function exists(address _publisher, bytes32 _entryId)\n    constant\n    returns (bool)\n    {\n        return entryIndex[_publisher].records[_entryId].fn != 0;\n    }\n\n\n    function claim(bytes32 _entryId)\n    returns (bool)\n    {\n        require(entryIndex[msg.sender].records[_entryId].fn != 0);\n        require(votes.claimEntry(_entryId, msg.sender));\n        return true;\n    }\n\n\n}\n",
  "sourcePath": "/home/kenshyx/projects/contracts.alpha/contracts/Entries.sol",
  "compiler": {
    "name": "solc",
    "version": "0.4.18+commit.9cf6e910.Emscripten.clang"
  },
  "schemaVersion": "1.0.1",
  "updatedAt": "2017-11-10T14:25:03.567Z"
}