{
  "contractName": "Essence",
  "abi": [
    {
      "constant": false,
      "inputs": [
        {
          "name": "_receiver",
          "type": "address"
        },
        {
          "name": "_amount",
          "type": "uint256"
        },
        {
          "name": "_action",
          "type": "bytes32"
        },
        {
          "name": "_source",
          "type": "bytes32"
        }
      ],
      "name": "collectFor",
      "outputs": [
        {
          "name": "",
          "type": "bool"
        }
      ],
      "payable": false,
      "stateMutability": "nonpayable",
      "type": "function"
    },
    {
      "constant": false,
      "inputs": [
        {
          "name": "token",
          "type": "address"
        }
      ],
      "name": "reclaimToken",
      "outputs": [],
      "payable": false,
      "stateMutability": "nonpayable",
      "type": "function"
    },
    {
      "constant": false,
      "inputs": [
        {
          "name": "_contract",
          "type": "address"
        }
      ],
      "name": "removeWhitelisted",
      "outputs": [
        {
          "name": "",
          "type": "bool"
        }
      ],
      "payable": false,
      "stateMutability": "nonpayable",
      "type": "function"
    },
    {
      "constant": true,
      "inputs": [
        {
          "name": "_collected",
          "type": "uint256"
        }
      ],
      "name": "aethValueFrom",
      "outputs": [
        {
          "name": "",
          "type": "uint256"
        }
      ],
      "payable": false,
      "stateMutability": "view",
      "type": "function"
    },
    {
      "constant": false,
      "inputs": [
        {
          "name": "_aeth",
          "type": "address"
        }
      ],
      "name": "setAeth",
      "outputs": [
        {
          "name": "",
          "type": "bool"
        }
      ],
      "payable": false,
      "stateMutability": "nonpayable",
      "type": "function"
    },
    {
      "constant": false,
      "inputs": [
        {
          "name": "_contract",
          "type": "address"
        }
      ],
      "name": "addToWhiteList",
      "outputs": [
        {
          "name": "",
          "type": "bool"
        }
      ],
      "payable": false,
      "stateMutability": "nonpayable",
      "type": "function"
    },
    {
      "constant": false,
      "inputs": [
        {
          "name": "_hash",
          "type": "bytes32"
        },
        {
          "name": "_total",
          "type": "uint256"
        }
      ],
      "name": "newHash",
      "outputs": [
        {
          "name": "",
          "type": "bool"
        }
      ],
      "payable": false,
      "stateMutability": "nonpayable",
      "type": "function"
    },
    {
      "constant": false,
      "inputs": [
        {
          "name": "_amount",
          "type": "uint256"
        }
      ],
      "name": "transformEssence",
      "outputs": [
        {
          "name": "",
          "type": "bool"
        }
      ],
      "payable": false,
      "stateMutability": "nonpayable",
      "type": "function"
    },
    {
      "constant": false,
      "inputs": [
        {
          "name": "_newFactor",
          "type": "uint256"
        }
      ],
      "name": "setFactor",
      "outputs": [
        {
          "name": "",
          "type": "bool"
        }
      ],
      "payable": false,
      "stateMutability": "nonpayable",
      "type": "function"
    },
    {
      "constant": false,
      "inputs": [
        {
          "name": "_min",
          "type": "uint256"
        }
      ],
      "name": "setMinAmount",
      "outputs": [
        {
          "name": "",
          "type": "bool"
        }
      ],
      "payable": false,
      "stateMutability": "nonpayable",
      "type": "function"
    },
    {
      "constant": true,
      "inputs": [],
      "name": "owner",
      "outputs": [
        {
          "name": "",
          "type": "address"
        }
      ],
      "payable": false,
      "stateMutability": "view",
      "type": "function"
    },
    {
      "constant": true,
      "inputs": [
        {
          "name": "_spender",
          "type": "address"
        }
      ],
      "name": "mana",
      "outputs": [
        {
          "name": "_total",
          "type": "uint256"
        },
        {
          "name": "_spent",
          "type": "uint256"
        },
        {
          "name": "_remaining",
          "type": "uint256"
        }
      ],
      "payable": false,
      "stateMutability": "view",
      "type": "function"
    },
    {
      "constant": true,
      "inputs": [],
      "name": "minAmount",
      "outputs": [
        {
          "name": "",
          "type": "uint256"
        }
      ],
      "payable": false,
      "stateMutability": "view",
      "type": "function"
    },
    {
      "constant": false,
      "inputs": [],
      "name": "reclaimEther",
      "outputs": [],
      "payable": false,
      "stateMutability": "nonpayable",
      "type": "function"
    },
    {
      "constant": false,
      "inputs": [
        {
          "name": "from_",
          "type": "address"
        },
        {
          "name": "value_",
          "type": "uint256"
        },
        {
          "name": "data_",
          "type": "bytes"
        }
      ],
      "name": "tokenFallback",
      "outputs": [],
      "payable": false,
      "stateMutability": "nonpayable",
      "type": "function"
    },
    {
      "constant": false,
      "inputs": [
        {
          "name": "_initiator",
          "type": "address"
        },
        {
          "name": "_amount",
          "type": "uint256"
        },
        {
          "name": "_scope",
          "type": "bytes32"
        }
      ],
      "name": "spendMana",
      "outputs": [
        {
          "name": "",
          "type": "bool"
        }
      ],
      "payable": false,
      "stateMutability": "nonpayable",
      "type": "function"
    },
    {
      "constant": true,
      "inputs": [],
      "name": "transformFactor",
      "outputs": [
        {
          "name": "",
          "type": "uint256"
        }
      ],
      "payable": false,
      "stateMutability": "view",
      "type": "function"
    },
    {
      "constant": false,
      "inputs": [
        {
          "name": "newOwner",
          "type": "address"
        }
      ],
      "name": "transferOwnership",
      "outputs": [],
      "payable": false,
      "stateMutability": "nonpayable",
      "type": "function"
    },
    {
      "constant": true,
      "inputs": [
        {
          "name": "_collector",
          "type": "address"
        }
      ],
      "name": "getCollected",
      "outputs": [
        {
          "name": "_karma",
          "type": "uint256"
        },
        {
          "name": "_essence",
          "type": "uint256"
        }
      ],
      "payable": false,
      "stateMutability": "view",
      "type": "function"
    },
    {
      "inputs": [],
      "payable": false,
      "stateMutability": "nonpayable",
      "type": "constructor"
    },
    {
      "payable": false,
      "stateMutability": "nonpayable",
      "type": "fallback"
    },
    {
      "anonymous": false,
      "inputs": [
        {
          "indexed": false,
          "name": "newHash",
          "type": "bytes32"
        },
        {
          "indexed": false,
          "name": "totalToMint",
          "type": "uint256"
        }
      ],
      "name": "RefreshMana",
      "type": "event"
    },
    {
      "anonymous": false,
      "inputs": [
        {
          "indexed": true,
          "name": "spender",
          "type": "address"
        },
        {
          "indexed": true,
          "name": "hash",
          "type": "bytes32"
        },
        {
          "indexed": false,
          "name": "amount",
          "type": "uint256"
        },
        {
          "indexed": false,
          "name": "total",
          "type": "uint256"
        },
        {
          "indexed": false,
          "name": "scope",
          "type": "bytes32"
        }
      ],
      "name": "SpendMana",
      "type": "event"
    },
    {
      "anonymous": false,
      "inputs": [
        {
          "indexed": true,
          "name": "receiver",
          "type": "address"
        },
        {
          "indexed": false,
          "name": "amount",
          "type": "uint256"
        },
        {
          "indexed": false,
          "name": "action",
          "type": "bytes32"
        },
        {
          "indexed": false,
          "name": "source",
          "type": "bytes32"
        }
      ],
      "name": "CollectEssence",
      "type": "event"
    },
    {
      "anonymous": false,
      "inputs": [
        {
          "indexed": true,
          "name": "spender",
          "type": "address"
        },
        {
          "indexed": false,
          "name": "amount",
          "type": "uint256"
        }
      ],
      "name": "ConvertEssence",
      "type": "event"
    },
    {
      "anonymous": false,
      "inputs": [
        {
          "indexed": true,
          "name": "previousOwner",
          "type": "address"
        },
        {
          "indexed": true,
          "name": "newOwner",
          "type": "address"
        }
      ],
      "name": "OwnershipTransferred",
      "type": "event"
    }
  ],
  "bytecode": "0x60606040526009600255601f600355341561001957600080fd5b336000806101000a81548173ffffffffffffffffffffffffffffffffffffffff021916908373ffffffffffffffffffffffffffffffffffffffff16021790555060003414151561006857600080fd5b6119ef806100776000396000f300606060405260043610610107576000357c0100000000000000000000000000000000000000000000000000000000900463ffffffff16806310e32b041461011457806317ffc32014610188578063291d9549146101c15780632b062c911461021257806346c76ff81461024957806347ee03941461029a57806351ded49f146102eb5780635302133214610333578063817e9d311461036e578063897b0637146103a95780638da5cb5b146103e457806394dd7a4e146104395780639b2cb5d8146104945780639f727c27146104bd578063c0ee0b8a146104d2578063da5ecde014610528578063e9fbb6841461058f578063f2fde38b146105b8578063fb166bb0146105f1575b341561011257600080fd5b005b341561011f57600080fd5b61016e600480803573ffffffffffffffffffffffffffffffffffffffff169060200190919080359060200190919080356000191690602001909190803560001916906020019091905050610645565b604051808215151515815260200191505060405180910390f35b341561019357600080fd5b6101bf600480803573ffffffffffffffffffffffffffffffffffffffff16906020019091905050610867565b005b34156101cc57600080fd5b6101f8600480803573ffffffffffffffffffffffffffffffffffffffff169060200190919050506109d4565b604051808215151515815260200191505060405180910390f35b341561021d57600080fd5b6102336004808035906020019091905050610ae1565b6040518082815260200191505060405180910390f35b341561025457600080fd5b610280600480803573ffffffffffffffffffffffffffffffffffffffff16906020019091905050610aff565b604051808215151515815260200191505060405180910390f35b34156102a557600080fd5b6102d1600480803573ffffffffffffffffffffffffffffffffffffffff16906020019091905050610ba6565b604051808215151515815260200191505060405180910390f35b34156102f657600080fd5b610319600480803560001916906020019091908035906020019091905050610c64565b604051808215151515815260200191505060405180910390f35b341561033e57600080fd5b6103546004808035906020019091905050610d44565b604051808215151515815260200191505060405180910390f35b341561037957600080fd5b61038f600480803590602001909190505061103c565b604051808215151515815260200191505060405180910390f35b34156103b457600080fd5b6103ca60048080359060200190919050506110a5565b604051808215151515815260200191505060405180910390f35b34156103ef57600080fd5b6103f761110e565b604051808273ffffffffffffffffffffffffffffffffffffffff1673ffffffffffffffffffffffffffffffffffffffff16815260200191505060405180910390f35b341561044457600080fd5b610470600480803573ffffffffffffffffffffffffffffffffffffffff16906020019091905050611133565b60405180848152602001838152602001828152602001935050505060405180910390f35b341561049f57600080fd5b6104a7611293565b6040518082815260200191505060405180910390f35b34156104c857600080fd5b6104d0611299565b005b34156104dd57600080fd5b610526600480803573ffffffffffffffffffffffffffffffffffffffff16906020019091908035906020019091908035906020019082018035906020019190919290505061136b565b005b341561053357600080fd5b610575600480803573ffffffffffffffffffffffffffffffffffffffff1690602001909190803590602001909190803560001916906020019091905050611370565b604051808215151515815260200191505060405180910390f35b341561059a57600080fd5b6105a26116b1565b6040518082815260200191505060405180910390f35b34156105c357600080fd5b6105ef600480803573ffffffffffffffffffffffffffffffffffffffff169060200190919050506116b7565b005b34156105fc57600080fd5b610628600480803573ffffffffffffffffffffffffffffffffffffffff1690602001909190505061180c565b604051808381526020018281526020019250505060405180910390f35b600080600760003373ffffffffffffffffffffffffffffffffffffffff1673ffffffffffffffffffffffffffffffffffffffff16815260200190815260200160002060009054906101000a900460ff1615156106a057600080fd5b6106b4600a8661189e90919063ffffffff16565b905061070b85600660008973ffffffffffffffffffffffffffffffffffffffff1673ffffffffffffffffffffffffffffffffffffffff168152602001908152602001600020600001546118b990919063ffffffff16565b600660008873ffffffffffffffffffffffffffffffffffffffff1673ffffffffffffffffffffffffffffffffffffffff168152602001908152602001600020600001819055506107a681600660008973ffffffffffffffffffffffffffffffffffffffff1673ffffffffffffffffffffffffffffffffffffffff168152602001908152602001600020600101546118b990919063ffffffff16565b600660008873ffffffffffffffffffffffffffffffffffffffff1673ffffffffffffffffffffffffffffffffffffffff168152602001908152602001600020600101819055508573ffffffffffffffffffffffffffffffffffffffff167f66df431da08342f75f233f1d71e920ea9eb1c25ccfc95286b3bad881d11a47428686866040518084815260200183600019166000191681526020018260001916600019168152602001935050505060405180910390a26001915050949350505050565b60008060009054906101000a900473ffffffffffffffffffffffffffffffffffffffff1673ffffffffffffffffffffffffffffffffffffffff163373ffffffffffffffffffffffffffffffffffffffff161415156108c457600080fd5b8173ffffffffffffffffffffffffffffffffffffffff166370a08231306000604051602001526040518263ffffffff167c0100000000000000000000000000000000000000000000000000000000028152600401808273ffffffffffffffffffffffffffffffffffffffff1673ffffffffffffffffffffffffffffffffffffffff168152602001915050602060405180830381600087803b151561096757600080fd5b6102c65a03f1151561097857600080fd5b5050506040518051905090506109d06000809054906101000a900473ffffffffffffffffffffffffffffffffffffffff16828473ffffffffffffffffffffffffffffffffffffffff166118d79092919063ffffffff16565b5050565b60008060009054906101000a900473ffffffffffffffffffffffffffffffffffffffff1673ffffffffffffffffffffffffffffffffffffffff163373ffffffffffffffffffffffffffffffffffffffff16141515610a3157600080fd5b600760008373ffffffffffffffffffffffffffffffffffffffff1673ffffffffffffffffffffffffffffffffffffffff16815260200190815260200160002060009054906101000a900460ff161515610a8957600080fd5b600760008373ffffffffffffffffffffffffffffffffffffffff1673ffffffffffffffffffffffffffffffffffffffff16815260200190815260200160002060006101000a81549060ff021916905560019050919050565b6000610af86002548361189e90919063ffffffff16565b9050919050565b60008060009054906101000a900473ffffffffffffffffffffffffffffffffffffffff1673ffffffffffffffffffffffffffffffffffffffff163373ffffffffffffffffffffffffffffffffffffffff16141515610b5c57600080fd5b81600460006101000a81548173ffffffffffffffffffffffffffffffffffffffff021916908373ffffffffffffffffffffffffffffffffffffffff16021790555060019050919050565b60008060009054906101000a900473ffffffffffffffffffffffffffffffffffffffff1673ffffffffffffffffffffffffffffffffffffffff163373ffffffffffffffffffffffffffffffffffffffff16141515610c0357600080fd5b6001600760008473ffffffffffffffffffffffffffffffffffffffff1673ffffffffffffffffffffffffffffffffffffffff16815260200190815260200160002060006101000a81548160ff02191690831515021790555060019050919050565b60008060009054906101000a900473ffffffffffffffffffffffffffffffffffffffff1673ffffffffffffffffffffffffffffffffffffffff163373ffffffffffffffffffffffffffffffffffffffff16141515610cc157600080fd5b8260018160001916905550816008600060015460001916600019168152602001908152602001600020600001819055507fe6261c9c46042bfdc7d26945b543955a34bc0c00e01be5655ba202e7c72380da600154836040518083600019166000191681526020018281526020019250505060405180910390a16001905092915050565b600060035482111515610d5657600080fd5b81600660003373ffffffffffffffffffffffffffffffffffffffff1673ffffffffffffffffffffffffffffffffffffffff1681526020019081526020016000206001015410151515610da757600080fd5b610dda826008600060015460001916600019168152602001908152602001600020600101546118b990919063ffffffff16565b60086000600154600019166000191681526020019081526020016000206001018190555060086000600154600019166000191681526020019081526020016000206001015460086000600154600019166000191681526020019081526020016000206000015410151515610e4a57fe5b610e9f82600660003373ffffffffffffffffffffffffffffffffffffffff1673ffffffffffffffffffffffffffffffffffffffff168152602001908152602001600020600101546119aa90919063ffffffff16565b600660003373ffffffffffffffffffffffffffffffffffffffff1673ffffffffffffffffffffffffffffffffffffffff16815260200190815260200160002060010181905550600460009054906101000a900473ffffffffffffffffffffffffffffffffffffffff1673ffffffffffffffffffffffffffffffffffffffff1663f51724df33610f396002548661189e90919063ffffffff16565b6000604051602001526040518363ffffffff167c0100000000000000000000000000000000000000000000000000000000028152600401808373ffffffffffffffffffffffffffffffffffffffff1673ffffffffffffffffffffffffffffffffffffffff16815260200182815260200192505050602060405180830381600087803b1515610fc657600080fd5b6102c65a03f11515610fd757600080fd5b505050604051805190501515610fe957fe5b3373ffffffffffffffffffffffffffffffffffffffff167f0662a42659d411be6c61ba781758c0bdf87eadf1000e86a5fa2f077574e9c81b836040518082815260200191505060405180910390a2919050565b60008060009054906101000a900473ffffffffffffffffffffffffffffffffffffffff1673ffffffffffffffffffffffffffffffffffffffff163373ffffffffffffffffffffffffffffffffffffffff1614151561109957600080fd5b81600281905550919050565b60008060009054906101000a900473ffffffffffffffffffffffffffffffffffffffff1673ffffffffffffffffffffffffffffffffffffffff163373ffffffffffffffffffffffffffffffffffffffff1614151561110257600080fd5b81600381905550919050565b6000809054906101000a900473ffffffffffffffffffffffffffffffffffffffff1681565b6000806000600460009054906101000a900473ffffffffffffffffffffffffffffffffffffffff1673ffffffffffffffffffffffffffffffffffffffff1663f19e2a21856000604051602001526040518263ffffffff167c0100000000000000000000000000000000000000000000000000000000028152600401808273ffffffffffffffffffffffffffffffffffffffff1673ffffffffffffffffffffffffffffffffffffffff168152602001915050602060405180830381600087803b15156111fd57600080fd5b6102c65a03f1151561120e57600080fd5b505050604051805190509250600560008573ffffffffffffffffffffffffffffffffffffffff1673ffffffffffffffffffffffffffffffffffffffff16815260200190815260200160002060006001546000191660001916815260200190815260200160002054915061128a82846119aa90919063ffffffff16565b90509193909250565b60035481565b6000809054906101000a900473ffffffffffffffffffffffffffffffffffffffff1673ffffffffffffffffffffffffffffffffffffffff163373ffffffffffffffffffffffffffffffffffffffff161415156112f457600080fd5b6000809054906101000a900473ffffffffffffffffffffffffffffffffffffffff1673ffffffffffffffffffffffffffffffffffffffff166108fc3073ffffffffffffffffffffffffffffffffffffffff16319081150290604051600060405180830381858888f19350505050151561136957fe5b565b600080fd5b600080600760003373ffffffffffffffffffffffffffffffffffffffff1673ffffffffffffffffffffffffffffffffffffffff16815260200190815260200160002060009054906101000a900460ff1615156113cb57600080fd5b600460009054906101000a900473ffffffffffffffffffffffffffffffffffffffff1673ffffffffffffffffffffffffffffffffffffffff1663f19e2a21866000604051602001526040518263ffffffff167c0100000000000000000000000000000000000000000000000000000000028152600401808273ffffffffffffffffffffffffffffffffffffffff1673ffffffffffffffffffffffffffffffffffffffff168152602001915050602060405180830381600087803b151561149057600080fd5b6102c65a03f115156114a157600080fd5b50505060405180519050905061151a84600560008873ffffffffffffffffffffffffffffffffffffffff1673ffffffffffffffffffffffffffffffffffffffff168152602001908152602001600020600060015460001916600019168152602001908152602001600020546118b990919063ffffffff16565b600560008773ffffffffffffffffffffffffffffffffffffffff1673ffffffffffffffffffffffffffffffffffffffff1681526020019081526020016000206000600154600019166000191681526020019081526020016000208190555080600560008773ffffffffffffffffffffffffffffffffffffffff1673ffffffffffffffffffffffffffffffffffffffff16815260200190815260200160002060006001546000191660001916815260200190815260200160002054111515156115de57fe5b600154600019168573ffffffffffffffffffffffffffffffffffffffff167f9c0ddb014a6cabfb3a9259f06a467fab3202af5d0c134145b01d2b37498cdce486600560008a73ffffffffffffffffffffffffffffffffffffffff1673ffffffffffffffffffffffffffffffffffffffff1681526020019081526020016000206000600154600019166000191681526020019081526020016000205487604051808481526020018381526020018260001916600019168152602001935050505060405180910390a360019150509392505050565b60025481565b6000809054906101000a900473ffffffffffffffffffffffffffffffffffffffff1673ffffffffffffffffffffffffffffffffffffffff163373ffffffffffffffffffffffffffffffffffffffff1614151561171257600080fd5b600073ffffffffffffffffffffffffffffffffffffffff168173ffffffffffffffffffffffffffffffffffffffff161415151561174e57600080fd5b8073ffffffffffffffffffffffffffffffffffffffff166000809054906101000a900473ffffffffffffffffffffffffffffffffffffffff1673ffffffffffffffffffffffffffffffffffffffff167f8be0079c531659141344cd1fd0a4f28419497f9722a3daafe3b4186f6b6457e060405160405180910390a3806000806101000a81548173ffffffffffffffffffffffffffffffffffffffff021916908373ffffffffffffffffffffffffffffffffffffffff16021790555050565b600080600660008473ffffffffffffffffffffffffffffffffffffffff1673ffffffffffffffffffffffffffffffffffffffff16815260200190815260200160002060000154600660008573ffffffffffffffffffffffffffffffffffffffff1673ffffffffffffffffffffffffffffffffffffffff1681526020019081526020016000206001015491509150915091565b60008082848115156118ac57fe5b0490508091505092915050565b60008082840190508381101515156118cd57fe5b8091505092915050565b8273ffffffffffffffffffffffffffffffffffffffff1663a9059cbb83836000604051602001526040518363ffffffff167c0100000000000000000000000000000000000000000000000000000000028152600401808373ffffffffffffffffffffffffffffffffffffffff1673ffffffffffffffffffffffffffffffffffffffff16815260200182815260200192505050602060405180830381600087803b151561198257600080fd5b6102c65a03f1151561199357600080fd5b5050506040518051905015156119a557fe5b505050565b60008282111515156119b857fe5b8183039050929150505600a165627a7a7230582086a58bfd55f25bf5dd2ccbaa501773e11f5b32ae74d893898977eb6cbb651ab20029",
  "source": "pragma solidity ^0.4.0;\n\n\nimport './AETH.sol';\nimport 'zeppelin-solidity/contracts/ownership/HasNoTokens.sol';\nimport 'zeppelin-solidity/contracts/ownership/HasNoEther.sol';\nimport 'zeppelin-solidity/contracts/math/SafeMath.sol';\n\n\ncontract Essence is HasNoEther, HasNoTokens {\n    using SafeMath for uint256;\n    // this is updated frequently by owner\n    bytes32 currentHash;\n\n    uint256 public transformFactor = 10 ^ 3;\n\n    uint256 public minAmount = 10 ^ 21;\n\n    AETH aeth;\n\n    struct Pot {\n    uint256 total;\n    uint256 transformed;\n    }\n\n    struct Collect {\n    uint256 karma;\n    uint256 essence;\n    }\n\n    mapping (address => mapping (bytes32 => uint256)) balance;\n\n    mapping (address => Collect) collected;\n\n    mapping (address => bool) whitelist;\n\n    mapping (bytes32 => Pot) hashBalance;\n\n    event RefreshMana(bytes32 newHash, uint256 totalToMint);\n\n    event SpendMana(address indexed spender, bytes32 indexed hash, uint256 amount, uint256 total, bytes32 scope);\n\n    event CollectEssence(address indexed receiver, uint256 amount, bytes32 action, bytes32 source);\n\n    event ConvertEssence(address indexed spender, uint256 amount);\n\n    modifier onlyWhitelisted()\n    {\n        require(whitelist[msg.sender]);\n        _;\n    }\n\n    function Essence()\n    HasNoEther()\n    HasNoTokens()\n    {\n\n    }\n\n    function setAeth(AETH _aeth)\n    onlyOwner\n    returns (bool)\n    {\n        aeth = _aeth;\n        return true;\n    }\n\n    function setMinAmount(uint256 _min)\n    onlyOwner\n    returns (bool)\n    {\n        minAmount = _min;\n    }\n\n    function newHash(bytes32 _hash, uint256 _total)\n    onlyOwner\n    returns (bool)\n    {\n        currentHash = _hash;\n        hashBalance[currentHash].total = _total;\n        RefreshMana(currentHash, _total);\n        return true;\n    }\n\n    function setFactor(uint256 _newFactor)\n    onlyOwner\n    returns (bool)\n    {\n        transformFactor = _newFactor;\n    }\n\n    function addToWhiteList(address _contract)\n    onlyOwner\n    returns (bool)\n    {\n        whitelist[_contract] = true;\n        return true;\n    }\n\n    function removeWhitelisted(address _contract)\n    onlyOwner\n    returns (bool)\n    {\n        require(whitelist[_contract]);\n        delete whitelist[_contract];\n        return true;\n    }\n\n    function spendMana(address _initiator, uint256 _amount, bytes32 _scope)\n    external\n    onlyWhitelisted\n    returns (bool)\n    {\n        uint256 totalBonded = aeth.bonded(_initiator);\n        balance[_initiator][currentHash] = balance[_initiator][currentHash].add(_amount);\n\n        assert(balance[_initiator][currentHash] <= totalBonded);\n\n        SpendMana(_initiator, currentHash, _amount, balance[_initiator][currentHash], _scope);\n        return true;\n    }\n\n    function mana(address _spender)\n    constant\n    returns (uint256 _total, uint256 _spent, uint256 _remaining)\n    {\n        _total = aeth.bonded(_spender);\n        _spent = balance[_spender][currentHash];\n        _remaining = _total.sub(_spent);\n    }\n\n    function collectFor(address _receiver, uint256 _amount, bytes32 _action, bytes32 _source)\n    external\n    onlyWhitelisted\n    returns (bool)\n    {\n        uint256 obtainedEssence = _amount.div(10);\n        collected[_receiver].karma = collected[_receiver].karma.add(_amount);\n        collected[_receiver].essence = collected[_receiver].essence.add(obtainedEssence);\n        CollectEssence(_receiver, _amount, _action, _source);\n        return true;\n    }\n\n    function transformEssence(uint256 _amount)\n    returns (bool)\n    {\n        require(_amount > minAmount);\n        require(collected[msg.sender].essence >= _amount);\n        hashBalance[currentHash].transformed = hashBalance[currentHash].transformed.add(_amount);\n        assert(hashBalance[currentHash].total >= hashBalance[currentHash].transformed);\n        collected[msg.sender].essence = collected[msg.sender].essence.sub(_amount);\n        assert(aeth.consumeEssence(msg.sender, _amount.div(transformFactor)));\n        ConvertEssence(msg.sender, _amount);\n    }\n\n    function aethValueFrom(uint256 _collected)\n    constant\n    returns (uint256)\n    {\n        return _collected.div(transformFactor);\n    }\n\n    function getCollected(address _collector)\n    constant\n    returns (uint256 _karma, uint256 _essence)\n    {\n        return (collected[_collector].karma, collected[_collector].essence);\n    }\n}\n",
  "sourcePath": "/home/kenshyx/projects/contracts.alpha/contracts/token/Essence.sol",
  "compiler": {
    "name": "solc",
    "version": "0.4.18+commit.9cf6e910.Emscripten.clang"
  },
  "schemaVersion": "1.0.1",
  "updatedAt": "2017-11-10T14:25:03.578Z"
}