{
  "contractName": "IpfsHash",
  "abi": [
    {
      "constant": false,
      "inputs": [
        {
          "name": "self",
          "type": "IpfsHash.Multihash storage"
        },
        {
          "name": "_hash",
          "type": "bytes32"
        },
        {
          "name": "_fn",
          "type": "uint8"
        },
        {
          "name": "_digestSize",
          "type": "uint8"
        }
      ],
      "name": "create",
      "outputs": [
        {
          "name": "",
          "type": "bool"
        }
      ],
      "payable": false,
      "stateMutability": "nonpayable",
      "type": "function"
    }
  ],
  "bytecode": "0x6060604052341561000f57600080fd5b6101328061001e6000396000f300606060405260043610610041576000357c0100000000000000000000000000000000000000000000000000000000900463ffffffff168063294ba8e714610046575b600080fd5b61008160048080359060200190919080356000191690602001909190803560ff1690602001909190803560ff1690602001909190505061009b565b604051808215151515815260200191505060405180910390f35b600060208260ff1611156100b257600090506100fe565b83856000018160001916905550828560010160006101000a81548160ff021916908360ff160217905550818560010160016101000a81548160ff021916908360ff160217905550600190505b9493505050505600a165627a7a7230582055a873c1b62b09ba2083a576733d7296c1f1d5e46d844db2765576fdb1d5f0290029",
  "source": "pragma solidity ^0.4.0;\n\n\n//\nlibrary IpfsHash {\n\n    // decode ipfs hash to hex, strip prefix\n    // ex: 1220aa7ef8aced767773e8a47753ed0ef452a35845db3f02cd85b92c75ff593ee991\n    // { codec: 12, size: 20, hash: aa7ef8aced767773e8a47753ed0ef452a35845db3f02cd85b92c75ff593ee991 }\n    struct Multihash {\n    bytes32 hash;\n    uint8 fn;\n    uint8 digestSize;\n    }\n\n    function create(Multihash storage self, bytes32 _hash, uint8 _fn, uint8 _digestSize)\n    public\n    returns (bool)\n    {\n        if (_digestSize > 32) {\n            return false;\n        }\n        self.hash = _hash;\n        self.fn = _fn;\n        self.digestSize = _digestSize;\n        return true;\n    }\n\n    function getHash(Multihash _multiHash)\n    pure\n    internal\n    returns (uint8, uint8, bytes32)\n    {\n        // on dapp just concat all these in one string, transform to Buffer and encode it\n        return (_multiHash.fn, _multiHash.digestSize, _multiHash.hash);\n    }\n}\n",
  "sourcePath": "/home/kenshyx/projects/contracts.alpha/contracts/IpfsHash.sol",
  "compiler": {
    "name": "solc",
    "version": "0.4.18+commit.9cf6e910.Emscripten.clang"
  },
  "schemaVersion": "1.0.1",
  "updatedAt": "2017-11-23T16:29:21.739Z"
}