{
  "contractName": "OngoingSale",
  "abi": [
    {
      "constant": true,
      "inputs": [],
      "name": "rate",
      "outputs": [
        {
          "name": "",
          "type": "uint256"
        }
      ],
      "payable": false,
      "stateMutability": "view",
      "type": "function"
    },
    {
      "constant": true,
      "inputs": [],
      "name": "endTime",
      "outputs": [
        {
          "name": "",
          "type": "uint256"
        }
      ],
      "payable": false,
      "stateMutability": "view",
      "type": "function"
    },
    {
      "constant": true,
      "inputs": [],
      "name": "cap",
      "outputs": [
        {
          "name": "",
          "type": "uint256"
        }
      ],
      "payable": false,
      "stateMutability": "view",
      "type": "function"
    },
    {
      "constant": true,
      "inputs": [],
      "name": "weiRaised",
      "outputs": [
        {
          "name": "",
          "type": "uint256"
        }
      ],
      "payable": false,
      "stateMutability": "view",
      "type": "function"
    },
    {
      "constant": false,
      "inputs": [],
      "name": "finalize",
      "outputs": [],
      "payable": false,
      "stateMutability": "nonpayable",
      "type": "function"
    },
    {
      "constant": true,
      "inputs": [],
      "name": "wallet",
      "outputs": [
        {
          "name": "",
          "type": "address"
        }
      ],
      "payable": false,
      "stateMutability": "view",
      "type": "function"
    },
    {
      "constant": true,
      "inputs": [],
      "name": "startTime",
      "outputs": [
        {
          "name": "",
          "type": "uint256"
        }
      ],
      "payable": false,
      "stateMutability": "view",
      "type": "function"
    },
    {
      "constant": true,
      "inputs": [],
      "name": "isFinalized",
      "outputs": [
        {
          "name": "",
          "type": "bool"
        }
      ],
      "payable": false,
      "stateMutability": "view",
      "type": "function"
    },
    {
      "constant": true,
      "inputs": [],
      "name": "owner",
      "outputs": [
        {
          "name": "",
          "type": "address"
        }
      ],
      "payable": false,
      "stateMutability": "view",
      "type": "function"
    },
    {
      "constant": false,
      "inputs": [
        {
          "name": "beneficiary",
          "type": "address"
        }
      ],
      "name": "buyTokens",
      "outputs": [],
      "payable": true,
      "stateMutability": "payable",
      "type": "function"
    },
    {
      "constant": true,
      "inputs": [],
      "name": "hasEnded",
      "outputs": [
        {
          "name": "",
          "type": "bool"
        }
      ],
      "payable": false,
      "stateMutability": "view",
      "type": "function"
    },
    {
      "constant": false,
      "inputs": [
        {
          "name": "newOwner",
          "type": "address"
        }
      ],
      "name": "transferOwnership",
      "outputs": [],
      "payable": false,
      "stateMutability": "nonpayable",
      "type": "function"
    },
    {
      "constant": true,
      "inputs": [],
      "name": "token",
      "outputs": [
        {
          "name": "",
          "type": "address"
        }
      ],
      "payable": false,
      "stateMutability": "view",
      "type": "function"
    },
    {
      "inputs": [
        {
          "name": "_startBlock",
          "type": "uint256"
        },
        {
          "name": "_endBlock",
          "type": "uint256"
        },
        {
          "name": "_rate",
          "type": "uint256"
        },
        {
          "name": "_wallet",
          "type": "address"
        },
        {
          "name": "_cap",
          "type": "uint256"
        }
      ],
      "payable": false,
      "stateMutability": "nonpayable",
      "type": "constructor"
    },
    {
      "payable": true,
      "stateMutability": "payable",
      "type": "fallback"
    },
    {
      "anonymous": false,
      "inputs": [],
      "name": "Finalized",
      "type": "event"
    },
    {
      "anonymous": false,
      "inputs": [
        {
          "indexed": true,
          "name": "previousOwner",
          "type": "address"
        },
        {
          "indexed": true,
          "name": "newOwner",
          "type": "address"
        }
      ],
      "name": "OwnershipTransferred",
      "type": "event"
    },
    {
      "anonymous": false,
      "inputs": [
        {
          "indexed": true,
          "name": "purchaser",
          "type": "address"
        },
        {
          "indexed": true,
          "name": "beneficiary",
          "type": "address"
        },
        {
          "indexed": false,
          "name": "value",
          "type": "uint256"
        },
        {
          "indexed": false,
          "name": "amount",
          "type": "uint256"
        }
      ],
      "name": "TokenPurchase",
      "type": "event"
    }
  ],
  "bytecode": "0x60606040526000600760146101000a81548160ff021916908315150217905550341561002a57600080fd5b60405160a0806200795283398101604052808051906020019091908051906020019091908051906020019091908051906020019091908051906020019091905050808585858542841015151561007f57600080fd5b83831015151561008e57600080fd5b60008211151561009d57600080fd5b60008173ffffffffffffffffffffffffffffffffffffffff16141515156100c357600080fd5b6100de6101d964010000000002610ae2176401000000009004565b6000806101000a81548173ffffffffffffffffffffffffffffffffffffffff021916908373ffffffffffffffffffffffffffffffffffffffff16021790555083600181905550826002819055508160048190555080600360006101000a81548173ffffffffffffffffffffffffffffffffffffffff021916908373ffffffffffffffffffffffffffffffffffffffff1602179055505050505060008111151561018657600080fd5b806006819055505033600760006101000a81548173ffffffffffffffffffffffffffffffffffffffff021916908373ffffffffffffffffffffffffffffffffffffffff160217905550505050505061020f565b60006101e36101fe565b604051809103906000f08015156101f957600080fd5b905090565b6040516135f8806200435a83390190565b61413b806200021f6000396000f3006060604052600436106100c5576000357c0100000000000000000000000000000000000000000000000000000000900463ffffffff1680632c4e722e146100d05780633197cbb6146100f9578063355274ea146101225780634042b66f1461014b5780634bb278f314610174578063521eb2731461018957806378e97925146101de5780638d4e4083146102075780638da5cb5b14610234578063ec8ac4d814610289578063ecb70fb7146102b7578063f2fde38b146102e4578063fc0c546a1461031d575b6100ce33610372565b005b34156100db57600080fd5b6100e3610545565b6040518082815260200191505060405180910390f35b341561010457600080fd5b61010c61054b565b6040518082815260200191505060405180910390f35b341561012d57600080fd5b610135610551565b6040518082815260200191505060405180910390f35b341561015657600080fd5b61015e610557565b6040518082815260200191505060405180910390f35b341561017f57600080fd5b61018761055d565b005b341561019457600080fd5b61019c610708565b604051808273ffffffffffffffffffffffffffffffffffffffff1673ffffffffffffffffffffffffffffffffffffffff16815260200191505060405180910390f35b34156101e957600080fd5b6101f161072e565b6040518082815260200191505060405180910390f35b341561021257600080fd5b61021a610734565b604051808215151515815260200191505060405180910390f35b341561023f57600080fd5b610247610747565b604051808273ffffffffffffffffffffffffffffffffffffffff1673ffffffffffffffffffffffffffffffffffffffff16815260200191505060405180910390f35b6102b5600480803573ffffffffffffffffffffffffffffffffffffffff16906020019091905050610372565b005b34156102c257600080fd5b6102ca61076d565b604051808215151515815260200191505060405180910390f35b34156102ef57600080fd5b61031b600480803573ffffffffffffffffffffffffffffffffffffffff16906020019091905050610790565b005b341561032857600080fd5b6103306108e8565b604051808273ffffffffffffffffffffffffffffffffffffffff1673ffffffffffffffffffffffffffffffffffffffff16815260200191505060405180910390f35b60008060008373ffffffffffffffffffffffffffffffffffffffff161415151561039b57600080fd5b6103a361090d565b15156103ae57600080fd5b3491506103c66004548361094390919063ffffffff16565b90506103dd8260055461097690919063ffffffff16565b6005819055506000809054906101000a900473ffffffffffffffffffffffffffffffffffffffff1673ffffffffffffffffffffffffffffffffffffffff166340c10f1984836000604051602001526040518363ffffffff167c0100000000000000000000000000000000000000000000000000000000028152600401808373ffffffffffffffffffffffffffffffffffffffff1673ffffffffffffffffffffffffffffffffffffffff16815260200182815260200192505050602060405180830381600087803b15156104af57600080fd5b6102c65a03f115156104c057600080fd5b50505060405180519050508273ffffffffffffffffffffffffffffffffffffffff163373ffffffffffffffffffffffffffffffffffffffff167f623b3804fa71d67900d064613da8f94b9617215ee90799290593e1745087ad188484604051808381526020018281526020019250505060405180910390a3610540610994565b505050565b60045481565b60025481565b60065481565b60055481565b600760009054906101000a900473ffffffffffffffffffffffffffffffffffffffff1673ffffffffffffffffffffffffffffffffffffffff163373ffffffffffffffffffffffffffffffffffffffff161415156105b957600080fd5b600760149054906101000a900460ff161515156105d557600080fd5b6105dd61076d565b15156105e857600080fd5b6105f06109f8565b7f6823b073d48d6e3a7d385eeb601452d680e74bb46afe3255a7d778f3a9b1768160405160405180910390a16001600760146101000a81548160ff0219169083151502179055506000809054906101000a900473ffffffffffffffffffffffffffffffffffffffff1673ffffffffffffffffffffffffffffffffffffffff1663f2fde38b336040518263ffffffff167c0100000000000000000000000000000000000000000000000000000000028152600401808273ffffffffffffffffffffffffffffffffffffffff1673ffffffffffffffffffffffffffffffffffffffff168152602001915050600060405180830381600087803b15156106f257600080fd5b6102c65a03f1151561070357600080fd5b505050565b600360009054906101000a900473ffffffffffffffffffffffffffffffffffffffff1681565b60015481565b600760149054906101000a900460ff1681565b600760009054906101000a900473ffffffffffffffffffffffffffffffffffffffff1681565b60008060065460055410159050610782610aa3565b8061078a5750805b91505090565b600760009054906101000a900473ffffffffffffffffffffffffffffffffffffffff1673ffffffffffffffffffffffffffffffffffffffff163373ffffffffffffffffffffffffffffffffffffffff161415156107ec57600080fd5b600073ffffffffffffffffffffffffffffffffffffffff168173ffffffffffffffffffffffffffffffffffffffff161415151561082857600080fd5b8073ffffffffffffffffffffffffffffffffffffffff16600760009054906101000a900473ffffffffffffffffffffffffffffffffffffffff1673ffffffffffffffffffffffffffffffffffffffff167f8be0079c531659141344cd1fd0a4f28419497f9722a3daafe3b4186f6b6457e060405160405180910390a380600760006101000a81548173ffffffffffffffffffffffffffffffffffffffff021916908373ffffffffffffffffffffffffffffffffffffffff16021790555050565b6000809054906101000a900473ffffffffffffffffffffffffffffffffffffffff1681565b6000806006546109283460055461097690919063ffffffff16565b11159050610934610aaf565b801561093d5750805b91505090565b60008082840290506000841480610964575082848281151561096157fe5b04145b151561096c57fe5b8091505092915050565b600080828401905083811015151561098a57fe5b8091505092915050565b600360009054906101000a900473ffffffffffffffffffffffffffffffffffffffff1673ffffffffffffffffffffffffffffffffffffffff166108fc349081150290604051600060405180830381858888f1935050505015156109f657600080fd5b565b6000809054906101000a900473ffffffffffffffffffffffffffffffffffffffff1673ffffffffffffffffffffffffffffffffffffffff16637d64bcb46000604051602001526040518163ffffffff167c0100000000000000000000000000000000000000000000000000000000028152600401602060405180830381600087803b1515610a8557600080fd5b6102c65a03f11515610a9657600080fd5b5050506040518051905050565b60006002544211905090565b60008060006001544210158015610ac857506002544211155b915060003414159050818015610adb5750805b9250505090565b6000610aec610b07565b604051809103906000f0801515610b0257600080fd5b905090565b6040516135f880610b1883390190560060606040526000600360146101000a81548160ff0219169083151502179055506000600360156101000a81548160ff0219169083151502179055506040805190810160405280600c81526020017f414b4153484120546f6b656e0000000000000000000000000000000000000000815250600490805190602001906200008792919062000140565b506040805190810160405280600481526020017f414554480000000000000000000000000000000000000000000000000000000081525060059080519060200190620000d592919062000140565b506012600660006101000a81548160ff021916908360ff1602179055506201518060075533600360006101000a81548173ffffffffffffffffffffffffffffffffffffffff021916908373ffffffffffffffffffffffffffffffffffffffff160217905550620001ef565b828054600181600116156101000203166002900490600052602060002090601f016020900481019282601f106200018357805160ff1916838001178555620001b4565b82800160010185558215620001b4579182015b82811115620001b357825182559160200191906001019062000196565b5b509050620001c39190620001c7565b5090565b620001ec91905b80821115620001e8576000816000905550600101620001ce565b5090565b90565b6133f980620001ff6000396000f300606060405260043610610196576000357c0100000000000000000000000000000000000000000000000000000000900463ffffffff16806305d2035b1461019b57806306fdde03146101c8578063095ea7b3146102565780630d668087146102b057806318160ddd146102d95780632108b3541461030257806323b872dd1461036b5780632a3f5080146103e4578063313ce567146104515780633f4ba83a1461048057806340c10f1914610495578063501951ed146104ef5780635c975abb1461052a5780635f8962461461055757806366188463146105845780636ab465bd146105de5780636d2b9de01461061957806370a08231146106665780637d64bcb4146106b35780638456cb59146106e05780638488893a146106f55780638da5cb5b146107875780638f0ecae2146107dc57806395d89b4114610815578063a9059cbb146108a3578063ae04d45d146108fd578063d73dd62314610920578063dd62ed3e1461097a578063f19e2a21146109e6578063f2a3668414610a33578063f2fde38b14610a8e578063f51724df14610ac7575b600080fd5b34156101a657600080fd5b6101ae610b21565b604051808215151515815260200191505060405180910390f35b34156101d357600080fd5b6101db610b34565b6040518080602001828103825283818151815260200191508051906020019080838360005b8381101561021b578082015181840152602081019050610200565b50505050905090810190601f1680156102485780820380516001836020036101000a031916815260200191505b509250505060405180910390f35b341561026157600080fd5b610296600480803573ffffffffffffffffffffffffffffffffffffffff16906020019091908035906020019091905050610bd2565b604051808215151515815260200191505060405180910390f35b34156102bb57600080fd5b6102c3610c02565b6040518082815260200191505060405180910390f35b34156102e457600080fd5b6102ec610c08565b6040518082815260200191505060405180910390f35b341561030d57600080fd5b610342600480803573ffffffffffffffffffffffffffffffffffffffff16906020019091908035906020019091905050610c0e565b604051808360ff1660ff1681526020018260ff1660ff1681526020019250505060405180910390f35b341561037657600080fd5b6103ca600480803573ffffffffffffffffffffffffffffffffffffffff1690602001909190803573ffffffffffffffffffffffffffffffffffffffff16906020019091908035906020019091905050610d21565b604051808215151515815260200191505060405180910390f35b34156103ef57600080fd5b610427600480803573ffffffffffffffffffffffffffffffffffffffff1690602001909190803560ff16906020019091905050610d53565b604051808481526020018381526020018260ff1660ff168152602001935050505060405180910390f35b341561045c57600080fd5b610464610ea0565b604051808260ff1660ff16815260200191505060405180910390f35b341561048b57600080fd5b610493610eb3565b005b34156104a057600080fd5b6104d5600480803573ffffffffffffffffffffffffffffffffffffffff16906020019091908035906020019091905050610f73565b604051808215151515815260200191505060405180910390f35b34156104fa57600080fd5b6105106004808035906020019091905050611145565b604051808215151515815260200191505060405180910390f35b341561053557600080fd5b61053d6113db565b604051808215151515815260200191505060405180910390f35b341561056257600080fd5b61056a6113ee565b604051808215151515815260200191505060405180910390f35b341561058f57600080fd5b6105c4600480803573ffffffffffffffffffffffffffffffffffffffff169060200190919080359060200190919050506117f2565b604051808215151515815260200191505060405180910390f35b34156105e957600080fd5b6105ff6004808035906020019091905050611822565b604051808215151515815260200191505060405180910390f35b341561062457600080fd5b610650600480803573ffffffffffffffffffffffffffffffffffffffff16906020019091905050611e73565b6040518082815260200191505060405180910390f35b341561067157600080fd5b61069d600480803573ffffffffffffffffffffffffffffffffffffffff16906020019091905050611edf565b6040518082815260200191505060405180910390f35b34156106be57600080fd5b6106c6611f28565b604051808215151515815260200191505060405180910390f35b34156106eb57600080fd5b6106f3611fd4565b005b61076d600480803573ffffffffffffffffffffffffffffffffffffffff1690602001909190803590602001909190803590602001908201803590602001908080601f01602080910402602001604051908101604052809392919081815260200183838082843782019150505050505091905050612095565b604051808215151515815260200191505060405180910390f35b341561079257600080fd5b61079a6121fa565b604051808273ffffffffffffffffffffffffffffffffffffffff1673ffffffffffffffffffffffffffffffffffffffff16815260200191505060405180910390f35b34156107e757600080fd5b610813600480803573ffffffffffffffffffffffffffffffffffffffff16906020019091905050612220565b005b341561082057600080fd5b6108286122c0565b6040518080602001828103825283818151815260200191508051906020019080838360005b8381101561086857808201518184015260208101905061084d565b50505050905090810190601f1680156108955780820380516001836020036101000a031916815260200191505b509250505060405180910390f35b34156108ae57600080fd5b6108e3600480803573ffffffffffffffffffffffffffffffffffffffff1690602001909190803590602001909190505061235e565b604051808215151515815260200191505060405180910390f35b341561090857600080fd5b61091e600480803590602001909190505061238e565b005b341561092b57600080fd5b610960600480803573ffffffffffffffffffffffffffffffffffffffff169060200190919080359060200190919050506123f4565b604051808215151515815260200191505060405180910390f35b341561098557600080fd5b6109d0600480803573ffffffffffffffffffffffffffffffffffffffff1690602001909190803573ffffffffffffffffffffffffffffffffffffffff16906020019091905050612424565b6040518082815260200191505060405180910390f35b34156109f157600080fd5b610a1d600480803573ffffffffffffffffffffffffffffffffffffffff169060200190919050506124ab565b6040518082815260200191505060405180910390f35b3415610a3e57600080fd5b610a6a600480803573ffffffffffffffffffffffffffffffffffffffff16906020019091905050612516565b60405180848152602001838152602001828152602001935050505060405180910390f35b3415610a9957600080fd5b610ac5600480803573ffffffffffffffffffffffffffffffffffffffff1690602001909190505061262d565b005b3415610ad257600080fd5b610b07600480803573ffffffffffffffffffffffffffffffffffffffff16906020019091908035906020019091905050612785565b604051808215151515815260200191505060405180910390f35b600360149054906101000a900460ff1681565b60048054600181600116156101000203166002900480601f016020809104026020016040519081016040528092919081815260200182805460018160011615610100020316600290048015610bca5780601f10610b9f57610100808354040283529160200191610bca565b820191906000526020600020905b815481529060010190602001808311610bad57829003601f168201915b505050505081565b6000600360159054906101000a900460ff16151515610bf057600080fd5b610bfa838361293b565b905092915050565b60075481565b60005481565b600080600080600080925060009150600090505b60208160ff161015610d11576000600a60008973ffffffffffffffffffffffffffffffffffffffff1673ffffffffffffffffffffffffffffffffffffffff1681526020019081526020016000206000018260ff16602081101515610c8257fe5b60020201600001541115610d0457828060010193505085600a60008973ffffffffffffffffffffffffffffffffffffffff1673ffffffffffffffffffffffffffffffffffffffff1681526020019081526020016000206000018260ff16602081101515610ceb57fe5b6002020160010154111515610d035781806001019250505b5b8080600101915050610c22565b8282945094505050509250929050565b6000600360159054906101000a900460ff16151515610d3f57600080fd5b610d4a848484612a2d565b90509392505050565b6000806000808490505b60208160ff161015610e98576000600a60008873ffffffffffffffffffffffffffffffffffffffff1673ffffffffffffffffffffffffffffffffffffffff1681526020019081526020016000206000018260ff16602081101515610dbd57fe5b60020201600001541115610e8b57600a60008773ffffffffffffffffffffffffffffffffffffffff1673ffffffffffffffffffffffffffffffffffffffff1681526020019081526020016000206000018160ff16602081101515610e1d57fe5b60020201600001549350600a60008773ffffffffffffffffffffffffffffffffffffffff1673ffffffffffffffffffffffffffffffffffffffff1681526020019081526020016000206000018160ff16602081101515610e7957fe5b60020201600101549250809150610e98565b8080600101915050610d5d565b509250925092565b600660009054906101000a900460ff1681565b600360009054906101000a900473ffffffffffffffffffffffffffffffffffffffff1673ffffffffffffffffffffffffffffffffffffffff163373ffffffffffffffffffffffffffffffffffffffff16141515610f0f57600080fd5b600360159054906101000a900460ff161515610f2a57600080fd5b6000600360156101000a81548160ff0219169083151502179055507f7805862f689e2f13df9f062ff482ad3ad112aca9e0847911ed832e158c525b3360405160405180910390a1565b6000600360009054906101000a900473ffffffffffffffffffffffffffffffffffffffff1673ffffffffffffffffffffffffffffffffffffffff163373ffffffffffffffffffffffffffffffffffffffff16141515610fd157600080fd5b600360149054906101000a900460ff16151515610fed57600080fd5b61100282600054612d1990919063ffffffff16565b60008190555061105a82600160008673ffffffffffffffffffffffffffffffffffffffff1673ffffffffffffffffffffffffffffffffffffffff16815260200190815260200160002054612d1990919063ffffffff16565b600160008573ffffffffffffffffffffffffffffffffffffffff1673ffffffffffffffffffffffffffffffffffffffff168152602001908152602001600020819055508273ffffffffffffffffffffffffffffffffffffffff167f0f6798a560793a54c3bcfe86a93cde1e73087d944c0ea20544137d4121396885836040518082815260200191505060405180910390a28273ffffffffffffffffffffffffffffffffffffffff1660007fddf252ad1be2c89b69c2b068fc378daa952ba7f163c4a11628f55a4df523b3ef846040518082815260200191505060405180910390a36001905092915050565b600081600160003373ffffffffffffffffffffffffffffffffffffffff1673ffffffffffffffffffffffffffffffffffffffff168152602001908152602001600020541015151561119257fe5b6111e482600160003373ffffffffffffffffffffffffffffffffffffffff1673ffffffffffffffffffffffffffffffffffffffff16815260200190815260200160002054612d3790919063ffffffff16565b600160003373ffffffffffffffffffffffffffffffffffffffff1673ffffffffffffffffffffffffffffffffffffffff1681526020019081526020016000208190555061129b82600960003373ffffffffffffffffffffffffffffffffffffffff1673ffffffffffffffffffffffffffffffffffffffff168152602001908152602001600020600080600281111561127857fe5b60ff1660ff16815260200190815260200160002054612d1990919063ffffffff16565b600960003373ffffffffffffffffffffffffffffffffffffffff1673ffffffffffffffffffffffffffffffffffffffff16815260200190815260200160002060008060028111156112e857fe5b60ff1660ff1681526020019081526020016000208190555060003373ffffffffffffffffffffffffffffffffffffffff167fddf252ad1be2c89b69c2b068fc378daa952ba7f163c4a11628f55a4df523b3ef846040518082815260200191505060405180910390a37f0f30aa5a186db94018a20857f8cbe6f1156cb35de19b2f988e78733e44f6590f33600084604051808473ffffffffffffffffffffffffffffffffffffffff1673ffffffffffffffffffffffffffffffffffffffff1681526020018360028111156113b757fe5b60ff168152602001828152602001935050505060405180910390a160019050919050565b600360159054906101000a900460ff1681565b60008060008090505b60208160ff1610156117e95742600a60003373ffffffffffffffffffffffffffffffffffffffff1673ffffffffffffffffffffffffffffffffffffffff1681526020019081526020016000206000018260ff1660208110151561145657fe5b60020201600101541080156114c457506000600a60003373ffffffffffffffffffffffffffffffffffffffff1673ffffffffffffffffffffffffffffffffffffffff1681526020019081526020016000206000018260ff166020811015156114ba57fe5b6002020160000154115b156117dc57600a60003373ffffffffffffffffffffffffffffffffffffffff1673ffffffffffffffffffffffffffffffffffffffff1681526020019081526020016000206000018160ff1660208110151561151b57fe5b6002020160000154915061159a82600960003373ffffffffffffffffffffffffffffffffffffffff1673ffffffffffffffffffffffffffffffffffffffff16815260200190815260200160002060006001600281111561157757fe5b60ff1660ff16815260200190815260200160002054612d3790919063ffffffff16565b600960003373ffffffffffffffffffffffffffffffffffffffff1673ffffffffffffffffffffffffffffffffffffffff1681526020019081526020016000206000600160028111156115e857fe5b60ff1660ff1681526020019081526020016000208190555061165282600160003373ffffffffffffffffffffffffffffffffffffffff1673ffffffffffffffffffffffffffffffffffffffff16815260200190815260200160002054612d1990919063ffffffff16565b600160003373ffffffffffffffffffffffffffffffffffffffff1673ffffffffffffffffffffffffffffffffffffffff16815260200190815260200160002081905550600a60003373ffffffffffffffffffffffffffffffffffffffff1673ffffffffffffffffffffffffffffffffffffffff1681526020019081526020016000206000018160ff166020811015156116e757fe5b600202016000808201600090556001820160009055505080600a60003373ffffffffffffffffffffffffffffffffffffffff1673ffffffffffffffffffffffffffffffffffffffff16815260200190815260200160002060400160006101000a81548160ff021916908360ff1602179055507f0f30aa5a186db94018a20857f8cbe6f1156cb35de19b2f988e78733e44f6590f33600284604051808473ffffffffffffffffffffffffffffffffffffffff1673ffffffffffffffffffffffffffffffffffffffff1681526020018360028111156117c057fe5b60ff168152602001828152602001935050505060405180910390a15b80806001019150506113f7565b60019250505090565b6000600360159054906101000a900460ff1615151561181057600080fd5b61181a8383612d50565b905092915050565b600061182c6133b3565b6000808411151561183c57600080fd5b6020600a60003373ffffffffffffffffffffffffffffffffffffffff1673ffffffffffffffffffffffffffffffffffffffff16815260200190815260200160002060400160009054906101000a900460ff1660ff1610151561189a57fe5b61190e84600960003373ffffffffffffffffffffffffffffffffffffffff1673ffffffffffffffffffffffffffffffffffffffff16815260200190815260200160002060008060028111156118eb57fe5b60ff1660ff16815260200190815260200160002054612d3790919063ffffffff16565b600960003373ffffffffffffffffffffffffffffffffffffffff1673ffffffffffffffffffffffffffffffffffffffff168152602001908152602001600020600080600281111561195b57fe5b60ff1660ff168152602001908152602001600020819055506119e884600960003373ffffffffffffffffffffffffffffffffffffffff1673ffffffffffffffffffffffffffffffffffffffff1681526020019081526020016000206000600160028111156119c557fe5b60ff1660ff16815260200190815260200160002054612d1990919063ffffffff16565b600960003373ffffffffffffffffffffffffffffffffffffffff1673ffffffffffffffffffffffffffffffffffffffff168152602001908152602001600020600060016002811115611a3657fe5b60ff1660ff1681526020019081526020016000208190555060408051908101604052808581526020016007544201815250915081600a60003373ffffffffffffffffffffffffffffffffffffffff1673ffffffffffffffffffffffffffffffffffffffff168152602001908152602001600020600001600a60003373ffffffffffffffffffffffffffffffffffffffff1673ffffffffffffffffffffffffffffffffffffffff16815260200190815260200160002060400160009054906101000a900460ff1660ff16602081101515611b0b57fe5b600202016000820151816000015560208201518160010155905050601f600a60003373ffffffffffffffffffffffffffffffffffffffff1673ffffffffffffffffffffffffffffffffffffffff16815260200190815260200160002060400160009054906101000a900460ff1660ff161415611be2576000600a60003373ffffffffffffffffffffffffffffffffffffffff1673ffffffffffffffffffffffffffffffffffffffff16815260200190815260200160002060400160006101000a81548160ff021916908360ff160217905550611c55565b600a60003373ffffffffffffffffffffffffffffffffffffffff1673ffffffffffffffffffffffffffffffffffffffff168152602001908152602001600020604001600081819054906101000a900460ff168092919060010191906101000a81548160ff021916908360ff160217905550505b600090505b6020600a60003373ffffffffffffffffffffffffffffffffffffffff1673ffffffffffffffffffffffffffffffffffffffff16815260200190815260200160002060400160009054906101000a900460ff1660ff161015611de6576000600a60003373ffffffffffffffffffffffffffffffffffffffff1673ffffffffffffffffffffffffffffffffffffffff168152602001908152602001600020600001600a60003373ffffffffffffffffffffffffffffffffffffffff1673ffffffffffffffffffffffffffffffffffffffff16815260200190815260200160002060400160009054906101000a900460ff1660ff16602081101515611d5857fe5b60020201600101541415611d6f5760019050611de6565b600a60003373ffffffffffffffffffffffffffffffffffffffff1673ffffffffffffffffffffffffffffffffffffffff168152602001908152602001600020604001600081819054906101000a900460ff168092919060010191906101000a81548160ff021916908360ff16021790555050611c5a565b7f0f30aa5a186db94018a20857f8cbe6f1156cb35de19b2f988e78733e44f6590f33600186604051808473ffffffffffffffffffffffffffffffffffffffff1673ffffffffffffffffffffffffffffffffffffffff168152602001836002811115611e4d57fe5b60ff168152602001828152602001935050505060405180910390a1600192505050919050565b6000600960008373ffffffffffffffffffffffffffffffffffffffff1673ffffffffffffffffffffffffffffffffffffffff168152602001908152602001600020600060016002811115611ec357fe5b60ff1660ff168152602001908152602001600020549050919050565b6000600160008373ffffffffffffffffffffffffffffffffffffffff1673ffffffffffffffffffffffffffffffffffffffff168152602001908152602001600020549050919050565b6000600360009054906101000a900473ffffffffffffffffffffffffffffffffffffffff1673ffffffffffffffffffffffffffffffffffffffff163373ffffffffffffffffffffffffffffffffffffffff16141515611f8657600080fd5b6001600360146101000a81548160ff0219169083151502179055507fae5184fba832cb2b1f702aca6117b8d265eaf03ad33eb133f19dde0f5920fa0860405160405180910390a16001905090565b600360009054906101000a900473ffffffffffffffffffffffffffffffffffffffff1673ffffffffffffffffffffffffffffffffffffffff163373ffffffffffffffffffffffffffffffffffffffff1614151561203057600080fd5b600360159054906101000a900460ff1615151561204c57600080fd5b6001600360156101000a81548160ff0219169083151502179055507f6985a02210a168e66602d3235cb6db0e70f92b3ba4d376a33c0f3d9434bff62560405160405180910390a1565b6000808311806120a55750600034115b15156120b057600080fd5b60008311156120cf576120c3848461235e565b15156120ce57600080fd5b5b6000341115612119578373ffffffffffffffffffffffffffffffffffffffff166108fc349081150290604051600060405180830381858888f19350505050151561211857600080fd5b5b8373ffffffffffffffffffffffffffffffffffffffff163373ffffffffffffffffffffffffffffffffffffffff167ff0867503c5147c27b10a8e12f7c0ca20f597dc2174d3a6b51a25cb7c5191460a8534866040518084815260200183815260200180602001828103825283818151815260200191508051906020019080838360005b838110156121b757808201518184015260208101905061219c565b50505050905090810190601f1680156121e45780820380516001836020036101000a031916815260200191505b5094505050505060405180910390a39392505050565b600360009054906101000a900473ffffffffffffffffffffffffffffffffffffffff1681565b600360009054906101000a900473ffffffffffffffffffffffffffffffffffffffff1673ffffffffffffffffffffffffffffffffffffffff163373ffffffffffffffffffffffffffffffffffffffff1614151561227c57600080fd5b80600860006101000a81548173ffffffffffffffffffffffffffffffffffffffff021916908373ffffffffffffffffffffffffffffffffffffffff16021790555050565b60058054600181600116156101000203166002900480601f0160208091040260200160405190810160405280929190818152602001828054600181600116156101000203166002900480156123565780601f1061232b57610100808354040283529160200191612356565b820191906000526020600020905b81548152906001019060200180831161233957829003601f168201915b505050505081565b6000600360159054906101000a900460ff1615151561237c57600080fd5b6123868383612fe1565b905092915050565b600360009054906101000a900473ffffffffffffffffffffffffffffffffffffffff1673ffffffffffffffffffffffffffffffffffffffff163373ffffffffffffffffffffffffffffffffffffffff161415156123ea57600080fd5b8060078190555050565b6000600360159054906101000a900460ff1615151561241257600080fd5b61241c83836131b7565b905092915050565b6000600260008473ffffffffffffffffffffffffffffffffffffffff1673ffffffffffffffffffffffffffffffffffffffff16815260200190815260200160002060008373ffffffffffffffffffffffffffffffffffffffff1673ffffffffffffffffffffffffffffffffffffffff16815260200190815260200160002054905092915050565b6000600960008373ffffffffffffffffffffffffffffffffffffffff1673ffffffffffffffffffffffffffffffffffffffff16815260200190815260200160002060008060028111156124fa57fe5b60ff1660ff168152602001908152602001600020549050919050565b6000806000600160008573ffffffffffffffffffffffffffffffffffffffff1673ffffffffffffffffffffffffffffffffffffffff168152602001908152602001600020549250600960008573ffffffffffffffffffffffffffffffffffffffff1673ffffffffffffffffffffffffffffffffffffffff16815260200190815260200160002060008060028111156125aa57fe5b60ff1660ff168152602001908152602001600020549150600960008573ffffffffffffffffffffffffffffffffffffffff1673ffffffffffffffffffffffffffffffffffffffff16815260200190815260200160002060006001600281111561260f57fe5b60ff1660ff1681526020019081526020016000205490509193909250565b600360009054906101000a900473ffffffffffffffffffffffffffffffffffffffff1673ffffffffffffffffffffffffffffffffffffffff163373ffffffffffffffffffffffffffffffffffffffff1614151561268957600080fd5b600073ffffffffffffffffffffffffffffffffffffffff168173ffffffffffffffffffffffffffffffffffffffff16141515156126c557600080fd5b8073ffffffffffffffffffffffffffffffffffffffff16600360009054906101000a900473ffffffffffffffffffffffffffffffffffffffff1673ffffffffffffffffffffffffffffffffffffffff167f8be0079c531659141344cd1fd0a4f28419497f9722a3daafe3b4186f6b6457e060405160405180910390a380600360006101000a81548173ffffffffffffffffffffffffffffffffffffffff021916908373ffffffffffffffffffffffffffffffffffffffff16021790555050565b6000600860009054906101000a900473ffffffffffffffffffffffffffffffffffffffff1673ffffffffffffffffffffffffffffffffffffffff163373ffffffffffffffffffffffffffffffffffffffff161415156127e357600080fd5b6127f882600054612d1990919063ffffffff16565b60008190555061285082600160008673ffffffffffffffffffffffffffffffffffffffff1673ffffffffffffffffffffffffffffffffffffffff16815260200190815260200160002054612d1990919063ffffffff16565b600160008573ffffffffffffffffffffffffffffffffffffffff1673ffffffffffffffffffffffffffffffffffffffff168152602001908152602001600020819055508273ffffffffffffffffffffffffffffffffffffffff167f0f6798a560793a54c3bcfe86a93cde1e73087d944c0ea20544137d4121396885836040518082815260200191505060405180910390a28273ffffffffffffffffffffffffffffffffffffffff1660007fddf252ad1be2c89b69c2b068fc378daa952ba7f163c4a11628f55a4df523b3ef846040518082815260200191505060405180910390a36001905092915050565b600081600260003373ffffffffffffffffffffffffffffffffffffffff1673ffffffffffffffffffffffffffffffffffffffff16815260200190815260200160002060008573ffffffffffffffffffffffffffffffffffffffff1673ffffffffffffffffffffffffffffffffffffffff168152602001908152602001600020819055508273ffffffffffffffffffffffffffffffffffffffff163373ffffffffffffffffffffffffffffffffffffffff167f8c5be1e5ebec7d5bd14f71427d1e84f3dd0314c0f7b2291e5b200ac8c7c3b925846040518082815260200191505060405180910390a36001905092915050565b600080600073ffffffffffffffffffffffffffffffffffffffff168473ffffffffffffffffffffffffffffffffffffffff1614151515612a6c57600080fd5b600260008673ffffffffffffffffffffffffffffffffffffffff1673ffffffffffffffffffffffffffffffffffffffff16815260200190815260200160002060003373ffffffffffffffffffffffffffffffffffffffff1673ffffffffffffffffffffffffffffffffffffffff168152602001908152602001600020549050612b3d83600160008873ffffffffffffffffffffffffffffffffffffffff1673ffffffffffffffffffffffffffffffffffffffff16815260200190815260200160002054612d3790919063ffffffff16565b600160008773ffffffffffffffffffffffffffffffffffffffff1673ffffffffffffffffffffffffffffffffffffffff16815260200190815260200160002081905550612bd283600160008773ffffffffffffffffffffffffffffffffffffffff1673ffffffffffffffffffffffffffffffffffffffff16815260200190815260200160002054612d1990919063ffffffff16565b600160008673ffffffffffffffffffffffffffffffffffffffff1673ffffffffffffffffffffffffffffffffffffffff16815260200190815260200160002081905550612c288382612d3790919063ffffffff16565b600260008773ffffffffffffffffffffffffffffffffffffffff1673ffffffffffffffffffffffffffffffffffffffff16815260200190815260200160002060003373ffffffffffffffffffffffffffffffffffffffff1673ffffffffffffffffffffffffffffffffffffffff168152602001908152602001600020819055508373ffffffffffffffffffffffffffffffffffffffff168573ffffffffffffffffffffffffffffffffffffffff167fddf252ad1be2c89b69c2b068fc378daa952ba7f163c4a11628f55a4df523b3ef856040518082815260200191505060405180910390a360019150509392505050565b6000808284019050838110151515612d2d57fe5b8091505092915050565b6000828211151515612d4557fe5b818303905092915050565b600080600260003373ffffffffffffffffffffffffffffffffffffffff1673ffffffffffffffffffffffffffffffffffffffff16815260200190815260200160002060008573ffffffffffffffffffffffffffffffffffffffff1673ffffffffffffffffffffffffffffffffffffffff16815260200190815260200160002054905080831115612e61576000600260003373ffffffffffffffffffffffffffffffffffffffff1673ffffffffffffffffffffffffffffffffffffffff16815260200190815260200160002060008673ffffffffffffffffffffffffffffffffffffffff1673ffffffffffffffffffffffffffffffffffffffff16815260200190815260200160002081905550612ef5565b612e748382612d3790919063ffffffff16565b600260003373ffffffffffffffffffffffffffffffffffffffff1673ffffffffffffffffffffffffffffffffffffffff16815260200190815260200160002060008673ffffffffffffffffffffffffffffffffffffffff1673ffffffffffffffffffffffffffffffffffffffff168152602001908152602001600020819055505b8373ffffffffffffffffffffffffffffffffffffffff163373ffffffffffffffffffffffffffffffffffffffff167f8c5be1e5ebec7d5bd14f71427d1e84f3dd0314c0f7b2291e5b200ac8c7c3b925600260003373ffffffffffffffffffffffffffffffffffffffff1673ffffffffffffffffffffffffffffffffffffffff16815260200190815260200160002060008873ffffffffffffffffffffffffffffffffffffffff1673ffffffffffffffffffffffffffffffffffffffff168152602001908152602001600020546040518082815260200191505060405180910390a3600191505092915050565b60008073ffffffffffffffffffffffffffffffffffffffff168373ffffffffffffffffffffffffffffffffffffffff161415151561301e57600080fd5b61307082600160003373ffffffffffffffffffffffffffffffffffffffff1673ffffffffffffffffffffffffffffffffffffffff16815260200190815260200160002054612d3790919063ffffffff16565b600160003373ffffffffffffffffffffffffffffffffffffffff1673ffffffffffffffffffffffffffffffffffffffff1681526020019081526020016000208190555061310582600160008673ffffffffffffffffffffffffffffffffffffffff1673ffffffffffffffffffffffffffffffffffffffff16815260200190815260200160002054612d1990919063ffffffff16565b600160008573ffffffffffffffffffffffffffffffffffffffff1673ffffffffffffffffffffffffffffffffffffffff168152602001908152602001600020819055508273ffffffffffffffffffffffffffffffffffffffff163373ffffffffffffffffffffffffffffffffffffffff167fddf252ad1be2c89b69c2b068fc378daa952ba7f163c4a11628f55a4df523b3ef846040518082815260200191505060405180910390a36001905092915050565b600061324882600260003373ffffffffffffffffffffffffffffffffffffffff1673ffffffffffffffffffffffffffffffffffffffff16815260200190815260200160002060008673ffffffffffffffffffffffffffffffffffffffff1673ffffffffffffffffffffffffffffffffffffffff16815260200190815260200160002054612d1990919063ffffffff16565b600260003373ffffffffffffffffffffffffffffffffffffffff1673ffffffffffffffffffffffffffffffffffffffff16815260200190815260200160002060008573ffffffffffffffffffffffffffffffffffffffff1673ffffffffffffffffffffffffffffffffffffffff168152602001908152602001600020819055508273ffffffffffffffffffffffffffffffffffffffff163373ffffffffffffffffffffffffffffffffffffffff167f8c5be1e5ebec7d5bd14f71427d1e84f3dd0314c0f7b2291e5b200ac8c7c3b925600260003373ffffffffffffffffffffffffffffffffffffffff1673ffffffffffffffffffffffffffffffffffffffff16815260200190815260200160002060008773ffffffffffffffffffffffffffffffffffffffff1673ffffffffffffffffffffffffffffffffffffffff168152602001908152602001600020546040518082815260200191505060405180910390a36001905092915050565b6040805190810160405280600081526020016000815250905600a165627a7a723058202927cda0c978a1722fe14fd0927f2823b8cff454758aa580acf3cb25b70bca250029a165627a7a72305820f06aa17ec0004eeb82346d636ffb7e36e5ae55407e940757bba4adbf6d340546002960606040526000600360146101000a81548160ff0219169083151502179055506000600360156101000a81548160ff0219169083151502179055506040805190810160405280600c81526020017f414b4153484120546f6b656e0000000000000000000000000000000000000000815250600490805190602001906200008792919062000140565b506040805190810160405280600481526020017f414554480000000000000000000000000000000000000000000000000000000081525060059080519060200190620000d592919062000140565b506012600660006101000a81548160ff021916908360ff1602179055506201518060075533600360006101000a81548173ffffffffffffffffffffffffffffffffffffffff021916908373ffffffffffffffffffffffffffffffffffffffff160217905550620001ef565b828054600181600116156101000203166002900490600052602060002090601f016020900481019282601f106200018357805160ff1916838001178555620001b4565b82800160010185558215620001b4579182015b82811115620001b357825182559160200191906001019062000196565b5b509050620001c39190620001c7565b5090565b620001ec91905b80821115620001e8576000816000905550600101620001ce565b5090565b90565b6133f980620001ff6000396000f300606060405260043610610196576000357c0100000000000000000000000000000000000000000000000000000000900463ffffffff16806305d2035b1461019b57806306fdde03146101c8578063095ea7b3146102565780630d668087146102b057806318160ddd146102d95780632108b3541461030257806323b872dd1461036b5780632a3f5080146103e4578063313ce567146104515780633f4ba83a1461048057806340c10f1914610495578063501951ed146104ef5780635c975abb1461052a5780635f8962461461055757806366188463146105845780636ab465bd146105de5780636d2b9de01461061957806370a08231146106665780637d64bcb4146106b35780638456cb59146106e05780638488893a146106f55780638da5cb5b146107875780638f0ecae2146107dc57806395d89b4114610815578063a9059cbb146108a3578063ae04d45d146108fd578063d73dd62314610920578063dd62ed3e1461097a578063f19e2a21146109e6578063f2a3668414610a33578063f2fde38b14610a8e578063f51724df14610ac7575b600080fd5b34156101a657600080fd5b6101ae610b21565b604051808215151515815260200191505060405180910390f35b34156101d357600080fd5b6101db610b34565b6040518080602001828103825283818151815260200191508051906020019080838360005b8381101561021b578082015181840152602081019050610200565b50505050905090810190601f1680156102485780820380516001836020036101000a031916815260200191505b509250505060405180910390f35b341561026157600080fd5b610296600480803573ffffffffffffffffffffffffffffffffffffffff16906020019091908035906020019091905050610bd2565b604051808215151515815260200191505060405180910390f35b34156102bb57600080fd5b6102c3610c02565b6040518082815260200191505060405180910390f35b34156102e457600080fd5b6102ec610c08565b6040518082815260200191505060405180910390f35b341561030d57600080fd5b610342600480803573ffffffffffffffffffffffffffffffffffffffff16906020019091908035906020019091905050610c0e565b604051808360ff1660ff1681526020018260ff1660ff1681526020019250505060405180910390f35b341561037657600080fd5b6103ca600480803573ffffffffffffffffffffffffffffffffffffffff1690602001909190803573ffffffffffffffffffffffffffffffffffffffff16906020019091908035906020019091905050610d21565b604051808215151515815260200191505060405180910390f35b34156103ef57600080fd5b610427600480803573ffffffffffffffffffffffffffffffffffffffff1690602001909190803560ff16906020019091905050610d53565b604051808481526020018381526020018260ff1660ff168152602001935050505060405180910390f35b341561045c57600080fd5b610464610ea0565b604051808260ff1660ff16815260200191505060405180910390f35b341561048b57600080fd5b610493610eb3565b005b34156104a057600080fd5b6104d5600480803573ffffffffffffffffffffffffffffffffffffffff16906020019091908035906020019091905050610f73565b604051808215151515815260200191505060405180910390f35b34156104fa57600080fd5b6105106004808035906020019091905050611145565b604051808215151515815260200191505060405180910390f35b341561053557600080fd5b61053d6113db565b604051808215151515815260200191505060405180910390f35b341561056257600080fd5b61056a6113ee565b604051808215151515815260200191505060405180910390f35b341561058f57600080fd5b6105c4600480803573ffffffffffffffffffffffffffffffffffffffff169060200190919080359060200190919050506117f2565b604051808215151515815260200191505060405180910390f35b34156105e957600080fd5b6105ff6004808035906020019091905050611822565b604051808215151515815260200191505060405180910390f35b341561062457600080fd5b610650600480803573ffffffffffffffffffffffffffffffffffffffff16906020019091905050611e73565b6040518082815260200191505060405180910390f35b341561067157600080fd5b61069d600480803573ffffffffffffffffffffffffffffffffffffffff16906020019091905050611edf565b6040518082815260200191505060405180910390f35b34156106be57600080fd5b6106c6611f28565b604051808215151515815260200191505060405180910390f35b34156106eb57600080fd5b6106f3611fd4565b005b61076d600480803573ffffffffffffffffffffffffffffffffffffffff1690602001909190803590602001909190803590602001908201803590602001908080601f01602080910402602001604051908101604052809392919081815260200183838082843782019150505050505091905050612095565b604051808215151515815260200191505060405180910390f35b341561079257600080fd5b61079a6121fa565b604051808273ffffffffffffffffffffffffffffffffffffffff1673ffffffffffffffffffffffffffffffffffffffff16815260200191505060405180910390f35b34156107e757600080fd5b610813600480803573ffffffffffffffffffffffffffffffffffffffff16906020019091905050612220565b005b341561082057600080fd5b6108286122c0565b6040518080602001828103825283818151815260200191508051906020019080838360005b8381101561086857808201518184015260208101905061084d565b50505050905090810190601f1680156108955780820380516001836020036101000a031916815260200191505b509250505060405180910390f35b34156108ae57600080fd5b6108e3600480803573ffffffffffffffffffffffffffffffffffffffff1690602001909190803590602001909190505061235e565b604051808215151515815260200191505060405180910390f35b341561090857600080fd5b61091e600480803590602001909190505061238e565b005b341561092b57600080fd5b610960600480803573ffffffffffffffffffffffffffffffffffffffff169060200190919080359060200190919050506123f4565b604051808215151515815260200191505060405180910390f35b341561098557600080fd5b6109d0600480803573ffffffffffffffffffffffffffffffffffffffff1690602001909190803573ffffffffffffffffffffffffffffffffffffffff16906020019091905050612424565b6040518082815260200191505060405180910390f35b34156109f157600080fd5b610a1d600480803573ffffffffffffffffffffffffffffffffffffffff169060200190919050506124ab565b6040518082815260200191505060405180910390f35b3415610a3e57600080fd5b610a6a600480803573ffffffffffffffffffffffffffffffffffffffff16906020019091905050612516565b60405180848152602001838152602001828152602001935050505060405180910390f35b3415610a9957600080fd5b610ac5600480803573ffffffffffffffffffffffffffffffffffffffff1690602001909190505061262d565b005b3415610ad257600080fd5b610b07600480803573ffffffffffffffffffffffffffffffffffffffff16906020019091908035906020019091905050612785565b604051808215151515815260200191505060405180910390f35b600360149054906101000a900460ff1681565b60048054600181600116156101000203166002900480601f016020809104026020016040519081016040528092919081815260200182805460018160011615610100020316600290048015610bca5780601f10610b9f57610100808354040283529160200191610bca565b820191906000526020600020905b815481529060010190602001808311610bad57829003601f168201915b505050505081565b6000600360159054906101000a900460ff16151515610bf057600080fd5b610bfa838361293b565b905092915050565b60075481565b60005481565b600080600080600080925060009150600090505b60208160ff161015610d11576000600a60008973ffffffffffffffffffffffffffffffffffffffff1673ffffffffffffffffffffffffffffffffffffffff1681526020019081526020016000206000018260ff16602081101515610c8257fe5b60020201600001541115610d0457828060010193505085600a60008973ffffffffffffffffffffffffffffffffffffffff1673ffffffffffffffffffffffffffffffffffffffff1681526020019081526020016000206000018260ff16602081101515610ceb57fe5b6002020160010154111515610d035781806001019250505b5b8080600101915050610c22565b8282945094505050509250929050565b6000600360159054906101000a900460ff16151515610d3f57600080fd5b610d4a848484612a2d565b90509392505050565b6000806000808490505b60208160ff161015610e98576000600a60008873ffffffffffffffffffffffffffffffffffffffff1673ffffffffffffffffffffffffffffffffffffffff1681526020019081526020016000206000018260ff16602081101515610dbd57fe5b60020201600001541115610e8b57600a60008773ffffffffffffffffffffffffffffffffffffffff1673ffffffffffffffffffffffffffffffffffffffff1681526020019081526020016000206000018160ff16602081101515610e1d57fe5b60020201600001549350600a60008773ffffffffffffffffffffffffffffffffffffffff1673ffffffffffffffffffffffffffffffffffffffff1681526020019081526020016000206000018160ff16602081101515610e7957fe5b60020201600101549250809150610e98565b8080600101915050610d5d565b509250925092565b600660009054906101000a900460ff1681565b600360009054906101000a900473ffffffffffffffffffffffffffffffffffffffff1673ffffffffffffffffffffffffffffffffffffffff163373ffffffffffffffffffffffffffffffffffffffff16141515610f0f57600080fd5b600360159054906101000a900460ff161515610f2a57600080fd5b6000600360156101000a81548160ff0219169083151502179055507f7805862f689e2f13df9f062ff482ad3ad112aca9e0847911ed832e158c525b3360405160405180910390a1565b6000600360009054906101000a900473ffffffffffffffffffffffffffffffffffffffff1673ffffffffffffffffffffffffffffffffffffffff163373ffffffffffffffffffffffffffffffffffffffff16141515610fd157600080fd5b600360149054906101000a900460ff16151515610fed57600080fd5b61100282600054612d1990919063ffffffff16565b60008190555061105a82600160008673ffffffffffffffffffffffffffffffffffffffff1673ffffffffffffffffffffffffffffffffffffffff16815260200190815260200160002054612d1990919063ffffffff16565b600160008573ffffffffffffffffffffffffffffffffffffffff1673ffffffffffffffffffffffffffffffffffffffff168152602001908152602001600020819055508273ffffffffffffffffffffffffffffffffffffffff167f0f6798a560793a54c3bcfe86a93cde1e73087d944c0ea20544137d4121396885836040518082815260200191505060405180910390a28273ffffffffffffffffffffffffffffffffffffffff1660007fddf252ad1be2c89b69c2b068fc378daa952ba7f163c4a11628f55a4df523b3ef846040518082815260200191505060405180910390a36001905092915050565b600081600160003373ffffffffffffffffffffffffffffffffffffffff1673ffffffffffffffffffffffffffffffffffffffff168152602001908152602001600020541015151561119257fe5b6111e482600160003373ffffffffffffffffffffffffffffffffffffffff1673ffffffffffffffffffffffffffffffffffffffff16815260200190815260200160002054612d3790919063ffffffff16565b600160003373ffffffffffffffffffffffffffffffffffffffff1673ffffffffffffffffffffffffffffffffffffffff1681526020019081526020016000208190555061129b82600960003373ffffffffffffffffffffffffffffffffffffffff1673ffffffffffffffffffffffffffffffffffffffff168152602001908152602001600020600080600281111561127857fe5b60ff1660ff16815260200190815260200160002054612d1990919063ffffffff16565b600960003373ffffffffffffffffffffffffffffffffffffffff1673ffffffffffffffffffffffffffffffffffffffff16815260200190815260200160002060008060028111156112e857fe5b60ff1660ff1681526020019081526020016000208190555060003373ffffffffffffffffffffffffffffffffffffffff167fddf252ad1be2c89b69c2b068fc378daa952ba7f163c4a11628f55a4df523b3ef846040518082815260200191505060405180910390a37f0f30aa5a186db94018a20857f8cbe6f1156cb35de19b2f988e78733e44f6590f33600084604051808473ffffffffffffffffffffffffffffffffffffffff1673ffffffffffffffffffffffffffffffffffffffff1681526020018360028111156113b757fe5b60ff168152602001828152602001935050505060405180910390a160019050919050565b600360159054906101000a900460ff1681565b60008060008090505b60208160ff1610156117e95742600a60003373ffffffffffffffffffffffffffffffffffffffff1673ffffffffffffffffffffffffffffffffffffffff1681526020019081526020016000206000018260ff1660208110151561145657fe5b60020201600101541080156114c457506000600a60003373ffffffffffffffffffffffffffffffffffffffff1673ffffffffffffffffffffffffffffffffffffffff1681526020019081526020016000206000018260ff166020811015156114ba57fe5b6002020160000154115b156117dc57600a60003373ffffffffffffffffffffffffffffffffffffffff1673ffffffffffffffffffffffffffffffffffffffff1681526020019081526020016000206000018160ff1660208110151561151b57fe5b6002020160000154915061159a82600960003373ffffffffffffffffffffffffffffffffffffffff1673ffffffffffffffffffffffffffffffffffffffff16815260200190815260200160002060006001600281111561157757fe5b60ff1660ff16815260200190815260200160002054612d3790919063ffffffff16565b600960003373ffffffffffffffffffffffffffffffffffffffff1673ffffffffffffffffffffffffffffffffffffffff1681526020019081526020016000206000600160028111156115e857fe5b60ff1660ff1681526020019081526020016000208190555061165282600160003373ffffffffffffffffffffffffffffffffffffffff1673ffffffffffffffffffffffffffffffffffffffff16815260200190815260200160002054612d1990919063ffffffff16565b600160003373ffffffffffffffffffffffffffffffffffffffff1673ffffffffffffffffffffffffffffffffffffffff16815260200190815260200160002081905550600a60003373ffffffffffffffffffffffffffffffffffffffff1673ffffffffffffffffffffffffffffffffffffffff1681526020019081526020016000206000018160ff166020811015156116e757fe5b600202016000808201600090556001820160009055505080600a60003373ffffffffffffffffffffffffffffffffffffffff1673ffffffffffffffffffffffffffffffffffffffff16815260200190815260200160002060400160006101000a81548160ff021916908360ff1602179055507f0f30aa5a186db94018a20857f8cbe6f1156cb35de19b2f988e78733e44f6590f33600284604051808473ffffffffffffffffffffffffffffffffffffffff1673ffffffffffffffffffffffffffffffffffffffff1681526020018360028111156117c057fe5b60ff168152602001828152602001935050505060405180910390a15b80806001019150506113f7565b60019250505090565b6000600360159054906101000a900460ff1615151561181057600080fd5b61181a8383612d50565b905092915050565b600061182c6133b3565b6000808411151561183c57600080fd5b6020600a60003373ffffffffffffffffffffffffffffffffffffffff1673ffffffffffffffffffffffffffffffffffffffff16815260200190815260200160002060400160009054906101000a900460ff1660ff1610151561189a57fe5b61190e84600960003373ffffffffffffffffffffffffffffffffffffffff1673ffffffffffffffffffffffffffffffffffffffff16815260200190815260200160002060008060028111156118eb57fe5b60ff1660ff16815260200190815260200160002054612d3790919063ffffffff16565b600960003373ffffffffffffffffffffffffffffffffffffffff1673ffffffffffffffffffffffffffffffffffffffff168152602001908152602001600020600080600281111561195b57fe5b60ff1660ff168152602001908152602001600020819055506119e884600960003373ffffffffffffffffffffffffffffffffffffffff1673ffffffffffffffffffffffffffffffffffffffff1681526020019081526020016000206000600160028111156119c557fe5b60ff1660ff16815260200190815260200160002054612d1990919063ffffffff16565b600960003373ffffffffffffffffffffffffffffffffffffffff1673ffffffffffffffffffffffffffffffffffffffff168152602001908152602001600020600060016002811115611a3657fe5b60ff1660ff1681526020019081526020016000208190555060408051908101604052808581526020016007544201815250915081600a60003373ffffffffffffffffffffffffffffffffffffffff1673ffffffffffffffffffffffffffffffffffffffff168152602001908152602001600020600001600a60003373ffffffffffffffffffffffffffffffffffffffff1673ffffffffffffffffffffffffffffffffffffffff16815260200190815260200160002060400160009054906101000a900460ff1660ff16602081101515611b0b57fe5b600202016000820151816000015560208201518160010155905050601f600a60003373ffffffffffffffffffffffffffffffffffffffff1673ffffffffffffffffffffffffffffffffffffffff16815260200190815260200160002060400160009054906101000a900460ff1660ff161415611be2576000600a60003373ffffffffffffffffffffffffffffffffffffffff1673ffffffffffffffffffffffffffffffffffffffff16815260200190815260200160002060400160006101000a81548160ff021916908360ff160217905550611c55565b600a60003373ffffffffffffffffffffffffffffffffffffffff1673ffffffffffffffffffffffffffffffffffffffff168152602001908152602001600020604001600081819054906101000a900460ff168092919060010191906101000a81548160ff021916908360ff160217905550505b600090505b6020600a60003373ffffffffffffffffffffffffffffffffffffffff1673ffffffffffffffffffffffffffffffffffffffff16815260200190815260200160002060400160009054906101000a900460ff1660ff161015611de6576000600a60003373ffffffffffffffffffffffffffffffffffffffff1673ffffffffffffffffffffffffffffffffffffffff168152602001908152602001600020600001600a60003373ffffffffffffffffffffffffffffffffffffffff1673ffffffffffffffffffffffffffffffffffffffff16815260200190815260200160002060400160009054906101000a900460ff1660ff16602081101515611d5857fe5b60020201600101541415611d6f5760019050611de6565b600a60003373ffffffffffffffffffffffffffffffffffffffff1673ffffffffffffffffffffffffffffffffffffffff168152602001908152602001600020604001600081819054906101000a900460ff168092919060010191906101000a81548160ff021916908360ff16021790555050611c5a565b7f0f30aa5a186db94018a20857f8cbe6f1156cb35de19b2f988e78733e44f6590f33600186604051808473ffffffffffffffffffffffffffffffffffffffff1673ffffffffffffffffffffffffffffffffffffffff168152602001836002811115611e4d57fe5b60ff168152602001828152602001935050505060405180910390a1600192505050919050565b6000600960008373ffffffffffffffffffffffffffffffffffffffff1673ffffffffffffffffffffffffffffffffffffffff168152602001908152602001600020600060016002811115611ec357fe5b60ff1660ff168152602001908152602001600020549050919050565b6000600160008373ffffffffffffffffffffffffffffffffffffffff1673ffffffffffffffffffffffffffffffffffffffff168152602001908152602001600020549050919050565b6000600360009054906101000a900473ffffffffffffffffffffffffffffffffffffffff1673ffffffffffffffffffffffffffffffffffffffff163373ffffffffffffffffffffffffffffffffffffffff16141515611f8657600080fd5b6001600360146101000a81548160ff0219169083151502179055507fae5184fba832cb2b1f702aca6117b8d265eaf03ad33eb133f19dde0f5920fa0860405160405180910390a16001905090565b600360009054906101000a900473ffffffffffffffffffffffffffffffffffffffff1673ffffffffffffffffffffffffffffffffffffffff163373ffffffffffffffffffffffffffffffffffffffff1614151561203057600080fd5b600360159054906101000a900460ff1615151561204c57600080fd5b6001600360156101000a81548160ff0219169083151502179055507f6985a02210a168e66602d3235cb6db0e70f92b3ba4d376a33c0f3d9434bff62560405160405180910390a1565b6000808311806120a55750600034115b15156120b057600080fd5b60008311156120cf576120c3848461235e565b15156120ce57600080fd5b5b6000341115612119578373ffffffffffffffffffffffffffffffffffffffff166108fc349081150290604051600060405180830381858888f19350505050151561211857600080fd5b5b8373ffffffffffffffffffffffffffffffffffffffff163373ffffffffffffffffffffffffffffffffffffffff167ff0867503c5147c27b10a8e12f7c0ca20f597dc2174d3a6b51a25cb7c5191460a8534866040518084815260200183815260200180602001828103825283818151815260200191508051906020019080838360005b838110156121b757808201518184015260208101905061219c565b50505050905090810190601f1680156121e45780820380516001836020036101000a031916815260200191505b5094505050505060405180910390a39392505050565b600360009054906101000a900473ffffffffffffffffffffffffffffffffffffffff1681565b600360009054906101000a900473ffffffffffffffffffffffffffffffffffffffff1673ffffffffffffffffffffffffffffffffffffffff163373ffffffffffffffffffffffffffffffffffffffff1614151561227c57600080fd5b80600860006101000a81548173ffffffffffffffffffffffffffffffffffffffff021916908373ffffffffffffffffffffffffffffffffffffffff16021790555050565b60058054600181600116156101000203166002900480601f0160208091040260200160405190810160405280929190818152602001828054600181600116156101000203166002900480156123565780601f1061232b57610100808354040283529160200191612356565b820191906000526020600020905b81548152906001019060200180831161233957829003601f168201915b505050505081565b6000600360159054906101000a900460ff1615151561237c57600080fd5b6123868383612fe1565b905092915050565b600360009054906101000a900473ffffffffffffffffffffffffffffffffffffffff1673ffffffffffffffffffffffffffffffffffffffff163373ffffffffffffffffffffffffffffffffffffffff161415156123ea57600080fd5b8060078190555050565b6000600360159054906101000a900460ff1615151561241257600080fd5b61241c83836131b7565b905092915050565b6000600260008473ffffffffffffffffffffffffffffffffffffffff1673ffffffffffffffffffffffffffffffffffffffff16815260200190815260200160002060008373ffffffffffffffffffffffffffffffffffffffff1673ffffffffffffffffffffffffffffffffffffffff16815260200190815260200160002054905092915050565b6000600960008373ffffffffffffffffffffffffffffffffffffffff1673ffffffffffffffffffffffffffffffffffffffff16815260200190815260200160002060008060028111156124fa57fe5b60ff1660ff168152602001908152602001600020549050919050565b6000806000600160008573ffffffffffffffffffffffffffffffffffffffff1673ffffffffffffffffffffffffffffffffffffffff168152602001908152602001600020549250600960008573ffffffffffffffffffffffffffffffffffffffff1673ffffffffffffffffffffffffffffffffffffffff16815260200190815260200160002060008060028111156125aa57fe5b60ff1660ff168152602001908152602001600020549150600960008573ffffffffffffffffffffffffffffffffffffffff1673ffffffffffffffffffffffffffffffffffffffff16815260200190815260200160002060006001600281111561260f57fe5b60ff1660ff1681526020019081526020016000205490509193909250565b600360009054906101000a900473ffffffffffffffffffffffffffffffffffffffff1673ffffffffffffffffffffffffffffffffffffffff163373ffffffffffffffffffffffffffffffffffffffff1614151561268957600080fd5b600073ffffffffffffffffffffffffffffffffffffffff168173ffffffffffffffffffffffffffffffffffffffff16141515156126c557600080fd5b8073ffffffffffffffffffffffffffffffffffffffff16600360009054906101000a900473ffffffffffffffffffffffffffffffffffffffff1673ffffffffffffffffffffffffffffffffffffffff167f8be0079c531659141344cd1fd0a4f28419497f9722a3daafe3b4186f6b6457e060405160405180910390a380600360006101000a81548173ffffffffffffffffffffffffffffffffffffffff021916908373ffffffffffffffffffffffffffffffffffffffff16021790555050565b6000600860009054906101000a900473ffffffffffffffffffffffffffffffffffffffff1673ffffffffffffffffffffffffffffffffffffffff163373ffffffffffffffffffffffffffffffffffffffff161415156127e357600080fd5b6127f882600054612d1990919063ffffffff16565b60008190555061285082600160008673ffffffffffffffffffffffffffffffffffffffff1673ffffffffffffffffffffffffffffffffffffffff16815260200190815260200160002054612d1990919063ffffffff16565b600160008573ffffffffffffffffffffffffffffffffffffffff1673ffffffffffffffffffffffffffffffffffffffff168152602001908152602001600020819055508273ffffffffffffffffffffffffffffffffffffffff167f0f6798a560793a54c3bcfe86a93cde1e73087d944c0ea20544137d4121396885836040518082815260200191505060405180910390a28273ffffffffffffffffffffffffffffffffffffffff1660007fddf252ad1be2c89b69c2b068fc378daa952ba7f163c4a11628f55a4df523b3ef846040518082815260200191505060405180910390a36001905092915050565b600081600260003373ffffffffffffffffffffffffffffffffffffffff1673ffffffffffffffffffffffffffffffffffffffff16815260200190815260200160002060008573ffffffffffffffffffffffffffffffffffffffff1673ffffffffffffffffffffffffffffffffffffffff168152602001908152602001600020819055508273ffffffffffffffffffffffffffffffffffffffff163373ffffffffffffffffffffffffffffffffffffffff167f8c5be1e5ebec7d5bd14f71427d1e84f3dd0314c0f7b2291e5b200ac8c7c3b925846040518082815260200191505060405180910390a36001905092915050565b600080600073ffffffffffffffffffffffffffffffffffffffff168473ffffffffffffffffffffffffffffffffffffffff1614151515612a6c57600080fd5b600260008673ffffffffffffffffffffffffffffffffffffffff1673ffffffffffffffffffffffffffffffffffffffff16815260200190815260200160002060003373ffffffffffffffffffffffffffffffffffffffff1673ffffffffffffffffffffffffffffffffffffffff168152602001908152602001600020549050612b3d83600160008873ffffffffffffffffffffffffffffffffffffffff1673ffffffffffffffffffffffffffffffffffffffff16815260200190815260200160002054612d3790919063ffffffff16565b600160008773ffffffffffffffffffffffffffffffffffffffff1673ffffffffffffffffffffffffffffffffffffffff16815260200190815260200160002081905550612bd283600160008773ffffffffffffffffffffffffffffffffffffffff1673ffffffffffffffffffffffffffffffffffffffff16815260200190815260200160002054612d1990919063ffffffff16565b600160008673ffffffffffffffffffffffffffffffffffffffff1673ffffffffffffffffffffffffffffffffffffffff16815260200190815260200160002081905550612c288382612d3790919063ffffffff16565b600260008773ffffffffffffffffffffffffffffffffffffffff1673ffffffffffffffffffffffffffffffffffffffff16815260200190815260200160002060003373ffffffffffffffffffffffffffffffffffffffff1673ffffffffffffffffffffffffffffffffffffffff168152602001908152602001600020819055508373ffffffffffffffffffffffffffffffffffffffff168573ffffffffffffffffffffffffffffffffffffffff167fddf252ad1be2c89b69c2b068fc378daa952ba7f163c4a11628f55a4df523b3ef856040518082815260200191505060405180910390a360019150509392505050565b6000808284019050838110151515612d2d57fe5b8091505092915050565b6000828211151515612d4557fe5b818303905092915050565b600080600260003373ffffffffffffffffffffffffffffffffffffffff1673ffffffffffffffffffffffffffffffffffffffff16815260200190815260200160002060008573ffffffffffffffffffffffffffffffffffffffff1673ffffffffffffffffffffffffffffffffffffffff16815260200190815260200160002054905080831115612e61576000600260003373ffffffffffffffffffffffffffffffffffffffff1673ffffffffffffffffffffffffffffffffffffffff16815260200190815260200160002060008673ffffffffffffffffffffffffffffffffffffffff1673ffffffffffffffffffffffffffffffffffffffff16815260200190815260200160002081905550612ef5565b612e748382612d3790919063ffffffff16565b600260003373ffffffffffffffffffffffffffffffffffffffff1673ffffffffffffffffffffffffffffffffffffffff16815260200190815260200160002060008673ffffffffffffffffffffffffffffffffffffffff1673ffffffffffffffffffffffffffffffffffffffff168152602001908152602001600020819055505b8373ffffffffffffffffffffffffffffffffffffffff163373ffffffffffffffffffffffffffffffffffffffff167f8c5be1e5ebec7d5bd14f71427d1e84f3dd0314c0f7b2291e5b200ac8c7c3b925600260003373ffffffffffffffffffffffffffffffffffffffff1673ffffffffffffffffffffffffffffffffffffffff16815260200190815260200160002060008873ffffffffffffffffffffffffffffffffffffffff1673ffffffffffffffffffffffffffffffffffffffff168152602001908152602001600020546040518082815260200191505060405180910390a3600191505092915050565b60008073ffffffffffffffffffffffffffffffffffffffff168373ffffffffffffffffffffffffffffffffffffffff161415151561301e57600080fd5b61307082600160003373ffffffffffffffffffffffffffffffffffffffff1673ffffffffffffffffffffffffffffffffffffffff16815260200190815260200160002054612d3790919063ffffffff16565b600160003373ffffffffffffffffffffffffffffffffffffffff1673ffffffffffffffffffffffffffffffffffffffff1681526020019081526020016000208190555061310582600160008673ffffffffffffffffffffffffffffffffffffffff1673ffffffffffffffffffffffffffffffffffffffff16815260200190815260200160002054612d1990919063ffffffff16565b600160008573ffffffffffffffffffffffffffffffffffffffff1673ffffffffffffffffffffffffffffffffffffffff168152602001908152602001600020819055508273ffffffffffffffffffffffffffffffffffffffff163373ffffffffffffffffffffffffffffffffffffffff167fddf252ad1be2c89b69c2b068fc378daa952ba7f163c4a11628f55a4df523b3ef846040518082815260200191505060405180910390a36001905092915050565b600061324882600260003373ffffffffffffffffffffffffffffffffffffffff1673ffffffffffffffffffffffffffffffffffffffff16815260200190815260200160002060008673ffffffffffffffffffffffffffffffffffffffff1673ffffffffffffffffffffffffffffffffffffffff16815260200190815260200160002054612d1990919063ffffffff16565b600260003373ffffffffffffffffffffffffffffffffffffffff1673ffffffffffffffffffffffffffffffffffffffff16815260200190815260200160002060008573ffffffffffffffffffffffffffffffffffffffff1673ffffffffffffffffffffffffffffffffffffffff168152602001908152602001600020819055508273ffffffffffffffffffffffffffffffffffffffff163373ffffffffffffffffffffffffffffffffffffffff167f8c5be1e5ebec7d5bd14f71427d1e84f3dd0314c0f7b2291e5b200ac8c7c3b925600260003373ffffffffffffffffffffffffffffffffffffffff1673ffffffffffffffffffffffffffffffffffffffff16815260200190815260200160002060008773ffffffffffffffffffffffffffffffffffffffff1673ffffffffffffffffffffffffffffffffffffffff168152602001908152602001600020546040518082815260200191505060405180910390a36001905092915050565b6040805190810160405280600081526020016000815250905600a165627a7a723058202927cda0c978a1722fe14fd0927f2823b8cff454758aa580acf3cb25b70bca250029",
  "source": "pragma solidity ^0.4.0;\n\n\nimport 'zeppelin-solidity/contracts/ownership/Ownable.sol';\nimport 'zeppelin-solidity/contracts/crowdsale/CappedCrowdsale.sol';\nimport 'zeppelin-solidity/contracts/math/SafeMath.sol';\nimport 'zeppelin-solidity/contracts/token/MintableToken.sol';\nimport './AETH.sol';\n\n\ncontract OngoingSale is CappedCrowdsale, Ownable {\n\n    bool public isFinalized = false;\n\n    event Finalized();\n\n    function OngoingSale(uint256 _startBlock, uint256 _endBlock, uint256 _rate, address _wallet, uint256 _cap)\n    public\n    Crowdsale(_startBlock, _endBlock, _rate, _wallet)\n    CappedCrowdsale(_cap)\n    {\n\n    }\n\n    /**\n    * @dev overwrites default method with AETH token deployment\n    */\n    function createTokenContract()\n    internal\n    returns (MintableToken)\n    {\n        return new AETH();\n    }\n\n    // mark crowdsale as finished\n    function finalize()\n    public\n    onlyOwner\n    {\n        require(!isFinalized);\n        require(hasEnded());\n\n        finalization();\n        Finalized();\n\n        isFinalized = true;\n        token.transferOwnership(msg.sender);\n    }\n\n\n    // mark token minting as finished and prevent tokens to be minted\n    function finalization()\n    internal\n    {\n        token.finishMinting();\n    }\n}\n",
  "sourcePath": "/home/kenshyx/projects/contracts.alpha/contracts/token/OngoingSale.sol",
  "compiler": {
    "name": "solc",
    "version": "0.4.18+commit.9cf6e910.Emscripten.clang"
  },
  "schemaVersion": "1.0.1",
  "updatedAt": "2017-11-15T18:35:00.623Z"
}