{
  "contractName": "ProfileRegistrar",
  "abi": [
    {
      "constant": false,
      "inputs": [
        {
          "name": "token",
          "type": "address"
        }
      ],
      "name": "reclaimToken",
      "outputs": [],
      "payable": false,
      "stateMutability": "nonpayable",
      "type": "function"
    },
    {
      "constant": false,
      "inputs": [
        {
          "name": "_subNode",
          "type": "bytes32"
        },
        {
          "name": "_enableDonations",
          "type": "bool"
        },
        {
          "name": "_hash",
          "type": "bytes32"
        },
        {
          "name": "_fn",
          "type": "uint8"
        },
        {
          "name": "_digestSize",
          "type": "uint8"
        }
      ],
      "name": "register",
      "outputs": [
        {
          "name": "",
          "type": "bool"
        }
      ],
      "payable": false,
      "stateMutability": "nonpayable",
      "type": "function"
    },
    {
      "constant": true,
      "inputs": [],
      "name": "ens",
      "outputs": [
        {
          "name": "",
          "type": "address"
        }
      ],
      "payable": false,
      "stateMutability": "view",
      "type": "function"
    },
    {
      "constant": false,
      "inputs": [
        {
          "name": "_resolver",
          "type": "address"
        }
      ],
      "name": "setResolver",
      "outputs": [],
      "payable": false,
      "stateMutability": "nonpayable",
      "type": "function"
    },
    {
      "constant": true,
      "inputs": [],
      "name": "version",
      "outputs": [
        {
          "name": "",
          "type": "uint256"
        }
      ],
      "payable": false,
      "stateMutability": "view",
      "type": "function"
    },
    {
      "constant": true,
      "inputs": [
        {
          "name": "_subNode",
          "type": "bytes32"
        }
      ],
      "name": "check_format",
      "outputs": [
        {
          "name": "",
          "type": "bool"
        }
      ],
      "payable": false,
      "stateMutability": "pure",
      "type": "function"
    },
    {
      "constant": false,
      "inputs": [
        {
          "name": "_ens",
          "type": "address"
        }
      ],
      "name": "setEns",
      "outputs": [
        {
          "name": "",
          "type": "bool"
        }
      ],
      "payable": false,
      "stateMutability": "nonpayable",
      "type": "function"
    },
    {
      "constant": false,
      "inputs": [],
      "name": "destroy",
      "outputs": [],
      "payable": false,
      "stateMutability": "nonpayable",
      "type": "function"
    },
    {
      "constant": true,
      "inputs": [],
      "name": "owner",
      "outputs": [
        {
          "name": "",
          "type": "address"
        }
      ],
      "payable": false,
      "stateMutability": "view",
      "type": "function"
    },
    {
      "constant": true,
      "inputs": [],
      "name": "moduleName",
      "outputs": [
        {
          "name": "",
          "type": "string"
        }
      ],
      "payable": false,
      "stateMutability": "view",
      "type": "function"
    },
    {
      "constant": false,
      "inputs": [],
      "name": "reclaimEther",
      "outputs": [],
      "payable": false,
      "stateMutability": "nonpayable",
      "type": "function"
    },
    {
      "constant": false,
      "inputs": [
        {
          "name": "_newOwner",
          "type": "address"
        }
      ],
      "name": "changeRootOwner",
      "outputs": [
        {
          "name": "",
          "type": "bool"
        }
      ],
      "payable": false,
      "stateMutability": "nonpayable",
      "type": "function"
    },
    {
      "constant": false,
      "inputs": [
        {
          "name": "from_",
          "type": "address"
        },
        {
          "name": "value_",
          "type": "uint256"
        },
        {
          "name": "data_",
          "type": "bytes"
        }
      ],
      "name": "tokenFallback",
      "outputs": [],
      "payable": false,
      "stateMutability": "nonpayable",
      "type": "function"
    },
    {
      "constant": false,
      "inputs": [
        {
          "name": "_newRoot",
          "type": "bytes32"
        }
      ],
      "name": "setRootNode",
      "outputs": [
        {
          "name": "",
          "type": "bool"
        }
      ],
      "payable": false,
      "stateMutability": "nonpayable",
      "type": "function"
    },
    {
      "constant": true,
      "inputs": [
        {
          "name": "_subNode",
          "type": "bytes32"
        }
      ],
      "name": "hash",
      "outputs": [
        {
          "name": "nameHash",
          "type": "bytes32"
        }
      ],
      "payable": false,
      "stateMutability": "view",
      "type": "function"
    },
    {
      "constant": false,
      "inputs": [
        {
          "name": "_subNode",
          "type": "bytes32"
        },
        {
          "name": "_newOwner",
          "type": "address"
        }
      ],
      "name": "adminSetSubNode",
      "outputs": [
        {
          "name": "",
          "type": "bool"
        }
      ],
      "payable": false,
      "stateMutability": "nonpayable",
      "type": "function"
    },
    {
      "constant": false,
      "inputs": [
        {
          "name": "newOwner",
          "type": "address"
        }
      ],
      "name": "transferOwnership",
      "outputs": [],
      "payable": false,
      "stateMutability": "nonpayable",
      "type": "function"
    },
    {
      "constant": true,
      "inputs": [],
      "name": "rootNode",
      "outputs": [
        {
          "name": "",
          "type": "bytes32"
        }
      ],
      "payable": false,
      "stateMutability": "view",
      "type": "function"
    },
    {
      "inputs": [
        {
          "name": "_ens",
          "type": "address"
        },
        {
          "name": "_rootNode",
          "type": "bytes32"
        }
      ],
      "payable": false,
      "stateMutability": "nonpayable",
      "type": "constructor"
    },
    {
      "payable": false,
      "stateMutability": "nonpayable",
      "type": "fallback"
    },
    {
      "anonymous": false,
      "inputs": [
        {
          "indexed": true,
          "name": "label",
          "type": "bytes32"
        },
        {
          "indexed": true,
          "name": "version",
          "type": "uint256"
        }
      ],
      "name": "Register",
      "type": "event"
    },
    {
      "anonymous": false,
      "inputs": [
        {
          "indexed": true,
          "name": "previousOwner",
          "type": "address"
        },
        {
          "indexed": true,
          "name": "newOwner",
          "type": "address"
        }
      ],
      "name": "OwnershipTransferred",
      "type": "event"
    }
  ],
  "bytecode": "0x606060405234156200001057600080fd5b60405160408062001c50833981016040528080519060200190919080519060200190919050506040805190810160405280600881526020017f70726f66696c65730000000000000000000000000000000000000000000000008152506001336000806101000a81548173ffffffffffffffffffffffffffffffffffffffff021916908373ffffffffffffffffffffffffffffffffffffffff160217905550600034141515620000be57600080fd5b600081111515620000ce57600080fd5b8160029080519060200190620000e692919062000144565b5080600181905550505081600360006101000a81548173ffffffffffffffffffffffffffffffffffffffff021916908373ffffffffffffffffffffffffffffffffffffffff16021790555080600581600019169055505050620001f3565b828054600181600116156101000203166002900490600052602060002090601f016020900481019282601f106200018757805160ff1916838001178555620001b8565b82800160010185558215620001b8579182015b82811115620001b75782518255916020019190600101906200019a565b5b509050620001c79190620001cb565b5090565b620001f091905b80821115620001ec576000816000905550600101620001d2565b5090565b90565b611a4d80620002036000396000f3006060604052600436106100fc576000357c0100000000000000000000000000000000000000000000000000000000900463ffffffff16806317ffc320146101095780633a4217ba146101425780633f15457f146101ad5780634e543b26146101d657806354fd4d501461020f5780636b4316db146102385780636e8f2be01461027357806383197ef0146102c05780638da5cb5b146102d557806393f0899a146102fe5780639f727c2714610327578063b5f5aad21461033c578063c0ee0b8a14610389578063d20ab1d7146103df578063d8389dc51461041a578063e3650b3014610455578063f2fde38b146104af578063faff50a8146104e8575b341561010757600080fd5b005b341561011457600080fd5b610140600480803573ffffffffffffffffffffffffffffffffffffffff16906020019091905050610511565b005b341561014d57600080fd5b61019760048080356000191690602001909190803515159060200190919080356000191690602001909190803560ff1690602001909190803560ff16906020019091905050610652565b6040516101a4919061174e565b60405180910390f35b34156101b857600080fd5b6101c0610ae0565b6040516101cd91906118ce565b60405180910390f35b34156101e157600080fd5b61020d600480803573ffffffffffffffffffffffffffffffffffffffff16906020019091905050610b06565b005b341561021a57600080fd5b610222610ba5565b60405161022f919061190b565b60405180910390f35b341561024357600080fd5b61025d600480803560001916906020019091905050610bab565b60405161026a919061174e565b60405180910390f35b341561027e57600080fd5b6102aa600480803573ffffffffffffffffffffffffffffffffffffffff16906020019091905050610e74565b6040516102b7919061174e565b60405180910390f35b34156102cb57600080fd5b6102d3610f23565b005b34156102e057600080fd5b6102e8610fb8565b6040516102f5919061170a565b60405180910390f35b341561030957600080fd5b610311610fdd565b60405161031e91906118e9565b60405180910390f35b341561033257600080fd5b61033a61107b565b005b341561034757600080fd5b610373600480803573ffffffffffffffffffffffffffffffffffffffff1690602001909190505061114d565b604051610380919061174e565b60405180910390f35b341561039457600080fd5b6103dd600480803573ffffffffffffffffffffffffffffffffffffffff169060200190919080359060200190919080359060200190820180359060200191909192905050611263565b005b34156103ea57600080fd5b610404600480803560001916906020019091905050611268565b604051610411919061174e565b60405180910390f35b341561042557600080fd5b61043f6004808035600019169060200190919050506112e1565b60405161044c9190611769565b60405180910390f35b341561046057600080fd5b61049960048080356000191690602001909190803573ffffffffffffffffffffffffffffffffffffffff1690602001909190505061131a565b6040516104a6919061174e565b60405180910390f35b34156104ba57600080fd5b6104e6600480803573ffffffffffffffffffffffffffffffffffffffff1690602001909190505061143f565b005b34156104f357600080fd5b6104fb611594565b6040516105089190611769565b60405180910390f35b60008060009054906101000a900473ffffffffffffffffffffffffffffffffffffffff1673ffffffffffffffffffffffffffffffffffffffff163373ffffffffffffffffffffffffffffffffffffffff1614151561056e57600080fd5b8173ffffffffffffffffffffffffffffffffffffffff166370a08231306000604051602001526040518263ffffffff167c01000000000000000000000000000000000000000000000000000000000281526004016105cc91906118b3565b602060405180830381600087803b15156105e557600080fd5b6102c65a03f115156105f657600080fd5b50505060405180519050905061064e6000809054906101000a900473ffffffffffffffffffffffffffffffffffffffff16828473ffffffffffffffffffffffffffffffffffffffff1661159a9092919063ffffffff16565b5050565b6000856000806005548360405180836000191660001916815260200182600019166000191681526020019250505060405180910390209150600360009054906101000a900473ffffffffffffffffffffffffffffffffffffffff1673ffffffffffffffffffffffffffffffffffffffff166302571be3836000604051602001526040518263ffffffff167c010000000000000000000000000000000000000000000000000000000002815260040161070a9190611769565b602060405180830381600087803b151561072357600080fd5b6102c65a03f1151561073457600080fd5b50505060405180519050905060008173ffffffffffffffffffffffffffffffffffffffff16148061079057503373ffffffffffffffffffffffffffffffffffffffff168173ffffffffffffffffffffffffffffffffffffffff16145b151561079b57600080fd5b6107a489610bab565b15156107af57600080fd5b600360009054906101000a900473ffffffffffffffffffffffffffffffffffffffff1673ffffffffffffffffffffffffffffffffffffffff166306ab59236005548b306040518463ffffffff167c010000000000000000000000000000000000000000000000000000000002815260040161082c93929190611853565b600060405180830381600087803b151561084557600080fd5b6102c65a03f1151561085657600080fd5b505050600360009054906101000a900473ffffffffffffffffffffffffffffffffffffffff1673ffffffffffffffffffffffffffffffffffffffff16631896f70a6108a08b6112e1565b600460009054906101000a900473ffffffffffffffffffffffffffffffffffffffff166040518363ffffffff167c01000000000000000000000000000000000000000000000000000000000281526004016108fc92919061188a565b600060405180830381600087803b151561091557600080fd5b6102c65a03f1151561092657600080fd5b505050600360009054906101000a900473ffffffffffffffffffffffffffffffffffffffff1673ffffffffffffffffffffffffffffffffffffffff166306ab59236005548b336040518463ffffffff167c01000000000000000000000000000000000000000000000000000000000281526004016109a6939291906117ad565b600060405180830381600087803b15156109bf57600080fd5b6102c65a03f115156109d057600080fd5b505050600460009054906101000a900473ffffffffffffffffffffffffffffffffffffffff1673ffffffffffffffffffffffffffffffffffffffff166317a65f4c8a610a1b8c6112e1565b338c8c8c8c6000604051602001526040518863ffffffff167c0100000000000000000000000000000000000000000000000000000000028152600401610a6797969594939291906117e4565b602060405180830381600087803b1515610a8057600080fd5b6102c65a03f11515610a9157600080fd5b505050604051805190505060015489600019167fd5fa0e9a716b3ec4895a48223ad309e2d3fa5e27f04d8dc9b3c33cc738a50eb060405160405180910390a36001935050505095945050505050565b600360009054906101000a900473ffffffffffffffffffffffffffffffffffffffff1681565b6000809054906101000a900473ffffffffffffffffffffffffffffffffffffffff1673ffffffffffffffffffffffffffffffffffffffff163373ffffffffffffffffffffffffffffffffffffffff16141515610b6157600080fd5b80600460006101000a81548173ffffffffffffffffffffffffffffffffffffffff021916908373ffffffffffffffffffffffffffffffffffffffff16021790555050565b60015481565b600080600090505b602060ff168160ff161015610e645760007f010000000000000000000000000000000000000000000000000000000000000002838260ff16602081101515610bf757fe5b1a7f0100000000000000000000000000000000000000000000000000000000000000027effffffffffffffffffffffffffffffffffffffffffffffffffffffffffffff19161415610c4757610e64565b607a7f010000000000000000000000000000000000000000000000000000000000000002838260ff16602081101515610c7c57fe5b1a7f0100000000000000000000000000000000000000000000000000000000000000027effffffffffffffffffffffffffffffffffffffffffffffffffffffffffffff19161180610dc7575060617f010000000000000000000000000000000000000000000000000000000000000002838260ff16602081101515610cfd57fe5b1a7f0100000000000000000000000000000000000000000000000000000000000000027effffffffffffffffffffffffffffffffffffffffffffffffffffffffffffff1916108015610dc6575060397f010000000000000000000000000000000000000000000000000000000000000002838260ff16602081101515610d7f57fe5b1a7f0100000000000000000000000000000000000000000000000000000000000000027effffffffffffffffffffffffffffffffffffffffffffffffffffffffffffff1916115b5b80610e49575060307f010000000000000000000000000000000000000000000000000000000000000002838260ff16602081101515610e0257fe5b1a7f0100000000000000000000000000000000000000000000000000000000000000027effffffffffffffffffffffffffffffffffffffffffffffffffffffffffffff1916105b15610e575760009150610e6e565b8080600101915050610bb3565b60018160ff161191505b50919050565b60008060009054906101000a900473ffffffffffffffffffffffffffffffffffffffff1673ffffffffffffffffffffffffffffffffffffffff163373ffffffffffffffffffffffffffffffffffffffff16141515610ed157600080fd5b81600360006101000a81548173ffffffffffffffffffffffffffffffffffffffff021916908373ffffffffffffffffffffffffffffffffffffffff160217905550610f1a61163b565b60019050919050565b6000809054906101000a900473ffffffffffffffffffffffffffffffffffffffff1673ffffffffffffffffffffffffffffffffffffffff163373ffffffffffffffffffffffffffffffffffffffff16141515610f7e57600080fd5b6000809054906101000a900473ffffffffffffffffffffffffffffffffffffffff1673ffffffffffffffffffffffffffffffffffffffff16ff5b6000809054906101000a900473ffffffffffffffffffffffffffffffffffffffff1681565b60028054600181600116156101000203166002900480601f0160208091040260200160405190810160405280929190818152602001828054600181600116156101000203166002900480156110735780601f1061104857610100808354040283529160200191611073565b820191906000526020600020905b81548152906001019060200180831161105657829003601f168201915b505050505081565b6000809054906101000a900473ffffffffffffffffffffffffffffffffffffffff1673ffffffffffffffffffffffffffffffffffffffff163373ffffffffffffffffffffffffffffffffffffffff161415156110d657600080fd5b6000809054906101000a900473ffffffffffffffffffffffffffffffffffffffff1673ffffffffffffffffffffffffffffffffffffffff166108fc3073ffffffffffffffffffffffffffffffffffffffff16319081150290604051600060405180830381858888f19350505050151561114b57fe5b565b60008060009054906101000a900473ffffffffffffffffffffffffffffffffffffffff1673ffffffffffffffffffffffffffffffffffffffff163373ffffffffffffffffffffffffffffffffffffffff161415156111aa57600080fd5b600360009054906101000a900473ffffffffffffffffffffffffffffffffffffffff1673ffffffffffffffffffffffffffffffffffffffff16635b0fc9c3600554846040518363ffffffff167c0100000000000000000000000000000000000000000000000000000000028152600401611225929190611784565b600060405180830381600087803b151561123e57600080fd5b6102c65a03f1151561124f57600080fd5b50505061125a61163b565b60019050919050565b600080fd5b60008060009054906101000a900473ffffffffffffffffffffffffffffffffffffffff1673ffffffffffffffffffffffffffffffffffffffff163373ffffffffffffffffffffffffffffffffffffffff161415156112c557600080fd5b81600581600019169055506112d861163b565b60019050919050565b60006005548260405180836000191660001916815260200182600019166000191681526020019250505060405180910390209050919050565b60008060009054906101000a900473ffffffffffffffffffffffffffffffffffffffff1673ffffffffffffffffffffffffffffffffffffffff163373ffffffffffffffffffffffffffffffffffffffff1614151561137757600080fd5b61138083610bab565b151561138b57600080fd5b600360009054906101000a900473ffffffffffffffffffffffffffffffffffffffff1673ffffffffffffffffffffffffffffffffffffffff166306ab592360055485856040518463ffffffff167c0100000000000000000000000000000000000000000000000000000000028152600401611408939291906117ad565b600060405180830381600087803b151561142157600080fd5b6102c65a03f1151561143257600080fd5b5050506001905092915050565b6000809054906101000a900473ffffffffffffffffffffffffffffffffffffffff1673ffffffffffffffffffffffffffffffffffffffff163373ffffffffffffffffffffffffffffffffffffffff1614151561149a57600080fd5b600073ffffffffffffffffffffffffffffffffffffffff168173ffffffffffffffffffffffffffffffffffffffff16141515156114d657600080fd5b8073ffffffffffffffffffffffffffffffffffffffff166000809054906101000a900473ffffffffffffffffffffffffffffffffffffffff1673ffffffffffffffffffffffffffffffffffffffff167f8be0079c531659141344cd1fd0a4f28419497f9722a3daafe3b4186f6b6457e060405160405180910390a3806000806101000a81548173ffffffffffffffffffffffffffffffffffffffff021916908373ffffffffffffffffffffffffffffffffffffffff16021790555050565b60055481565b8273ffffffffffffffffffffffffffffffffffffffff1663a9059cbb83836000604051602001526040518363ffffffff167c01000000000000000000000000000000000000000000000000000000000281526004016115fa929190611725565b602060405180830381600087803b151561161357600080fd5b6102c65a03f1151561162457600080fd5b50505060405180519050151561163657fe5b505050565b60018060008282540192505081905550565b61165681611931565b82525050565b61166581611951565b82525050565b6116748161195d565b82525050565b6116838161197e565b82525050565b61169281611990565b82525050565b6116a1816119a2565b82525050565b6116b0816119b4565b82525050565b60006116c182611926565b8084526116d58160208601602086016119c6565b6116de81611a02565b602085010191505092915050565b6116f581611967565b82525050565b61170481611971565b82525050565b600060208201905061171f600083018461164d565b92915050565b600060408201905061173a600083018561164d565b61174760208301846116ec565b9392505050565b6000602082019050611763600083018461165c565b92915050565b600060208201905061177e600083018461166b565b92915050565b6000604082019050611799600083018561166b565b6117a6602083018461164d565b9392505050565b60006060820190506117c2600083018661166b565b6117cf602083018561166b565b6117dc604083018461164d565b949350505050565b600060e0820190506117f9600083018a61166b565b611806602083018961166b565b611813604083018861164d565b611820606083018761165c565b61182d608083018661166b565b61183a60a08301856116fb565b61184760c08301846116fb565b98975050505050505050565b6000606082019050611868600083018661166b565b611875602083018561166b565b6118826040830184611698565b949350505050565b600060408201905061189f600083018561166b565b6118ac60208301846116a7565b9392505050565b60006020820190506118c8600083018461167a565b92915050565b60006020820190506118e36000830184611689565b92915050565b6000602082019050818103600083015261190381846116b6565b905092915050565b600060208201905061192060008301846116ec565b92915050565b600081519050919050565b600073ffffffffffffffffffffffffffffffffffffffff82169050919050565b60008115159050919050565b6000819050919050565b6000819050919050565b600060ff82169050919050565b600061198982611931565b9050919050565b600061199b82611931565b9050919050565b60006119ad82611931565b9050919050565b60006119bf82611931565b9050919050565b60005b838110156119e45780820151818401526020810190506119c9565b838114600081146119f4576119fb565b6000858501525b5050505050565b6000601f19601f83011690509190505600a265627a7a7230582006c480d9df69d7e886ff03305b36360c2405ff5b637531b72a93738157e95f196c6578706572696d656e74616cf50037",
  "source": "pragma solidity ^0.4.18;\npragma experimental ABIEncoderV2;\n\nimport './ProfileResolver.sol';\nimport './AkashaModule.sol';\nimport 'ens/contracts/ENS.sol';\nimport 'ens/contracts/FIFSRegistrar.sol';\n\n\n// also has Registrar functionality\ncontract ProfileRegistrar is AkashaModule {\n\n    ENS public ens;\n\n    ProfileResolver resolver;\n\n    bytes32 public rootNode;\n\n    event Register(bytes32 indexed label, uint indexed version);\n    //\n//    struct RegisterBatch {\n//        address _owner;\n//        bytes32 _subNode;\n//        bool _enableDonations;\n//        bytes32 _hash;\n//        uint8 _fn;\n//        uint8 _digestSize;\n//    }\n\n    function ProfileRegistrar(ENS _ens, bytes32 _rootNode) public AkashaModule(\"profiles\", 1)\n    {\n        ens = _ens;\n        rootNode = _rootNode;\n    }\n\n    modifier only_subNode_owner(bytes32 subNode)\n    {\n        var node = keccak256(rootNode, subNode);\n        var currentOwner = ens.owner(node);\n\n        require(currentOwner == 0 || currentOwner == msg.sender);\n        _;\n    }\n\n    // change ENS address\n    function setEns(address _ens)\n    public\n    onlyOwner\n    returns (bool)\n    {\n        ens = ENS(_ens);\n        incrementVersion();\n        return true;\n    }\n\n    function setResolver(address _resolver)\n    public\n    onlyOwner\n    {\n        resolver = ProfileResolver(_resolver);\n    }\n\n    // AKASHA users can claim a subdomain *.${rootNode}.eth\n    //    function register(bytes32 _subNode, address owner)\n    //    only_subNode_owner(_subNode)\n    //    {\n    //        require(check_format(_subNode));\n    //        ens.setSubnodeOwner(rootNode, _subNode, owner);\n    //    }\n\n    // for migration purpose only\n//    function adminRegisterBatch(RegisterBatch[32] batch)\n//    public\n//    onlyOwner\n//    returns (bool)\n//    {\n//        for (uint8 i = 0; i < batch.length; i++)\n//        {\n//            require(check_format(batch[i]._subNode));\n//\n//            ens.setSubnodeOwner(rootNode, batch[i]._subNode, this);\n//            ens.setResolver(hash(batch[i]._subNode), resolver);\n//\n//            ens.setSubnodeOwner(rootNode, batch[i]._subNode, batch[i]._owner);\n//            resolver.registerHash(batch[i]._subNode, hash(batch[i]._subNode), batch[i]._owner, batch[i]._enableDonations,\n//            batch[i]._hash, batch[i]._fn, batch[i]._digestSize);\n//\n//            Register(batch[i]._subNode, version);\n//        }\n//        return true;\n//    }\n\n    function register(bytes32 _subNode, bool _enableDonations, bytes32 _hash, uint8 _fn, uint8 _digestSize)\n    public\n    only_subNode_owner(_subNode)\n    returns (bool)\n    {\n        require(check_format(_subNode));\n\n        ens.setSubnodeOwner(rootNode, _subNode, this);\n        ens.setResolver(hash(_subNode), resolver);\n\n        ens.setSubnodeOwner(rootNode, _subNode, msg.sender);\n        resolver.registerHash(_subNode, hash(_subNode), msg.sender, _enableDonations, _hash, _fn, _digestSize);\n        Register(_subNode, version);\n        return true;\n    }\n\n    // fk squatters\n    function adminSetSubNode(bytes32 _subNode, address _newOwner)\n    public\n    onlyOwner\n    returns (bool)\n    {\n        require(check_format(_subNode));\n        ens.setSubnodeOwner(rootNode, _subNode, _newOwner);\n        return true;\n    }\n\n    // in case something goes wrong :D\n    function changeRootOwner(address _newOwner)\n    public\n    onlyOwner\n    returns (bool)\n    {\n        ens.setOwner(rootNode, _newOwner);\n        incrementVersion();\n        return true;\n    }\n\n    // change domain\n    function setRootNode(bytes32 _newRoot)\n    public\n    onlyOwner\n    returns (bool)\n    {\n        rootNode = _newRoot;\n        incrementVersion();\n        return true;\n    }\n\n    function check_format(bytes32 _subNode)\n    public\n    pure\n    returns (bool)\n    {\n        // enforce alpha first\n        //if (_subNode[0] < 58) {\n        //   return false;\n        //}\n\n        for (uint8 i = 0; i < _subNode.length; i++)\n        {\n            if (_subNode[i] == 0) break;\n\n            // ^[a-z0-9]\n            if (_subNode[i] > 122 || (_subNode[i] < 97 && _subNode[i] > 57) || _subNode[i] < 48)\n            {\n                return false;\n            }\n        }\n\n        return i > 1;\n    }\n\n    function hash(bytes32 _subNode)\n    public\n    view\n    returns (bytes32 nameHash)\n    {\n        nameHash = keccak256(rootNode, _subNode);\n    }\n}\n",
  "sourcePath": "/home/kenshyx/projects/contracts.alpha/contracts/ProfileRegistrar.sol",
  "compiler": {
    "name": "solc",
    "version": "0.4.18+commit.9cf6e910.Emscripten.clang"
  },
  "schemaVersion": "1.0.1",
  "updatedAt": "2017-12-04T15:36:46.551Z"
}