{
  "contractName": "ProfileResolver",
  "abi": [
    {
      "constant": false,
      "inputs": [
        {
          "name": "_nodeHash",
          "type": "bytes32"
        },
        {
          "name": "_hash",
          "type": "bytes32"
        },
        {
          "name": "_fn",
          "type": "uint8"
        },
        {
          "name": "_digestSize",
          "type": "uint8"
        }
      ],
      "name": "setHash",
      "outputs": [
        {
          "name": "",
          "type": "bool"
        }
      ],
      "payable": false,
      "stateMutability": "nonpayable",
      "type": "function"
    },
    {
      "constant": false,
      "inputs": [
        {
          "name": "_akashaId",
          "type": "bytes32"
        },
        {
          "name": "_nodeHash",
          "type": "bytes32"
        },
        {
          "name": "_owner",
          "type": "address"
        },
        {
          "name": "_status",
          "type": "bool"
        },
        {
          "name": "_hash",
          "type": "bytes32"
        },
        {
          "name": "_fn",
          "type": "uint8"
        },
        {
          "name": "_digestSize",
          "type": "uint8"
        }
      ],
      "name": "registerHash",
      "outputs": [
        {
          "name": "",
          "type": "uint256"
        }
      ],
      "payable": false,
      "stateMutability": "nonpayable",
      "type": "function"
    },
    {
      "constant": false,
      "inputs": [
        {
          "name": "token",
          "type": "address"
        }
      ],
      "name": "reclaimToken",
      "outputs": [],
      "payable": false,
      "stateMutability": "nonpayable",
      "type": "function"
    },
    {
      "constant": true,
      "inputs": [],
      "name": "moduleAddress",
      "outputs": [
        {
          "name": "",
          "type": "address"
        }
      ],
      "payable": false,
      "stateMutability": "view",
      "type": "function"
    },
    {
      "constant": true,
      "inputs": [
        {
          "name": "node",
          "type": "bytes32"
        }
      ],
      "name": "addr",
      "outputs": [
        {
          "name": "",
          "type": "address"
        }
      ],
      "payable": false,
      "stateMutability": "view",
      "type": "function"
    },
    {
      "constant": false,
      "inputs": [
        {
          "name": "_moduleAddress",
          "type": "address"
        }
      ],
      "name": "setModule",
      "outputs": [
        {
          "name": "",
          "type": "bool"
        }
      ],
      "payable": false,
      "stateMutability": "nonpayable",
      "type": "function"
    },
    {
      "constant": true,
      "inputs": [
        {
          "name": "_node",
          "type": "bytes32"
        }
      ],
      "name": "resolve",
      "outputs": [
        {
          "name": "_akashaId",
          "type": "bytes32"
        },
        {
          "name": "_addr",
          "type": "address"
        },
        {
          "name": "_donationsEnabled",
          "type": "bool"
        },
        {
          "name": "_fn",
          "type": "uint8"
        },
        {
          "name": "_digestSize",
          "type": "uint8"
        },
        {
          "name": "_hash",
          "type": "bytes32"
        }
      ],
      "payable": false,
      "stateMutability": "view",
      "type": "function"
    },
    {
      "constant": false,
      "inputs": [
        {
          "name": "_node",
          "type": "bytes32"
        }
      ],
      "name": "removeProfile",
      "outputs": [
        {
          "name": "",
          "type": "bool"
        }
      ],
      "payable": false,
      "stateMutability": "nonpayable",
      "type": "function"
    },
    {
      "constant": false,
      "inputs": [
        {
          "name": "_node",
          "type": "bytes32"
        },
        {
          "name": "_status",
          "type": "bool"
        }
      ],
      "name": "toggleDonations",
      "outputs": [
        {
          "name": "",
          "type": "bool"
        }
      ],
      "payable": false,
      "stateMutability": "nonpayable",
      "type": "function"
    },
    {
      "constant": false,
      "inputs": [],
      "name": "destroy",
      "outputs": [],
      "payable": false,
      "stateMutability": "nonpayable",
      "type": "function"
    },
    {
      "constant": false,
      "inputs": [],
      "name": "upgradeController",
      "outputs": [
        {
          "name": "",
          "type": "bool"
        }
      ],
      "payable": false,
      "stateMutability": "nonpayable",
      "type": "function"
    },
    {
      "constant": false,
      "inputs": [
        {
          "name": "_moduleAddress",
          "type": "address"
        }
      ],
      "name": "updateModule",
      "outputs": [
        {
          "name": "",
          "type": "bool"
        }
      ],
      "payable": false,
      "stateMutability": "nonpayable",
      "type": "function"
    },
    {
      "constant": true,
      "inputs": [],
      "name": "owner",
      "outputs": [
        {
          "name": "",
          "type": "address"
        }
      ],
      "payable": false,
      "stateMutability": "view",
      "type": "function"
    },
    {
      "constant": false,
      "inputs": [],
      "name": "reclaimEther",
      "outputs": [],
      "payable": false,
      "stateMutability": "nonpayable",
      "type": "function"
    },
    {
      "constant": false,
      "inputs": [
        {
          "name": "from_",
          "type": "address"
        },
        {
          "name": "value_",
          "type": "uint256"
        },
        {
          "name": "data_",
          "type": "bytes"
        }
      ],
      "name": "tokenFallback",
      "outputs": [],
      "payable": false,
      "stateMutability": "nonpayable",
      "type": "function"
    },
    {
      "constant": true,
      "inputs": [
        {
          "name": "_node",
          "type": "bytes32"
        }
      ],
      "name": "donationsEnabled",
      "outputs": [
        {
          "name": "",
          "type": "bool"
        }
      ],
      "payable": false,
      "stateMutability": "view",
      "type": "function"
    },
    {
      "constant": true,
      "inputs": [],
      "name": "totalProfiles",
      "outputs": [
        {
          "name": "",
          "type": "uint256"
        }
      ],
      "payable": false,
      "stateMutability": "view",
      "type": "function"
    },
    {
      "constant": false,
      "inputs": [
        {
          "name": "node",
          "type": "bytes32"
        },
        {
          "name": "newAddress",
          "type": "address"
        }
      ],
      "name": "setAddr",
      "outputs": [],
      "payable": false,
      "stateMutability": "nonpayable",
      "type": "function"
    },
    {
      "constant": true,
      "inputs": [
        {
          "name": "_node",
          "type": "bytes32"
        }
      ],
      "name": "hash",
      "outputs": [
        {
          "name": "_fn",
          "type": "uint8"
        },
        {
          "name": "_digestSize",
          "type": "uint8"
        },
        {
          "name": "_hash",
          "type": "bytes32"
        }
      ],
      "payable": false,
      "stateMutability": "view",
      "type": "function"
    },
    {
      "constant": true,
      "inputs": [
        {
          "name": "owner",
          "type": "address"
        }
      ],
      "name": "reverse",
      "outputs": [
        {
          "name": "",
          "type": "bytes32"
        }
      ],
      "payable": false,
      "stateMutability": "view",
      "type": "function"
    },
    {
      "constant": true,
      "inputs": [],
      "name": "disabled",
      "outputs": [
        {
          "name": "",
          "type": "bool"
        }
      ],
      "payable": false,
      "stateMutability": "view",
      "type": "function"
    },
    {
      "constant": false,
      "inputs": [
        {
          "name": "newOwner",
          "type": "address"
        }
      ],
      "name": "transferOwnership",
      "outputs": [],
      "payable": false,
      "stateMutability": "nonpayable",
      "type": "function"
    },
    {
      "inputs": [
        {
          "name": "_ens",
          "type": "address"
        },
        {
          "name": "_totalProfiles",
          "type": "uint256"
        }
      ],
      "payable": false,
      "stateMutability": "nonpayable",
      "type": "constructor"
    },
    {
      "payable": false,
      "stateMutability": "nonpayable",
      "type": "fallback"
    },
    {
      "anonymous": false,
      "inputs": [
        {
          "indexed": true,
          "name": "previousOwner",
          "type": "address"
        },
        {
          "indexed": true,
          "name": "newOwner",
          "type": "address"
        }
      ],
      "name": "OwnershipTransferred",
      "type": "event"
    }
  ],
  "bytecode": "0x6060604052341561000f57600080fd5b604051604080611d8d83398101604052808051906020019091908051906020019091905050336000806101000a81548173ffffffffffffffffffffffffffffffffffffffff021916908373ffffffffffffffffffffffffffffffffffffffff16021790555060003414151561008357600080fd5b81600360016101000a81548173ffffffffffffffffffffffffffffffffffffffff021916908373ffffffffffffffffffffffffffffffffffffffff160217905550806002819055505050611cb1806100dc6000396000f300606060405260043610610128576000357c0100000000000000000000000000000000000000000000000000000000900463ffffffff16806302a770591461013557806317a65f4c1461019957806317ffc3201461023057806335b2bd2d146102695780633b3b57de146102be57806347f543bc146103255780635c23bdf5146103765780637340c30a1461042057806376b74a781461045f57806383197ef0146104a957806387543ef6146104be5780638c5f89dc146104eb5780638da5cb5b1461053c5780639f727c2714610591578063c0ee0b8a146105a6578063c59315bf146105fc578063d2adbe791461063b578063d5fa2b0014610664578063d8389dc5146106aa578063e30bd74014610707578063ee0708051461075c578063f2fde38b14610789575b341561013357600080fd5b005b341561014057600080fd5b61017f6004808035600019169060200190919080356000191690602001909190803560ff1690602001909190803560ff169060200190919050506107c2565b604051808215151515815260200191505060405180910390f35b34156101a457600080fd5b61021a6004808035600019169060200190919080356000191690602001909190803573ffffffffffffffffffffffffffffffffffffffff1690602001909190803515159060200190919080356000191690602001909190803560ff1690602001909190803560ff169060200190919050506109a9565b6040518082815260200191505060405180910390f35b341561023b57600080fd5b610267600480803573ffffffffffffffffffffffffffffffffffffffff16906020019091905050610ab3565b005b341561027457600080fd5b61027c610c20565b604051808273ffffffffffffffffffffffffffffffffffffffff1673ffffffffffffffffffffffffffffffffffffffff16815260200191505060405180910390f35b34156102c957600080fd5b6102e3600480803560001916906020019091905050610c46565b604051808273ffffffffffffffffffffffffffffffffffffffff1673ffffffffffffffffffffffffffffffffffffffff16815260200191505060405180910390f35b341561033057600080fd5b61035c600480803573ffffffffffffffffffffffffffffffffffffffff16906020019091905050610c8e565b604051808215151515815260200191505060405180910390f35b341561038157600080fd5b61039b600480803560001916906020019091905050610d71565b6040518087600019166000191681526020018673ffffffffffffffffffffffffffffffffffffffff1673ffffffffffffffffffffffffffffffffffffffff168152602001851515151581526020018460ff1660ff1681526020018360ff1660ff1681526020018260001916600019168152602001965050505050505060405180910390f35b341561042b57600080fd5b610445600480803560001916906020019091905050610df2565b604051808215151515815260200191505060405180910390f35b341561046a57600080fd5b61048f6004808035600019169060200190919080351515906020019091905050610f26565b604051808215151515815260200191505060405180910390f35b34156104b457600080fd5b6104bc61103e565b005b34156104c957600080fd5b6104d16110d3565b604051808215151515815260200191505060405180910390f35b34156104f657600080fd5b610522600480803573ffffffffffffffffffffffffffffffffffffffff16906020019091905050611153565b604051808215151515815260200191505060405180910390f35b341561054757600080fd5b61054f611237565b604051808273ffffffffffffffffffffffffffffffffffffffff1673ffffffffffffffffffffffffffffffffffffffff16815260200191505060405180910390f35b341561059c57600080fd5b6105a461125c565b005b34156105b157600080fd5b6105fa600480803573ffffffffffffffffffffffffffffffffffffffff16906020019091908035906020019091908035906020019082018035906020019190919290505061132e565b005b341561060757600080fd5b610621600480803560001916906020019091905050611333565b604051808215151515815260200191505060405180910390f35b341561064657600080fd5b61064e611368565b6040518082815260200191505060405180910390f35b341561066f57600080fd5b6106a860048080356000191690602001909190803573ffffffffffffffffffffffffffffffffffffffff1690602001909190505061136e565b005b34156106b557600080fd5b6106cf600480803560001916906020019091905050611681565b604051808460ff1660ff1681526020018360ff1660ff1681526020018260001916600019168152602001935050505060405180910390f35b341561071257600080fd5b61073e600480803573ffffffffffffffffffffffffffffffffffffffff16906020019091905050611717565b60405180826000191660001916815260200191505060405180910390f35b341561076757600080fd5b61076f611794565b604051808215151515815260200191505060405180910390f35b341561079457600080fd5b6107c0600480803573ffffffffffffffffffffffffffffffffffffffff169060200190919050506117a7565b005b6000843373ffffffffffffffffffffffffffffffffffffffff16600360019054906101000a900473ffffffffffffffffffffffffffffffffffffffff1673ffffffffffffffffffffffffffffffffffffffff166302571be3836000604051602001526040518263ffffffff167c0100000000000000000000000000000000000000000000000000000000028152600401808260001916600019168152602001915050602060405180830381600087803b151561087d57600080fd5b6102c65a03f1151561088e57600080fd5b5050506040518051905073ffffffffffffffffffffffffffffffffffffffff161415156108ba57600080fd5b73__IpfsHash______________________________63294ba8e76004600089600019166000191681526020019081526020016000206000018787876000604051602001526040518563ffffffff167c01000000000000000000000000000000000000000000000000000000000281526004018085815260200184600019166000191681526020018360ff1660ff1681526020018260ff1660ff16815260200194505050505060206040518083038186803b151561097657600080fd5b6102c65a03f4151561098757600080fd5b50505060405180519050151561099c57600080fd5b6001915050949350505050565b6000600160009054906101000a900473ffffffffffffffffffffffffffffffffffffffff1673ffffffffffffffffffffffffffffffffffffffff163373ffffffffffffffffffffffffffffffffffffffff16141515610a0757600080fd5b600060046000896000191660001916815260200190815260200160002060020160009054906101000a900473ffffffffffffffffffffffffffffffffffffffff1673ffffffffffffffffffffffffffffffffffffffff16141515610a6757fe5b610a758789888787876118fc565b1515610a8057600080fd5b610a8a8786611aee565b1515610a9557600080fd5b60026000815480929190600101919050559050979650505050505050565b60008060009054906101000a900473ffffffffffffffffffffffffffffffffffffffff1673ffffffffffffffffffffffffffffffffffffffff163373ffffffffffffffffffffffffffffffffffffffff16141515610b1057600080fd5b8173ffffffffffffffffffffffffffffffffffffffff166370a08231306000604051602001526040518263ffffffff167c0100000000000000000000000000000000000000000000000000000000028152600401808273ffffffffffffffffffffffffffffffffffffffff1673ffffffffffffffffffffffffffffffffffffffff168152602001915050602060405180830381600087803b1515610bb357600080fd5b6102c65a03f11515610bc457600080fd5b505050604051805190509050610c1c6000809054906101000a900473ffffffffffffffffffffffffffffffffffffffff16828473ffffffffffffffffffffffffffffffffffffffff16611b309092919063ffffffff16565b5050565b600160009054906101000a900473ffffffffffffffffffffffffffffffffffffffff1681565b600060046000836000191660001916815260200190815260200160002060020160009054906101000a900473ffffffffffffffffffffffffffffffffffffffff169050919050565b60008060009054906101000a900473ffffffffffffffffffffffffffffffffffffffff1673ffffffffffffffffffffffffffffffffffffffff163373ffffffffffffffffffffffffffffffffffffffff16141515610ceb57600080fd5b600073ffffffffffffffffffffffffffffffffffffffff168273ffffffffffffffffffffffffffffffffffffffff1614151515610d2757600080fd5b81600160006101000a81548173ffffffffffffffffffffffffffffffffffffffff021916908373ffffffffffffffffffffffffffffffffffffffff16021790555060019050919050565b600080600080600080600460008860001916600019168152602001908152602001600020600301549550610da487610c46565b9450610daf87611681565b80935081945082955050505060046000886000191660001916815260200190815260200160002060040160009054906101000a900460ff16935091939550919395565b6000600160009054906101000a900473ffffffffffffffffffffffffffffffffffffffff1673ffffffffffffffffffffffffffffffffffffffff163373ffffffffffffffffffffffffffffffffffffffff16141515610e5057600080fd5b60001515600360009054906101000a900460ff161515141515610e7257600080fd5b6002600081548092919060019003919050555060046000836000191660001916815260200190815260200160002060008082016000808201600090556001820160006101000a81549060ff02191690556001820160016101000a81549060ff021916905550506002820160006101000a81549073ffffffffffffffffffffffffffffffffffffffff021916905560038201600090556004820160006101000a81549060ff0219169055505060019050919050565b6000823373ffffffffffffffffffffffffffffffffffffffff16600360019054906101000a900473ffffffffffffffffffffffffffffffffffffffff1673ffffffffffffffffffffffffffffffffffffffff166302571be3836000604051602001526040518263ffffffff167c0100000000000000000000000000000000000000000000000000000000028152600401808260001916600019168152602001915050602060405180830381600087803b1515610fe157600080fd5b6102c65a03f11515610ff257600080fd5b5050506040518051905073ffffffffffffffffffffffffffffffffffffffff1614151561101e57600080fd5b6110288484611aee565b151561103357600080fd5b600191505092915050565b6000809054906101000a900473ffffffffffffffffffffffffffffffffffffffff1673ffffffffffffffffffffffffffffffffffffffff163373ffffffffffffffffffffffffffffffffffffffff1614151561109957600080fd5b6000809054906101000a900473ffffffffffffffffffffffffffffffffffffffff1673ffffffffffffffffffffffffffffffffffffffff16ff5b6000600160009054906101000a900473ffffffffffffffffffffffffffffffffffffffff1673ffffffffffffffffffffffffffffffffffffffff163373ffffffffffffffffffffffffffffffffffffffff1614151561113157600080fd5b6001600360006101000a81548160ff0219169083151502179055506001905090565b6000600160009054906101000a900473ffffffffffffffffffffffffffffffffffffffff1673ffffffffffffffffffffffffffffffffffffffff163373ffffffffffffffffffffffffffffffffffffffff161415156111b157600080fd5b600073ffffffffffffffffffffffffffffffffffffffff168273ffffffffffffffffffffffffffffffffffffffff16141515156111ed57600080fd5b81600160006101000a81548173ffffffffffffffffffffffffffffffffffffffff021916908373ffffffffffffffffffffffffffffffffffffffff16021790555060019050919050565b6000809054906101000a900473ffffffffffffffffffffffffffffffffffffffff1681565b6000809054906101000a900473ffffffffffffffffffffffffffffffffffffffff1673ffffffffffffffffffffffffffffffffffffffff163373ffffffffffffffffffffffffffffffffffffffff161415156112b757600080fd5b6000809054906101000a900473ffffffffffffffffffffffffffffffffffffffff1673ffffffffffffffffffffffffffffffffffffffff166108fc3073ffffffffffffffffffffffffffffffffffffffff16319081150290604051600060405180830381858888f19350505050151561132c57fe5b565b600080fd5b600060046000836000191660001916815260200190815260200160002060040160009054906101000a900460ff169050919050565b60025481565b813373ffffffffffffffffffffffffffffffffffffffff16600360019054906101000a900473ffffffffffffffffffffffffffffffffffffffff1673ffffffffffffffffffffffffffffffffffffffff166302571be3836000604051602001526040518263ffffffff167c0100000000000000000000000000000000000000000000000000000000028152600401808260001916600019168152602001915050602060405180830381600087803b151561142757600080fd5b6102c65a03f1151561143857600080fd5b5050506040518051905073ffffffffffffffffffffffffffffffffffffffff1614151561146457600080fd5b600560007f91d1777781884d03a6757a803996e38de2a42967fb37eeaca72729271025a9e26001026114d360046000886000191660001916815260200190815260200160002060020160009054906101000a900473ffffffffffffffffffffffffffffffffffffffff16611c03565b604051808360001916600019168152602001826000191660001916815260200192505050604051809103902060001916600019168152602001908152602001600020600090558160046000856000191660001916815260200190815260200160002060020160006101000a81548173ffffffffffffffffffffffffffffffffffffffff021916908373ffffffffffffffffffffffffffffffffffffffff160217905550600060010260001916600560007f91d1777781884d03a6757a803996e38de2a42967fb37eeaca72729271025a9e26001026115b086611c03565b604051808360001916600019168152602001826000191660001916815260200192505050604051809103902060001916600019168152602001908152602001600020546000191614151561160057fe5b82600560007f91d1777781884d03a6757a803996e38de2a42967fb37eeaca72729271025a9e260010261163286611c03565b6040518083600019166000191681526020018260001916600019168152602001925050506040518091039020600019166000191681526020019081526020016000208160001916905550505050565b6000806000611704600460008660001916600019168152602001908152602001600020600001606060405190810160405290816000820154600019166000191681526020016001820160009054906101000a900460ff1660ff1660ff1681526020016001820160019054906101000a900460ff1660ff1660ff1681525050611c64565b8093508194508295505050509193909250565b6000600560007f91d1777781884d03a6757a803996e38de2a42967fb37eeaca72729271025a9e260010261174a85611c03565b604051808360001916600019168152602001826000191660001916815260200192505050604051809103902060001916600019168152602001908152602001600020549050919050565b600360009054906101000a900460ff1681565b6000809054906101000a900473ffffffffffffffffffffffffffffffffffffffff1673ffffffffffffffffffffffffffffffffffffffff163373ffffffffffffffffffffffffffffffffffffffff1614151561180257600080fd5b600073ffffffffffffffffffffffffffffffffffffffff168173ffffffffffffffffffffffffffffffffffffffff161415151561183e57600080fd5b8073ffffffffffffffffffffffffffffffffffffffff166000809054906101000a900473ffffffffffffffffffffffffffffffffffffffff1673ffffffffffffffffffffffffffffffffffffffff167f8be0079c531659141344cd1fd0a4f28419497f9722a3daafe3b4186f6b6457e060405160405180910390a3806000806101000a81548173ffffffffffffffffffffffffffffffffffffffff021916908373ffffffffffffffffffffffffffffffffffffffff16021790555050565b600073__IpfsHash______________________________63294ba8e7600460008a600019166000191681526020019081526020016000206000018686866000604051602001526040518563ffffffff167c01000000000000000000000000000000000000000000000000000000000281526004018085815260200184600019166000191681526020018360ff1660ff1681526020018260ff1660ff16815260200194505050505060206040518083038186803b15156119ba57600080fd5b6102c65a03f415156119cb57600080fd5b5050506040518051905015156119e057600080fd5b8460046000896000191660001916815260200190815260200160002060020160006101000a81548173ffffffffffffffffffffffffffffffffffffffff021916908373ffffffffffffffffffffffffffffffffffffffff16021790555085600460008960001916600019168152602001908152602001600020600301816000191690555086600560007f91d1777781884d03a6757a803996e38de2a42967fb37eeaca72729271025a9e2600102611a9689611c03565b6040518083600019166000191681526020018260001916600019168152602001925050506040518091039020600019166000191681526020019081526020016000208160001916905550600190509695505050505050565b60008160046000856000191660001916815260200190815260200160002060040160006101000a81548160ff0219169083151502179055506001905092915050565b8273ffffffffffffffffffffffffffffffffffffffff1663a9059cbb83836000604051602001526040518363ffffffff167c0100000000000000000000000000000000000000000000000000000000028152600401808373ffffffffffffffffffffffffffffffffffffffff1673ffffffffffffffffffffffffffffffffffffffff16815260200182815260200192505050602060405180830381600087803b1515611bdb57600080fd5b6102c65a03f11515611bec57600080fd5b505050604051805190501515611bfe57fe5b505050565b60007f303132333435363738396162636465660000000000000000000000000000000060285b60018103905081600f85161a815360108404935060018103905081600f85161a815360108404935080611c2957602860002092505050919050565b600080600083602001518460400151856000015192509250925091939092505600a165627a7a723058205a742083fa372ad22946c714f4f06452f28de3ee1b8e19e9a6bcc83d60c57ba10029",
  "source": "pragma solidity ^0.4.0;\n\n\nimport './Bundled.sol';\nimport \"./IpfsHash.sol\";\nimport './ResolverInterface.sol';\nimport 'ens/contracts/ENS.sol';\n\n\ncontract ProfileResolver is Bundled {\n    uint public totalProfiles;\n\n    bool public disabled;\n\n    ENS ens;\n\n    struct Profile {\n    IpfsHash.Multihash contentHash;\n    address addr;\n    bytes32 akashaId;\n    bool donations;\n    }\n\n    mapping (bytes32 => Profile) profileList;\n\n    mapping (bytes32 => bytes32) reverseRecords;\n\n    bytes32 constant ADDR_REVERSE_NODE = 0x91d1777781884d03a6757a803996e38de2a42967fb37eeaca72729271025a9e2;\n\n    function ProfileResolver(ENS _ens, uint _totalProfiles)\n    public\n    Bundled()\n    {\n        ens = _ens;\n        totalProfiles = _totalProfiles;\n    }\n\n    modifier only_owner(bytes32 node)\n    {\n        require(ens.owner(node) == msg.sender);\n        _;\n    }\n\n    // verify is this controller is in usage\n    modifier notDisabled()\n    {\n        require(disabled == false);\n        _;\n    }\n\n    // mark as disabled when migrating to a new controller\n    function upgradeController()\n    public\n    onlyModule\n    returns (bool)\n    {\n        disabled = true;\n        return true;\n    }\n\n    // register an ipfs hash\n    function registerHash(bytes32 _akashaId, bytes32 _nodeHash, address _owner, bool _status, bytes32 _hash, uint8 _fn, uint8 _digestSize)\n    public\n    onlyModule\n    returns (uint)\n    {\n        assert(profileList[_nodeHash].addr == 0);\n        require(createHash(_nodeHash, _akashaId, _owner, _hash, _fn, _digestSize));\n        require(enableDonations(_nodeHash, _status));\n        return totalProfiles++;\n    }\n\n    function setHash(bytes32 _nodeHash, bytes32 _hash, uint8 _fn, uint8 _digestSize)\n    public\n    only_owner(_nodeHash)\n    returns (bool)\n    {\n        require(IpfsHash.create(profileList[_nodeHash].contentHash, _hash, _fn, _digestSize));\n        return true;\n    }\n\n    function toggleDonations(bytes32 _node, bool _status)\n    public\n    only_owner(_node)\n    returns (bool)\n    {\n        require(enableDonations(_node, _status));\n        return true;\n    }\n\n    function enableDonations(bytes32 _node, bool _status)\n    internal\n    returns (bool)\n    {\n        profileList[_node].donations = _status;\n        return true;\n    }\n\n    function createHash(bytes32 _node, bytes32 _akashaId, address _owner, bytes32 _hash, uint8 _fn, uint8 _digestSize)\n    internal\n    returns (bool)\n    {\n        require(IpfsHash.create(profileList[_node].contentHash, _hash, _fn, _digestSize));\n        profileList[_node].addr = _owner;\n        profileList[_node].akashaId = _akashaId;\n        reverseRecords[keccak256(ADDR_REVERSE_NODE, sha3HexAddress(_owner))] = _node;\n        return true;\n    }\n\n    // remove extra data from profile at index\n    function removeProfile(bytes32 _node)\n    public\n    onlyModule\n    notDisabled\n    returns (bool)\n    {\n        totalProfiles--;\n        delete profileList[_node];\n        return true;\n    }\n\n\n    function hash(bytes32 _node)\n    public\n    view\n    returns (uint8 _fn, uint8 _digestSize, bytes32 _hash)\n    {\n        (_fn, _digestSize, _hash) = IpfsHash.getHash(profileList[_node].contentHash);\n    }\n\n    function addr(bytes32 node)\n    public\n    view\n    returns (address)\n    {\n        return profileList[node].addr;\n    }\n\n    function resolve(bytes32 _node)\n    public\n    view\n    returns (bytes32 _akashaId, address _addr, bool _donationsEnabled, uint8 _fn, uint8 _digestSize, bytes32 _hash)\n    {\n        _akashaId = profileList[_node].akashaId;\n        _addr = addr(_node);\n        (_fn, _digestSize, _hash) = hash(_node);\n        _donationsEnabled = profileList[_node].donations;\n    }\n\n    function donationsEnabled(bytes32 _node)\n    public\n    view\n    returns (bool)\n    {\n        return profileList[_node].donations;\n    }\n\n    function setAddr(bytes32 node, address newAddress)\n    public\n    only_owner(node)\n    {\n        delete reverseRecords[keccak256(ADDR_REVERSE_NODE, sha3HexAddress(profileList[node].addr))];\n        profileList[node].addr = newAddress;\n        assert(reverseRecords[keccak256(ADDR_REVERSE_NODE, sha3HexAddress(newAddress))] == bytes32(0x0));\n        reverseRecords[keccak256(ADDR_REVERSE_NODE, sha3HexAddress(newAddress))] = node;\n    }\n\n\n    // reverse eth address to ens node\n    // this works only for subdomains\n    function reverse(address owner)\n    public\n    view\n    returns (bytes32)\n    {\n        return reverseRecords[keccak256(ADDR_REVERSE_NODE, sha3HexAddress(owner))];\n    }\n\n    /**\n     * https://github.com/ethereum/ens/blob/master/contracts/ReverseRegistrar.sol#L145\n     * @dev An optimised function to compute the sha3 of the lower-case\n     *      hexadecimal representation of an Ethereum address.\n     * @param addr The address to hash\n     * @return The SHA3 hash of the lower-case hexadecimal encoding of the\n     *         input address.\n     */\n    function sha3HexAddress(address addr)\n    view\n    private\n    returns (bytes32 ret)\n    {\n        addr;\n        ret;\n        // Stop warning us about unused variables\n        assembly {\n        let lookup := 0x3031323334353637383961626364656600000000000000000000000000000000\n        let i := 40\n        loop\n        :\n        i := sub(i, 1)\n        mstore8(i, byte(and(addr, 0xf), lookup))\n        addr := div(addr, 0x10)\n        i := sub(i, 1)\n        mstore8(i, byte(and(addr, 0xf), lookup))\n        addr := div(addr, 0x10)\n        jumpi(loop, i)\n        ret := keccak256(0, 40)\n        }\n    }\n}\n",
  "sourcePath": "/home/kenshyx/projects/contracts.alpha/contracts/ProfileResolver.sol",
  "compiler": {
    "name": "solc",
    "version": "0.4.18+commit.9cf6e910.Emscripten.clang"
  },
  "schemaVersion": "1.0.1",
  "updatedAt": "2017-11-14T16:08:17.284Z"
}