{
  "contractName": "Tags",
  "abi": [
    {
      "constant": false,
      "inputs": [
        {
          "name": "token",
          "type": "address"
        }
      ],
      "name": "reclaimToken",
      "outputs": [],
      "payable": false,
      "stateMutability": "nonpayable",
      "type": "function"
    },
    {
      "constant": false,
      "inputs": [
        {
          "name": "_tags",
          "type": "bytes32[32]"
        }
      ],
      "name": "adminAdd",
      "outputs": [
        {
          "name": "",
          "type": "uint256"
        }
      ],
      "payable": false,
      "stateMutability": "nonpayable",
      "type": "function"
    },
    {
      "constant": true,
      "inputs": [
        {
          "name": "_amount",
          "type": "uint256"
        }
      ],
      "name": "total",
      "outputs": [
        {
          "name": "",
          "type": "uint256"
        }
      ],
      "payable": false,
      "stateMutability": "view",
      "type": "function"
    },
    {
      "constant": false,
      "inputs": [
        {
          "name": "_amount",
          "type": "uint256"
        }
      ],
      "name": "setMinCollected",
      "outputs": [
        {
          "name": "",
          "type": "bool"
        }
      ],
      "payable": false,
      "stateMutability": "nonpayable",
      "type": "function"
    },
    {
      "constant": true,
      "inputs": [
        {
          "name": "_tag",
          "type": "bytes32"
        }
      ],
      "name": "exists",
      "outputs": [
        {
          "name": "",
          "type": "bool"
        }
      ],
      "payable": false,
      "stateMutability": "view",
      "type": "function"
    },
    {
      "constant": true,
      "inputs": [
        {
          "name": "_tag",
          "type": "bytes32"
        },
        {
          "name": "_publisher",
          "type": "address"
        }
      ],
      "name": "totalEntries",
      "outputs": [
        {
          "name": "_total",
          "type": "uint256"
        },
        {
          "name": "_fn",
          "type": "uint8"
        },
        {
          "name": "_digestSize",
          "type": "uint8"
        },
        {
          "name": "_hash",
          "type": "bytes32"
        }
      ],
      "payable": false,
      "stateMutability": "view",
      "type": "function"
    },
    {
      "constant": true,
      "inputs": [
        {
          "name": "_name",
          "type": "bytes32"
        },
        {
          "name": "_publisher",
          "type": "address"
        }
      ],
      "name": "get_list_publisher",
      "outputs": [
        {
          "name": "_creator",
          "type": "address"
        },
        {
          "name": "_fn",
          "type": "uint8"
        },
        {
          "name": "_digestSize",
          "type": "uint8"
        },
        {
          "name": "_hash",
          "type": "bytes32"
        }
      ],
      "payable": false,
      "stateMutability": "view",
      "type": "function"
    },
    {
      "constant": false,
      "inputs": [
        {
          "name": "_entry",
          "type": "address"
        }
      ],
      "name": "setEntry",
      "outputs": [],
      "payable": false,
      "stateMutability": "nonpayable",
      "type": "function"
    },
    {
      "constant": false,
      "inputs": [
        {
          "name": "_tag",
          "type": "bytes32"
        }
      ],
      "name": "add",
      "outputs": [
        {
          "name": "",
          "type": "bool"
        }
      ],
      "payable": false,
      "stateMutability": "nonpayable",
      "type": "function"
    },
    {
      "constant": true,
      "inputs": [
        {
          "name": "_id",
          "type": "bytes32"
        }
      ],
      "name": "list_exists",
      "outputs": [
        {
          "name": "",
          "type": "bool"
        },
        {
          "name": "_fn",
          "type": "uint8"
        },
        {
          "name": "_digestSize",
          "type": "uint8"
        },
        {
          "name": "_hash",
          "type": "bytes32"
        }
      ],
      "payable": false,
      "stateMutability": "view",
      "type": "function"
    },
    {
      "constant": true,
      "inputs": [
        {
          "name": "_id",
          "type": "bytes32"
        }
      ],
      "name": "get_list",
      "outputs": [
        {
          "name": "_creator",
          "type": "address"
        },
        {
          "name": "_fn",
          "type": "uint8"
        },
        {
          "name": "_digestSize",
          "type": "uint8"
        },
        {
          "name": "_hash",
          "type": "bytes32"
        }
      ],
      "payable": false,
      "stateMutability": "view",
      "type": "function"
    },
    {
      "constant": true,
      "inputs": [
        {
          "name": "id",
          "type": "bytes32"
        }
      ],
      "name": "check_format",
      "outputs": [
        {
          "name": "",
          "type": "bool"
        }
      ],
      "payable": false,
      "stateMutability": "pure",
      "type": "function"
    },
    {
      "constant": true,
      "inputs": [
        {
          "name": "_creator",
          "type": "address"
        },
        {
          "name": "_hash",
          "type": "bytes32"
        },
        {
          "name": "_fn",
          "type": "uint8"
        },
        {
          "name": "_digestSize",
          "type": "uint8"
        }
      ],
      "name": "canCreate",
      "outputs": [
        {
          "name": "",
          "type": "bool"
        }
      ],
      "payable": false,
      "stateMutability": "view",
      "type": "function"
    },
    {
      "constant": false,
      "inputs": [
        {
          "name": "_name",
          "type": "bytes32"
        },
        {
          "name": "_hash",
          "type": "bytes32"
        },
        {
          "name": "_fn",
          "type": "uint8"
        },
        {
          "name": "_digestSize",
          "type": "uint8"
        }
      ],
      "name": "update_list",
      "outputs": [
        {
          "name": "",
          "type": "uint256"
        }
      ],
      "payable": false,
      "stateMutability": "nonpayable",
      "type": "function"
    },
    {
      "constant": true,
      "inputs": [
        {
          "name": "_votes",
          "type": "address"
        }
      ],
      "name": "minCollected",
      "outputs": [
        {
          "name": "",
          "type": "uint256"
        }
      ],
      "payable": false,
      "stateMutability": "view",
      "type": "function"
    },
    {
      "constant": false,
      "inputs": [
        {
          "name": "_votes",
          "type": "address"
        }
      ],
      "name": "setVotesAddress",
      "outputs": [
        {
          "name": "",
          "type": "bool"
        }
      ],
      "payable": false,
      "stateMutability": "nonpayable",
      "type": "function"
    },
    {
      "constant": true,
      "inputs": [
        {
          "name": "_essence",
          "type": "address"
        }
      ],
      "name": "owner",
      "outputs": [
        {
          "name": "",
          "type": "address"
        }
      ],
      "payable": false,
      "stateMutability": "view",
      "type": "function"
    },
    {
      "constant": false,
      "inputs": [
        {
          "name": "_essence",
          "type": "address"
        }
      ],
      "name": "setEssence",
      "outputs": [],
      "payable": false,
      "stateMutability": "nonpayable",
      "type": "function"
    },
    {
      "constant": false,
      "inputs": [
        {
          "name": "_tag",
          "type": "bytes32"
        }
      ],
      "name": "incrementTotalEntries",
      "outputs": [],
      "payable": false,
      "stateMutability": "nonpayable",
      "type": "function"
    },
    {
      "constant": false,
      "inputs": [
        {
          "name": "_tag",
          "type": "bytes32"
        },
        {
          "name": "_creator",
          "type": "address"
        }
      ],
      "name": "reclaimEther",
      "outputs": [
        {
          "name": "",
          "type": "bool"
        }
      ],
      "payable": false,
      "stateMutability": "nonpayable",
      "type": "function"
    },
    {
      "constant": false,
      "inputs": [
        {
          "name": "_tag",
          "type": "bytes32"
        },
        {
          "name": "_creator",
          "type": "address"
        },
        {
          "name": "data_",
          "type": "bytes"
        }
      ],
      "name": "addFromEntry",
      "outputs": [
        {
          "name": "",
          "type": "bool"
        }
      ],
      "payable": false,
      "stateMutability": "nonpayable",
      "type": "function"
    },
    {
      "constant": false,
      "inputs": [
        {
          "name": "from_",
          "type": "address"
        },
        {
          "name": "value_",
          "type": "uint256"
        },
        {
          "name": "data_",
          "type": "bytes"
        }
      ],
      "name": "tokenFallback",
      "outputs": [
        {
          "name": "",
          "type": "address"
        }
      ],
      "payable": false,
      "stateMutability": "nonpayable",
      "type": "function"
    },
    {
      "constant": true,
      "inputs": [
        {
          "name": "_id",
          "type": "bytes32"
        },
        {
          "name": "_hash",
          "type": "bytes32"
        },
        {
          "name": "_fn",
          "type": "uint8"
        },
        {
          "name": "_digestSize",
          "type": "uint8"
        }
      ],
      "name": "list_creator",
      "outputs": [
        {
          "name": "",
          "type": "address"
        }
      ],
      "payable": false,
      "stateMutability": "view",
      "type": "function"
    },
    {
      "constant": false,
      "inputs": [
        {
          "name": "_name",
          "type": "bytes32"
        },
        {
          "name": "_hash",
          "type": "bytes32"
        },
        {
          "name": "_fn",
          "type": "uint8"
        },
        {
          "name": "_digestSize",
          "type": "uint8"
        }
      ],
      "name": "create_list",
      "outputs": [
        {
          "name": "_total",
          "type": "uint256"
        }
      ],
      "payable": false,
      "stateMutability": "nonpayable",
      "type": "function"
    },
    {
      "constant": true,
      "inputs": [
        {
          "name": "_publisher",
          "type": "address"
        }
      ],
      "name": "total_lists",
      "outputs": [
        {
          "name": "_total",
          "type": "uint256"
        }
      ],
      "payable": false,
      "stateMutability": "view",
      "type": "function"
    },
    {
      "constant": false,
      "inputs": [
        {
          "name": "newOwner",
          "type": "address"
        }
      ],
      "name": "transferOwnership",
      "outputs": [],
      "payable": false,
      "stateMutability": "nonpayable",
      "type": "function"
    },
    {
      "inputs": [],
      "payable": false,
      "stateMutability": "nonpayable",
      "type": "constructor"
    },
    {
      "payable": false,
      "stateMutability": "nonpayable",
      "type": "fallback",
      "anonymous": false,
      "inputs": [
        {
          "indexed": true,
          "name": "tag",
          "type": "bytes32"
        }
      ],
      "name": "TagCreate"
    },
    {
      "anonymous": false,
      "inputs": [
        {
          "indexed": true,
          "name": "tag",
          "type": "bytes32"
        },
        {
          "indexed": true,
          "name": "publisher",
          "type": "address"
        },
        {
          "indexed": false,
          "name": "id",
          "type": "bytes32"
        }
      ],
      "name": "TagCreate",
      "type": "event"
    },
    {
      "anonymous": false,
      "inputs": [
        {
          "indexed": true,
          "name": "name",
          "type": "bytes32"
        },
        {
          "indexed": true,
          "name": "publisher",
          "type": "address"
        },
        {
          "indexed": false,
          "name": "id",
          "type": "bytes32"
        }
      ],
      "name": "ListCreate",
      "type": "event"
    },
    {
      "anonymous": false,
      "inputs": [
        {
          "indexed": true,
          "name": "name",
          "type": "bytes32"
        },
        {
          "indexed": true,
          "name": "publisher",
          "type": "address"
        }
      ],
      "name": "ListUpdate",
      "type": "event"
    },
    {
      "anonymous": false,
      "inputs": [
        {
          "indexed": true,
          "name": "previousOwner",
          "type": "address"
        },
        {
          "indexed": true,
          "name": "newOwner",
          "type": "address"
        }
      ],
      "name": "OwnershipTransferred",
      "type": "event"
    }
  ],
  "bytecode": "0x60606040526000600455683635c9adc5dea00000600555341561002157600080fd5b336000806101000a81548173ffffffffffffffffffffffffffffffffffffffff021916908373ffffffffffffffffffffffffffffffffffffffff16021790555060003414151561007057600080fd5b6124bf8061007f6000396000f300606060405260043610610154576000357c0100000000000000000000000000000000000000000000000000000000900463ffffffff16806317ffc32014610161578063275260631461019a5780632ddbd13a146101e057806333703a321461020957806338a699a41461022c5780633d80c3ba14610267578063404e66d0146102a257806342bc5292146102ff578063446bffba146103385780634716cd6d1461035f5780634bc638721461039a5780636b4316db146103d85780637804a5dc1461041357806382caaf901461046057806388d36f48146104ac5780638d4e5963146104d55780638da5cb5b146105225780638f0ecae21461054b57806398751a5c146105845780639f727c27146105ab578063ab735f04146105c0578063c0ee0b8a1461061a578063ccc2116414610670578063dd0fdcc7146106ab578063e1ed8411146106f7578063f2fde38b14610744575b341561015f57600080fd5b005b341561016c57600080fd5b610198600480803573ffffffffffffffffffffffffffffffffffffffff1690602001909190505061077d565b005b34156101a557600080fd5b6101de600480806104000190602080602002604051908101604052809291908260208002808284378201915050505050919050506108be565b005b34156101eb57600080fd5b6101f3610966565b60405161020091906123f9565b60405180910390f35b341561021457600080fd5b61022a600480803590602001909190505061096c565b005b341561023757600080fd5b6102516004808035600019169060200190919050506109d1565b60405161025e919061233a565b60405180910390f35b341561027257600080fd5b61028c600480803560001916906020019091905050610a06565b60405161029991906123f9565b60405180910390f35b34156102ad57600080fd5b6102e660048080356000191690602001909190803573ffffffffffffffffffffffffffffffffffffffff16906020019091905050610a2e565b6040516102f694939291906122f5565b60405180910390f35b341561030a57600080fd5b610336600480803573ffffffffffffffffffffffffffffffffffffffff16906020019091905050610ab4565b005b341561034357600080fd5b61035d600480803560001916906020019091905050610b53565b005b341561036a57600080fd5b610384600480803560001916906020019091905050610c3c565b604051610391919061233a565b60405180910390f35b34156103a557600080fd5b6103bf600480803560001916906020019091905050610cb3565b6040516103cf94939291906122f5565b60405180910390f35b34156103e357600080fd5b6103fd600480803560001916906020019091905050610d8b565b60405161040a919061233a565b60405180910390f35b341561041e57600080fd5b61044a600480803573ffffffffffffffffffffffffffffffffffffffff16906020019091905050611374565b604051610457919061233a565b60405180910390f35b341561046b57600080fd5b6104aa6004808035600019169060200190919080356000191690602001909190803560ff1690602001909190803560ff16906020019091905050611443565b005b34156104b757600080fd5b6104bf61168d565b6040516104cc91906123f9565b60405180910390f35b34156104e057600080fd5b61050c600480803573ffffffffffffffffffffffffffffffffffffffff16906020019091905050611693565b604051610519919061233a565b60405180910390f35b341561052d57600080fd5b61053561173a565b60405161054291906122b1565b60405180910390f35b341561055657600080fd5b610582600480803573ffffffffffffffffffffffffffffffffffffffff1690602001909190505061175f565b005b341561058f57600080fd5b6105a96004808035600019169060200190919050506117fe565b005b34156105b657600080fd5b6105be6118c5565b005b34156105cb57600080fd5b61060460048080356000191690602001909190803573ffffffffffffffffffffffffffffffffffffffff16906020019091905050611997565b604051610611919061233a565b60405180910390f35b341561062557600080fd5b61066e600480803573ffffffffffffffffffffffffffffffffffffffff169060200190919080359060200190919080359060200190820180359060200191909192905050611ae4565b005b341561067b57600080fd5b610695600480803560001916906020019091905050611ae9565b6040516106a291906122b1565b60405180910390f35b34156106b657600080fd5b6106f56004808035600019169060200190919080356000191690602001909190803560ff1690602001909190803560ff16906020019091905050611b31565b005b341561070257600080fd5b61072e600480803573ffffffffffffffffffffffffffffffffffffffff16906020019091905050611eed565b60405161073b91906123f9565b60405180910390f35b341561074f57600080fd5b61077b600480803573ffffffffffffffffffffffffffffffffffffffff16906020019091905050611f36565b005b60008060009054906101000a900473ffffffffffffffffffffffffffffffffffffffff1673ffffffffffffffffffffffffffffffffffffffff163373ffffffffffffffffffffffffffffffffffffffff161415156107da57600080fd5b8173ffffffffffffffffffffffffffffffffffffffff166370a08231306000604051602001526040518263ffffffff167c01000000000000000000000000000000000000000000000000000000000281526004016108389190612399565b602060405180830381600087803b151561085157600080fd5b6102c65a03f1151561086257600080fd5b5050506040518051905090506108ba6000809054906101000a900473ffffffffffffffffffffffffffffffffffffffff16828473ffffffffffffffffffffffffffffffffffffffff1661208b9092919063ffffffff16565b5050565b60008060009054906101000a900473ffffffffffffffffffffffffffffffffffffffff1673ffffffffffffffffffffffffffffffffffffffff163373ffffffffffffffffffffffffffffffffffffffff1614151561091b57600080fd5b600090505b60208160ff1610156109625761094a828260ff1660208110151561094057fe5b602002015161212c565b151561095557600080fd5b8080600101915050610920565b5050565b60045481565b6000809054906101000a900473ffffffffffffffffffffffffffffffffffffffff1673ffffffffffffffffffffffffffffffffffffffff163373ffffffffffffffffffffffffffffffffffffffff161415156109c757600080fd5b8060058190555050565b600060066000836000191660001916815260200190815260200160002060010160009054906101000a900460ff169050919050565b6000600660008360001916600019168152602001908152602001600020600001549050919050565b60008060008060008587604051808373ffffffffffffffffffffffffffffffffffffffff1673ffffffffffffffffffffffffffffffffffffffff166c0100000000000000000000000002815260140182600019166000191681526020019250505060405180910390209050610aa281610cb3565b94509450945094505092959194509250565b6000809054906101000a900473ffffffffffffffffffffffffffffffffffffffff1673ffffffffffffffffffffffffffffffffffffffff163373ffffffffffffffffffffffffffffffffffffffff16141515610b0f57600080fd5b80600160006101000a81548173ffffffffffffffffffffffffffffffffffffffff021916908373ffffffffffffffffffffffffffffffffffffffff16021790555050565b6000600260009054906101000a900473ffffffffffffffffffffffffffffffffffffffff1673ffffffffffffffffffffffffffffffffffffffff1663fb166bb0336000604051604001526040518263ffffffff167c0100000000000000000000000000000000000000000000000000000000028152600401610bd591906122b1565b6040805180830381600087803b1515610bed57600080fd5b6102c65a03f11515610bfe57600080fd5b5050506040518051906020018051905050809150506005548110151515610c2457600080fd5b610c2d8261212c565b1515610c3857600080fd5b5050565b60008073ffffffffffffffffffffffffffffffffffffffff1660076000846000191660001916815260200190815260200160002060020160009054906101000a900473ffffffffffffffffffffffffffffffffffffffff1673ffffffffffffffffffffffffffffffffffffffff1614159050919050565b60008060008060076000866000191660001916815260200190815260200160002060020160009054906101000a900473ffffffffffffffffffffffffffffffffffffffff169350610d78600760008760001916600019168152602001908152602001600020600001606060405190810160405290816000820154600019166000191681526020016001820160009054906101000a900460ff1660ff1660ff1681526020016001820160019054906101000a900460ff1660ff1660ff16815250506121e4565b8093508194508295505050509193509193565b600080602e7f010000000000000000000000000000000000000000000000000000000000000002836000602081101515610dc157fe5b1a7f0100000000000000000000000000000000000000000000000000000000000000027effffffffffffffffffffffffffffffffffffffffffffffffffffffffffffff19161480610e875750605f7f010000000000000000000000000000000000000000000000000000000000000002836000602081101515610e4057fe5b1a7f0100000000000000000000000000000000000000000000000000000000000000027effffffffffffffffffffffffffffffffffffffffffffffffffffffffffffff1916145b15610e95576000915061136e565b600090505b602060ff168160ff1610156112535760007f010000000000000000000000000000000000000000000000000000000000000002838260ff16602081101515610ede57fe5b1a7f0100000000000000000000000000000000000000000000000000000000000000027effffffffffffffffffffffffffffffffffffffffffffffffffffffffffffff19161415610f2e57611253565b607a7f010000000000000000000000000000000000000000000000000000000000000002838260ff16602081101515610f6357fe5b1a7f0100000000000000000000000000000000000000000000000000000000000000027effffffffffffffffffffffffffffffffffffffffffffffffffffffffffffff191611806110ae575060617f010000000000000000000000000000000000000000000000000000000000000002838260ff16602081101515610fe457fe5b1a7f0100000000000000000000000000000000000000000000000000000000000000027effffffffffffffffffffffffffffffffffffffffffffffffffffffffffffff19161080156110ad575060397f010000000000000000000000000000000000000000000000000000000000000002838260ff1660208110151561106657fe5b1a7f0100000000000000000000000000000000000000000000000000000000000000027effffffffffffffffffffffffffffffffffffffffffffffffffffffffffffff1916115b5b80611238575060307f010000000000000000000000000000000000000000000000000000000000000002838260ff166020811015156110e957fe5b1a7f0100000000000000000000000000000000000000000000000000000000000000027effffffffffffffffffffffffffffffffffffffffffffffffffffffffffffff19161080156111b35750602e7f010000000000000000000000000000000000000000000000000000000000000002838260ff1660208110151561116b57fe5b1a7f0100000000000000000000000000000000000000000000000000000000000000027effffffffffffffffffffffffffffffffffffffffffffffffffffffffffffff191614155b80156112375750602d7f010000000000000000000000000000000000000000000000000000000000000002838260ff166020811015156111ef57fe5b1a7f0100000000000000000000000000000000000000000000000000000000000000027effffffffffffffffffffffffffffffffffffffffffffffffffffffffffffff191614155b5b15611246576000915061136e565b8080600101915050610e9a565b602e7f010000000000000000000000000000000000000000000000000000000000000002836001830360ff1660208110151561128b57fe5b1a7f0100000000000000000000000000000000000000000000000000000000000000027effffffffffffffffffffffffffffffffffffffffffffffffffffffffffffff191614806113565750605f7f010000000000000000000000000000000000000000000000000000000000000002836001830360ff1660208110151561130f57fe5b1a7f0100000000000000000000000000000000000000000000000000000000000000027effffffffffffffffffffffffffffffffffffffffffffffffffffffffffffff1916145b15611364576000915061136e565b60018160ff161191505b50919050565b600080600260009054906101000a900473ffffffffffffffffffffffffffffffffffffffff1673ffffffffffffffffffffffffffffffffffffffff1663fb166bb0846000604051604001526040518263ffffffff167c01000000000000000000000000000000000000000000000000000000000281526004016113f791906122b1565b6040805180830381600087803b151561140f57600080fd5b6102c65a03f1151561142057600080fd5b505050604051805190602001805190505080915050600554811015915050919050565b6000843373ffffffffffffffffffffffffffffffffffffffff16600760003384604051808373ffffffffffffffffffffffffffffffffffffffff1673ffffffffffffffffffffffffffffffffffffffff166c0100000000000000000000000002815260140182600019166000191681526020019250505060405180910390206000191660001916815260200190815260200160002060020160009054906101000a900473ffffffffffffffffffffffffffffffffffffffff1673ffffffffffffffffffffffffffffffffffffffff1614151561151e57600080fd5b3386604051808373ffffffffffffffffffffffffffffffffffffffff1673ffffffffffffffffffffffffffffffffffffffff166c010000000000000000000000000281526014018260001916600019168152602001925050506040518091039020915073__IpfsHash______________________________63294ba8e76007600085600019166000191681526020019081526020016000206000018787876000604051602001526040518563ffffffff167c010000000000000000000000000000000000000000000000000000000002815260040161160094939291906123b4565b60206040518083038186803b151561161757600080fd5b6102c65a03f4151561162857600080fd5b50505060405180519050151561163d57600080fd5b3373ffffffffffffffffffffffffffffffffffffffff1686600019167f8e967a1d5f826b9f572402c2fc5eb8eb372dd53c081ffb1612ff738b1f08c9a360405160405180910390a3505050505050565b60055481565b60008060009054906101000a900473ffffffffffffffffffffffffffffffffffffffff1673ffffffffffffffffffffffffffffffffffffffff163373ffffffffffffffffffffffffffffffffffffffff161415156116f057600080fd5b81600360006101000a81548173ffffffffffffffffffffffffffffffffffffffff021916908373ffffffffffffffffffffffffffffffffffffffff16021790555060019050919050565b6000809054906101000a900473ffffffffffffffffffffffffffffffffffffffff1681565b6000809054906101000a900473ffffffffffffffffffffffffffffffffffffffff1673ffffffffffffffffffffffffffffffffffffffff163373ffffffffffffffffffffffffffffffffffffffff161415156117ba57600080fd5b80600260006101000a81548173ffffffffffffffffffffffffffffffffffffffff021916908373ffffffffffffffffffffffffffffffffffffffff16021790555050565b600160009054906101000a900473ffffffffffffffffffffffffffffffffffffffff1673ffffffffffffffffffffffffffffffffffffffff163373ffffffffffffffffffffffffffffffffffffffff1614151561185a57600080fd5b611863816109d1565b151561186e57600080fd5b6118a060016006600084600019166000191681526020019081526020016000206000015461220590919063ffffffff16565b6006600083600019166000191681526020019081526020016000206000018190555050565b6000809054906101000a900473ffffffffffffffffffffffffffffffffffffffff1673ffffffffffffffffffffffffffffffffffffffff163373ffffffffffffffffffffffffffffffffffffffff1614151561192057600080fd5b6000809054906101000a900473ffffffffffffffffffffffffffffffffffffffff1673ffffffffffffffffffffffffffffffffffffffff166108fc3073ffffffffffffffffffffffffffffffffffffffff16319081150290604051600060405180830381858888f19350505050151561199557fe5b565b600080600160009054906101000a900473ffffffffffffffffffffffffffffffffffffffff1673ffffffffffffffffffffffffffffffffffffffff163373ffffffffffffffffffffffffffffffffffffffff161415156119f657600080fd5b600260009054906101000a900473ffffffffffffffffffffffffffffffffffffffff1673ffffffffffffffffffffffffffffffffffffffff1663fb166bb0846000604051604001526040518263ffffffff167c0100000000000000000000000000000000000000000000000000000000028152600401611a7691906122b1565b6040805180830381600087803b1515611a8e57600080fd5b6102c65a03f11515611a9f57600080fd5b5050506040518051906020018051905050809150506005548110151515611ac557600080fd5b611ace8461212c565b1515611ad957600080fd5b600191505092915050565b600080fd5b600060076000836000191660001916815260200190815260200160002060020160009054906101000a900473ffffffffffffffffffffffffffffffffffffffff169050919050565b6000611b3c33611374565b1515611b4757600080fd5b3385604051808373ffffffffffffffffffffffffffffffffffffffff1673ffffffffffffffffffffffffffffffffffffffff166c0100000000000000000000000002815260140182600019166000191681526020019250505060405180910390209050600073ffffffffffffffffffffffffffffffffffffffff1660076000836000191660001916815260200190815260200160002060020160009054906101000a900473ffffffffffffffffffffffffffffffffffffffff1673ffffffffffffffffffffffffffffffffffffffff16141515611c2357600080fd5b73__IpfsHash______________________________63294ba8e76007600084600019166000191681526020019081526020016000206000018686866000604051602001526040518563ffffffff167c0100000000000000000000000000000000000000000000000000000000028152600401611ca294939291906123b4565b60206040518083038186803b1515611cb957600080fd5b6102c65a03f41515611cca57600080fd5b505050604051805190501515611cdf57600080fd5b3360076000836000191660001916815260200190815260200160002060020160006101000a81548173ffffffffffffffffffffffffffffffffffffffff021916908373ffffffffffffffffffffffffffffffffffffffff160217905550611d8f6001600860003373ffffffffffffffffffffffffffffffffffffffff1673ffffffffffffffffffffffffffffffffffffffff1681526020019081526020016000205461220590919063ffffffff16565b600860003373ffffffffffffffffffffffffffffffffffffffff1673ffffffffffffffffffffffffffffffffffffffff16815260200190815260200160002081905550600360009054906101000a900473ffffffffffffffffffffffffffffffffffffffff1673ffffffffffffffffffffffffffffffffffffffff1663d97995a082600080604051602001526040518363ffffffff167c0100000000000000000000000000000000000000000000000000000000028152600401611e54929190612370565b602060405180830381600087803b1515611e6d57600080fd5b6102c65a03f11515611e7e57600080fd5b505050604051805190501515611e9357600080fd5b3373ffffffffffffffffffffffffffffffffffffffff1685600019167f514d77d5449cde5a7b300e7ca4ffa08a95fcea6c390aad7b538f0c2ef4bbb46983604051611ede9190612355565b60405180910390a35050505050565b6000600860008373ffffffffffffffffffffffffffffffffffffffff1673ffffffffffffffffffffffffffffffffffffffff168152602001908152602001600020549050919050565b6000809054906101000a900473ffffffffffffffffffffffffffffffffffffffff1673ffffffffffffffffffffffffffffffffffffffff163373ffffffffffffffffffffffffffffffffffffffff16141515611f9157600080fd5b600073ffffffffffffffffffffffffffffffffffffffff168173ffffffffffffffffffffffffffffffffffffffff1614151515611fcd57600080fd5b8073ffffffffffffffffffffffffffffffffffffffff166000809054906101000a900473ffffffffffffffffffffffffffffffffffffffff1673ffffffffffffffffffffffffffffffffffffffff167f8be0079c531659141344cd1fd0a4f28419497f9722a3daafe3b4186f6b6457e060405160405180910390a3806000806101000a81548173ffffffffffffffffffffffffffffffffffffffff021916908373ffffffffffffffffffffffffffffffffffffffff16021790555050565b8273ffffffffffffffffffffffffffffffffffffffff1663a9059cbb83836000604051602001526040518363ffffffff167c01000000000000000000000000000000000000000000000000000000000281526004016120eb9291906122cc565b602060405180830381600087803b151561210457600080fd5b6102c65a03f1151561211557600080fd5b50505060405180519050151561212757fe5b505050565b600061213782610d8b565b151561214257600080fd5b61214b826109d1565b15151561215757600080fd5b81600019167f1f4f3e144955401cc3687ad427773fc3950a2b0dfe4a4962f8ae7bf9a67869d160405160405180910390a2600160066000846000191660001916815260200190815260200160002060010160006101000a81548160ff0219169083151502179055506121d5600160045461220590919063ffffffff16565b60048190555060019050919050565b60008060008360200151846040015185600001519250925092509193909250565b600080828401905083811015151561221957fe5b8091505092915050565b61222c81612414565b82525050565b61223b81612434565b82525050565b61224a81612440565b82525050565b61225981612440565b82525050565b61226881612461565b82525050565b61227781612473565b82525050565b8082525050565b61228d8161244a565b82525050565b61229c81612454565b82525050565b6122ab81612454565b82525050565b60006020820190506122c66000830184612223565b92915050565b60006040820190506122e16000830185612223565b6122ee6020830184612284565b9392505050565b600060808201905061230a6000830187612223565b6123176020830186612293565b6123246040830185612293565b6123316060830184612241565b95945050505050565b600060208201905061234f6000830184612232565b92915050565b600060208201905061236a6000830184612241565b92915050565b60006040820190506123856000830185612241565b612392602083018461226e565b9392505050565b60006020820190506123ae600083018461225f565b92915050565b60006080820190506123c9600083018761227d565b6123d66020830186612250565b6123e360408301856122a2565b6123f060608301846122a2565b95945050505050565b600060208201905061240e6000830184612284565b92915050565b600073ffffffffffffffffffffffffffffffffffffffff82169050919050565b60008115159050919050565b6000819050919050565b6000819050919050565b600060ff82169050919050565b600061246c82612414565b9050919050565b600061247e8261244a565b90509190505600a265627a7a72305820c9d4e4497cd2e547e9a2846f9a1cfcdbaa12b3c085ff8c939a1d74070fd2ec536c6578706572696d656e74616cf50037",
  "source": "pragma solidity ^0.4.18;\npragma experimental ABIEncoderV2;\n\nimport 'zeppelin-solidity/contracts/ownership/HasNoTokens.sol';\nimport 'zeppelin-solidity/contracts/ownership/HasNoEther.sol';\nimport 'zeppelin-solidity/contracts/math/SafeMath.sol';\nimport \"./IpfsHash.sol\";\nimport './Entries.sol';\nimport './token/Essence.sol';\nimport './Votes.sol';\n\n\ncontract Tags is HasNoEther, HasNoTokens {\n    using SafeMath for uint256;\n\n    Entries entry;\n\n    Essence essence;\n\n    Votes votes;\n\n    uint256 public total = 0;\n\n    uint256 public minCollected = 10**21;\n\n    struct TagList {\n    IpfsHash.Multihash hash;\n    address creator;\n    }\n\n    struct Tag {\n    uint256 totalEntries;\n    bool created;\n    }\n\n    mapping (bytes32 => Tag) tags;\n\n    mapping (bytes32 => TagList) lists;\n\n    mapping (address => uint256) listsCount;\n\n    event TagCreate(bytes32 indexed tag);\n\n    event ListCreate(bytes32 indexed name, address indexed publisher, bytes32 id);\n\n    event ListUpdate(bytes32 indexed name, address indexed publisher);\n\n    function Tags()\n    public\n    HasNoEther()\n    HasNoTokens()\n    {\n\n    }\n\n    modifier only_creator(bytes32 _name)\n    {\n        require(lists[keccak256(msg.sender, _name)].creator == msg.sender);\n        _;\n    }\n\n    modifier only_entry()\n    {\n        require(msg.sender == address(entry));\n        _;\n    }\n\n    function setEntry(Entries _entry)\n    public\n    onlyOwner\n    {\n        entry = _entry;\n    }\n\n    function setEssence(Essence _essence)\n    public\n    onlyOwner\n    {\n        essence = _essence;\n    }\n\n    function setVotesAddress(address _votes)\n    public\n    onlyOwner\n    returns (bool)\n    {\n        votes = Votes(_votes);\n        return true;\n    }\n\n    function incrementTotalEntries(bytes32 _tag)\n    public\n    only_entry\n    {\n        require(exists(_tag));\n        tags[_tag].totalEntries = tags[_tag].totalEntries.add(1);\n    }\n\n    // for migration purpose only\n    function adminAdd(bytes32[32] _tags)\n    public\n    onlyOwner\n    {\n        for (uint8 i = 0; i < _tags.length; i++)\n        {\n            require(createTag(_tags[i]));\n        }\n    }\n\n    function add(bytes32 _tag)\n    public\n    {\n        uint256 karma;\n        (karma, ) = essence.getCollected(msg.sender);\n        require(karma >= minCollected);\n        require(createTag(_tag));\n    }\n\n    function addFromEntry(bytes32 _tag, address _creator)\n    public\n    only_entry\n    returns (bool)\n    {\n        uint256 karma;\n        (karma, ) = essence.getCollected(_creator);\n        require(karma >= minCollected);\n        require(createTag(_tag));\n        return true;\n    }\n\n    function setMinCollected(uint256 _amount)\n    public\n    onlyOwner\n    {\n        minCollected = _amount;\n    }\n\n    function canCreate(address _creator)\n    public\n    view\n    returns (bool)\n    {\n        uint256 karma;\n        (karma, ) = essence.getCollected(_creator);\n        return (karma >= minCollected);\n    }\n\n    function createTag(bytes32 _tag)\n    internal\n    returns (bool)\n    {\n        require(check_format(_tag));\n        require(!exists(_tag));\n        TagCreate(_tag);\n        tags[_tag].created = true;\n        total = total.add(1);\n        return true;\n    }\n\n    function create_list(bytes32 _name, bytes32 _hash, uint8 _fn, uint8 _digestSize)\n    public\n    {\n        require(canCreate(msg.sender));\n        var listHash = keccak256(msg.sender, _name);\n        require(lists[listHash].creator == address(0x0));\n        require(IpfsHash.create(lists[listHash].hash, _hash, _fn, _digestSize));\n        lists[listHash].creator = msg.sender;\n        listsCount[msg.sender] = listsCount[msg.sender].add(1);\n        require(votes.registerResource(listHash, 0));\n        ListCreate(_name, msg.sender, listHash);\n    }\n\n    function total_lists(address _publisher)\n    public\n    view\n    returns (uint256 _total)\n    {\n        _total = listsCount[_publisher];\n    }\n\n    function update_list(bytes32 _name, bytes32 _hash, uint8 _fn, uint8 _digestSize)\n    public\n    only_creator(_name)\n    {\n        var listHash = keccak256(msg.sender, _name);\n        require(IpfsHash.create(lists[listHash].hash, _hash, _fn, _digestSize));\n        ListUpdate(_name, msg.sender);\n    }\n\n    function list_exists(bytes32 _id)\n    public\n    view\n    returns (bool)\n    {\n        return lists[_id].creator != address(0x0);\n    }\n\n    function list_creator(bytes32 _id)\n    public\n    view\n    returns (address)\n    {\n        return lists[_id].creator;\n    }\n\n    function get_list(bytes32 _id)\n    public\n    view\n    returns (address _creator, uint8 _fn, uint8 _digestSize, bytes32 _hash)\n    {\n        _creator = lists[_id].creator;\n        (_fn, _digestSize, _hash) = IpfsHash.getHash(lists[_id].hash);\n    }\n\n    function get_list_publisher(bytes32 _name, address _publisher)\n    public\n    view\n    returns (address _creator, uint8 _fn, uint8 _digestSize, bytes32 _hash)\n    {\n        var listHash = keccak256(_publisher, _name);\n        return get_list(listHash);\n    }\n\n    function exists(bytes32 _tag)\n    public\n    view\n    returns (bool)\n    {\n        return tags[_tag].created;\n    }\n\n    function totalEntries(bytes32 _tag)\n    public\n    view\n    returns(uint _total)\n    {\n        _total = tags[_tag].totalEntries;\n    }\n\n    //[a-z0-9---.]\n    function check_format(bytes32 id)\n    public\n    pure\n    returns (bool)\n    {\n\n        if (id[0] == 46 || id[0] == 95) {\n            return false;\n        }\n\n        for (uint8 i = 0; i < id.length; i++)\n        {\n            if (id[i] == 0) break;\n\n            if (id[i] > 122 || (id[i] < 97 && id[i] > 57) || (id[i] < 48 && id[i] != 46 && id[i] != 45))\n            {\n                return false;\n            }\n        }\n\n        if (id[i - 1] == 46 || id[i - 1] == 95) {\n            return false;\n        }\n\n        return i > 1;\n    }\n}\n",
  "sourcePath": "/home/kenshyx/projects/contracts.alpha/contracts/Tags.sol",
  "compiler": {
    "name": "solc",
    "version": "0.4.18+commit.9cf6e910.Emscripten.clang"
  },
  "schemaVersion": "1.0.1",
  "updatedAt": "2017-12-04T15:49:41.451Z"
}