{
  "contractName": "Tags",
  "abi": [
    {
      "constant": false,
      "inputs": [
        {
          "name": "token",
          "type": "address"
        }
      ],
      "name": "reclaimToken",
      "outputs": [],
      "payable": false,
      "stateMutability": "nonpayable",
      "type": "function"
    },
    {
      "constant": true,
      "inputs": [],
      "name": "total",
      "outputs": [
        {
          "name": "",
          "type": "uint256"
        }
      ],
      "payable": false,
      "stateMutability": "view",
      "type": "function"
    },
    {
      "constant": false,
      "inputs": [
        {
          "name": "_amount",
          "type": "uint256"
        }
      ],
      "name": "setMinCollected",
      "outputs": [],
      "payable": false,
      "stateMutability": "nonpayable",
      "type": "function"
    },
    {
      "constant": true,
      "inputs": [
        {
          "name": "_tag",
          "type": "bytes32"
        }
      ],
      "name": "exists",
      "outputs": [
        {
          "name": "",
          "type": "bool"
        }
      ],
      "payable": false,
      "stateMutability": "view",
      "type": "function"
    },
    {
      "constant": true,
      "inputs": [
        {
          "name": "_tag",
          "type": "bytes32"
        }
      ],
      "name": "totalEntries",
      "outputs": [
        {
          "name": "_total",
          "type": "uint256"
        }
      ],
      "payable": false,
      "stateMutability": "view",
      "type": "function"
    },
    {
      "constant": true,
      "inputs": [
        {
          "name": "_name",
          "type": "bytes32"
        },
        {
          "name": "_publisher",
          "type": "address"
        }
      ],
      "name": "get_list_publisher",
      "outputs": [
        {
          "name": "_creator",
          "type": "address"
        },
        {
          "name": "_fn",
          "type": "uint8"
        },
        {
          "name": "_digestSize",
          "type": "uint8"
        },
        {
          "name": "_hash",
          "type": "bytes32"
        }
      ],
      "payable": false,
      "stateMutability": "view",
      "type": "function"
    },
    {
      "constant": false,
      "inputs": [
        {
          "name": "_entry",
          "type": "address"
        }
      ],
      "name": "setEntry",
      "outputs": [],
      "payable": false,
      "stateMutability": "nonpayable",
      "type": "function"
    },
    {
      "constant": false,
      "inputs": [
        {
          "name": "_tag",
          "type": "bytes32"
        }
      ],
      "name": "add",
      "outputs": [],
      "payable": false,
      "stateMutability": "nonpayable",
      "type": "function"
    },
    {
      "constant": true,
      "inputs": [
        {
          "name": "_id",
          "type": "bytes32"
        }
      ],
      "name": "list_exists",
      "outputs": [
        {
          "name": "",
          "type": "bool"
        }
      ],
      "payable": false,
      "stateMutability": "view",
      "type": "function"
    },
    {
      "constant": true,
      "inputs": [
        {
          "name": "_id",
          "type": "bytes32"
        }
      ],
      "name": "get_list",
      "outputs": [
        {
          "name": "_creator",
          "type": "address"
        },
        {
          "name": "_fn",
          "type": "uint8"
        },
        {
          "name": "_digestSize",
          "type": "uint8"
        },
        {
          "name": "_hash",
          "type": "bytes32"
        }
      ],
      "payable": false,
      "stateMutability": "view",
      "type": "function"
    },
    {
      "constant": true,
      "inputs": [
        {
          "name": "id",
          "type": "bytes32"
        }
      ],
      "name": "check_format",
      "outputs": [
        {
          "name": "",
          "type": "bool"
        }
      ],
      "payable": false,
      "stateMutability": "pure",
      "type": "function"
    },
    {
      "constant": true,
      "inputs": [
        {
          "name": "_creator",
          "type": "address"
        }
      ],
      "name": "canCreate",
      "outputs": [
        {
          "name": "",
          "type": "bool"
        }
      ],
      "payable": false,
      "stateMutability": "view",
      "type": "function"
    },
    {
      "constant": false,
      "inputs": [
        {
          "name": "_name",
          "type": "bytes32"
        },
        {
          "name": "_hash",
          "type": "bytes32"
        },
        {
          "name": "_fn",
          "type": "uint8"
        },
        {
          "name": "_digestSize",
          "type": "uint8"
        }
      ],
      "name": "update_list",
      "outputs": [],
      "payable": false,
      "stateMutability": "nonpayable",
      "type": "function"
    },
    {
      "constant": true,
      "inputs": [],
      "name": "minCollected",
      "outputs": [
        {
          "name": "",
          "type": "uint256"
        }
      ],
      "payable": false,
      "stateMutability": "view",
      "type": "function"
    },
    {
      "constant": false,
      "inputs": [
        {
          "name": "_votes",
          "type": "address"
        }
      ],
      "name": "setVotesAddress",
      "outputs": [
        {
          "name": "",
          "type": "bool"
        }
      ],
      "payable": false,
      "stateMutability": "nonpayable",
      "type": "function"
    },
    {
      "constant": true,
      "inputs": [],
      "name": "owner",
      "outputs": [
        {
          "name": "",
          "type": "address"
        }
      ],
      "payable": false,
      "stateMutability": "view",
      "type": "function"
    },
    {
      "constant": false,
      "inputs": [
        {
          "name": "_tag",
          "type": "bytes32"
        }
      ],
      "name": "adminAdd",
      "outputs": [],
      "payable": false,
      "stateMutability": "nonpayable",
      "type": "function"
    },
    {
      "constant": false,
      "inputs": [
        {
          "name": "_essence",
          "type": "address"
        }
      ],
      "name": "setEssence",
      "outputs": [],
      "payable": false,
      "stateMutability": "nonpayable",
      "type": "function"
    },
    {
      "constant": false,
      "inputs": [
        {
          "name": "_tag",
          "type": "bytes32"
        }
      ],
      "name": "incrementTotalEntries",
      "outputs": [],
      "payable": false,
      "stateMutability": "nonpayable",
      "type": "function"
    },
    {
      "constant": false,
      "inputs": [],
      "name": "reclaimEther",
      "outputs": [],
      "payable": false,
      "stateMutability": "nonpayable",
      "type": "function"
    },
    {
      "constant": false,
      "inputs": [
        {
          "name": "_tag",
          "type": "bytes32"
        },
        {
          "name": "_creator",
          "type": "address"
        }
      ],
      "name": "addFromEntry",
      "outputs": [
        {
          "name": "",
          "type": "bool"
        }
      ],
      "payable": false,
      "stateMutability": "nonpayable",
      "type": "function"
    },
    {
      "constant": false,
      "inputs": [
        {
          "name": "from_",
          "type": "address"
        },
        {
          "name": "value_",
          "type": "uint256"
        },
        {
          "name": "data_",
          "type": "bytes"
        }
      ],
      "name": "tokenFallback",
      "outputs": [],
      "payable": false,
      "stateMutability": "nonpayable",
      "type": "function"
    },
    {
      "constant": true,
      "inputs": [
        {
          "name": "_id",
          "type": "bytes32"
        }
      ],
      "name": "list_creator",
      "outputs": [
        {
          "name": "",
          "type": "address"
        }
      ],
      "payable": false,
      "stateMutability": "view",
      "type": "function"
    },
    {
      "constant": false,
      "inputs": [
        {
          "name": "_name",
          "type": "bytes32"
        },
        {
          "name": "_hash",
          "type": "bytes32"
        },
        {
          "name": "_fn",
          "type": "uint8"
        },
        {
          "name": "_digestSize",
          "type": "uint8"
        }
      ],
      "name": "create_list",
      "outputs": [],
      "payable": false,
      "stateMutability": "nonpayable",
      "type": "function"
    },
    {
      "constant": true,
      "inputs": [
        {
          "name": "_publisher",
          "type": "address"
        }
      ],
      "name": "total_lists",
      "outputs": [
        {
          "name": "_total",
          "type": "uint256"
        }
      ],
      "payable": false,
      "stateMutability": "view",
      "type": "function"
    },
    {
      "constant": false,
      "inputs": [
        {
          "name": "newOwner",
          "type": "address"
        }
      ],
      "name": "transferOwnership",
      "outputs": [],
      "payable": false,
      "stateMutability": "nonpayable",
      "type": "function"
    },
    {
      "inputs": [],
      "payable": false,
      "stateMutability": "nonpayable",
      "type": "constructor"
    },
    {
      "payable": false,
      "stateMutability": "nonpayable",
      "type": "fallback"
    },
    {
      "anonymous": false,
      "inputs": [
        {
          "indexed": true,
          "name": "tag",
          "type": "bytes32"
        }
      ],
      "name": "TagCreate",
      "type": "event"
    },
    {
      "anonymous": false,
      "inputs": [
        {
          "indexed": true,
          "name": "name",
          "type": "bytes32"
        },
        {
          "indexed": true,
          "name": "publisher",
          "type": "address"
        },
        {
          "indexed": false,
          "name": "id",
          "type": "bytes32"
        }
      ],
      "name": "ListCreate",
      "type": "event"
    },
    {
      "anonymous": false,
      "inputs": [
        {
          "indexed": true,
          "name": "name",
          "type": "bytes32"
        },
        {
          "indexed": true,
          "name": "publisher",
          "type": "address"
        }
      ],
      "name": "ListUpdate",
      "type": "event"
    },
    {
      "anonymous": false,
      "inputs": [
        {
          "indexed": true,
          "name": "previousOwner",
          "type": "address"
        },
        {
          "indexed": true,
          "name": "newOwner",
          "type": "address"
        }
      ],
      "name": "OwnershipTransferred",
      "type": "event"
    }
  ],
  "bytecode": "0x60606040526000600455683635c9adc5dea00000600555341561002157600080fd5b336000806101000a81548173ffffffffffffffffffffffffffffffffffffffff021916908373ffffffffffffffffffffffffffffffffffffffff16021790555060003414151561007057600080fd5b6124528061007f6000396000f300606060405260043610610154576000357c0100000000000000000000000000000000000000000000000000000000900463ffffffff16806317ffc320146101615780632ddbd13a1461019a57806333703a32146101c357806338a699a4146101e65780633d80c3ba14610225578063404e66d01461026057806342bc52921461030f578063446bffba146103485780634716cd6d1461036f5780634bc63872146103ae5780636b4316db1461043e5780637804a5dc1461047d57806382caaf90146104ce57806388d36f481461051a5780638d4e5963146105435780638da5cb5b146105945780638e139e26146105e95780638f0ecae21461061057806398751a5c146106495780639f727c2714610670578063ab735f0414610685578063c0ee0b8a146106e3578063ccc2116414610739578063dd0fdcc7146107a0578063e1ed8411146107ec578063f2fde38b14610839575b341561015f57600080fd5b005b341561016c57600080fd5b610198600480803573ffffffffffffffffffffffffffffffffffffffff16906020019091905050610872565b005b34156101a557600080fd5b6101ad6109df565b6040518082815260200191505060405180910390f35b34156101ce57600080fd5b6101e460048080359060200190919050506109e5565b005b34156101f157600080fd5b61020b600480803560001916906020019091905050610a4a565b604051808215151515815260200191505060405180910390f35b341561023057600080fd5b61024a600480803560001916906020019091905050610a7f565b6040518082815260200191505060405180910390f35b341561026b57600080fd5b6102a460048080356000191690602001909190803573ffffffffffffffffffffffffffffffffffffffff16906020019091905050610aa7565b604051808573ffffffffffffffffffffffffffffffffffffffff1673ffffffffffffffffffffffffffffffffffffffff1681526020018460ff1660ff1681526020018360ff1660ff168152602001826000191660001916815260200194505050505060405180910390f35b341561031a57600080fd5b610346600480803573ffffffffffffffffffffffffffffffffffffffff16906020019091905050610b2d565b005b341561035357600080fd5b61036d600480803560001916906020019091905050610bcc565b005b341561037a57600080fd5b610394600480803560001916906020019091905050610ce1565b604051808215151515815260200191505060405180910390f35b34156103b957600080fd5b6103d3600480803560001916906020019091905050610d58565b604051808573ffffffffffffffffffffffffffffffffffffffff1673ffffffffffffffffffffffffffffffffffffffff1681526020018460ff1660ff1681526020018360ff1660ff168152602001826000191660001916815260200194505050505060405180910390f35b341561044957600080fd5b610463600480803560001916906020019091905050610e30565b604051808215151515815260200191505060405180910390f35b341561048857600080fd5b6104b4600480803573ffffffffffffffffffffffffffffffffffffffff16906020019091905050611419565b604051808215151515815260200191505060405180910390f35b34156104d957600080fd5b6105186004808035600019169060200190919080356000191690602001909190803560ff1690602001909190803560ff16906020019091905050611514565b005b341561052557600080fd5b61052d611784565b6040518082815260200191505060405180910390f35b341561054e57600080fd5b61057a600480803573ffffffffffffffffffffffffffffffffffffffff1690602001909190505061178a565b604051808215151515815260200191505060405180910390f35b341561059f57600080fd5b6105a7611831565b604051808273ffffffffffffffffffffffffffffffffffffffff1673ffffffffffffffffffffffffffffffffffffffff16815260200191505060405180910390f35b34156105f457600080fd5b61060e600480803560001916906020019091905050611856565b005b341561061b57600080fd5b610647600480803573ffffffffffffffffffffffffffffffffffffffff169060200190919050506118c8565b005b341561065457600080fd5b61066e600480803560001916906020019091905050611967565b005b341561067b57600080fd5b610683611a2e565b005b341561069057600080fd5b6106c960048080356000191690602001909190803573ffffffffffffffffffffffffffffffffffffffff16906020019091905050611b00565b604051808215151515815260200191505060405180910390f35b34156106ee57600080fd5b610737600480803573ffffffffffffffffffffffffffffffffffffffff169060200190919080359060200190919080359060200190820180359060200191909192905050611c79565b005b341561074457600080fd5b61075e600480803560001916906020019091905050611c7e565b604051808273ffffffffffffffffffffffffffffffffffffffff1673ffffffffffffffffffffffffffffffffffffffff16815260200191505060405180910390f35b34156107ab57600080fd5b6107ea6004808035600019169060200190919080356000191690602001909190803560ff1690602001909190803560ff16906020019091905050611cc6565b005b34156107f757600080fd5b610823600480803573ffffffffffffffffffffffffffffffffffffffff169060200190919050506120be565b6040518082815260200191505060405180910390f35b341561084457600080fd5b610870600480803573ffffffffffffffffffffffffffffffffffffffff16906020019091905050612107565b005b60008060009054906101000a900473ffffffffffffffffffffffffffffffffffffffff1673ffffffffffffffffffffffffffffffffffffffff163373ffffffffffffffffffffffffffffffffffffffff161415156108cf57600080fd5b8173ffffffffffffffffffffffffffffffffffffffff166370a08231306000604051602001526040518263ffffffff167c0100000000000000000000000000000000000000000000000000000000028152600401808273ffffffffffffffffffffffffffffffffffffffff1673ffffffffffffffffffffffffffffffffffffffff168152602001915050602060405180830381600087803b151561097257600080fd5b6102c65a03f1151561098357600080fd5b5050506040518051905090506109db6000809054906101000a900473ffffffffffffffffffffffffffffffffffffffff16828473ffffffffffffffffffffffffffffffffffffffff1661225c9092919063ffffffff16565b5050565b60045481565b6000809054906101000a900473ffffffffffffffffffffffffffffffffffffffff1673ffffffffffffffffffffffffffffffffffffffff163373ffffffffffffffffffffffffffffffffffffffff16141515610a4057600080fd5b8060058190555050565b600060066000836000191660001916815260200190815260200160002060010160009054906101000a900460ff169050919050565b6000600660008360001916600019168152602001908152602001600020600001549050919050565b60008060008060008587604051808373ffffffffffffffffffffffffffffffffffffffff1673ffffffffffffffffffffffffffffffffffffffff166c0100000000000000000000000002815260140182600019166000191681526020019250505060405180910390209050610b1b81610d58565b94509450945094505092959194509250565b6000809054906101000a900473ffffffffffffffffffffffffffffffffffffffff1673ffffffffffffffffffffffffffffffffffffffff163373ffffffffffffffffffffffffffffffffffffffff16141515610b8857600080fd5b80600160006101000a81548173ffffffffffffffffffffffffffffffffffffffff021916908373ffffffffffffffffffffffffffffffffffffffff16021790555050565b6000600260009054906101000a900473ffffffffffffffffffffffffffffffffffffffff1673ffffffffffffffffffffffffffffffffffffffff1663fb166bb0336000604051604001526040518263ffffffff167c0100000000000000000000000000000000000000000000000000000000028152600401808273ffffffffffffffffffffffffffffffffffffffff1673ffffffffffffffffffffffffffffffffffffffff1681526020019150506040805180830381600087803b1515610c9257600080fd5b6102c65a03f11515610ca357600080fd5b5050506040518051906020018051905050809150506005548110151515610cc957600080fd5b610cd28261232f565b1515610cdd57600080fd5b5050565b60008073ffffffffffffffffffffffffffffffffffffffff1660076000846000191660001916815260200190815260200160002060020160009054906101000a900473ffffffffffffffffffffffffffffffffffffffff1673ffffffffffffffffffffffffffffffffffffffff1614159050919050565b60008060008060076000866000191660001916815260200190815260200160002060020160009054906101000a900473ffffffffffffffffffffffffffffffffffffffff169350610e1d600760008760001916600019168152602001908152602001600020600001606060405190810160405290816000820154600019166000191681526020016001820160009054906101000a900460ff1660ff1660ff1681526020016001820160019054906101000a900460ff1660ff1660ff16815250506123e7565b8093508194508295505050509193509193565b600080602e7f010000000000000000000000000000000000000000000000000000000000000002836000602081101515610e6657fe5b1a7f0100000000000000000000000000000000000000000000000000000000000000027effffffffffffffffffffffffffffffffffffffffffffffffffffffffffffff19161480610f2c5750605f7f010000000000000000000000000000000000000000000000000000000000000002836000602081101515610ee557fe5b1a7f0100000000000000000000000000000000000000000000000000000000000000027effffffffffffffffffffffffffffffffffffffffffffffffffffffffffffff1916145b15610f3a5760009150611413565b600090505b602060ff168160ff1610156112f85760007f010000000000000000000000000000000000000000000000000000000000000002838260ff16602081101515610f8357fe5b1a7f0100000000000000000000000000000000000000000000000000000000000000027effffffffffffffffffffffffffffffffffffffffffffffffffffffffffffff19161415610fd3576112f8565b607a7f010000000000000000000000000000000000000000000000000000000000000002838260ff1660208110151561100857fe5b1a7f0100000000000000000000000000000000000000000000000000000000000000027effffffffffffffffffffffffffffffffffffffffffffffffffffffffffffff19161180611153575060617f010000000000000000000000000000000000000000000000000000000000000002838260ff1660208110151561108957fe5b1a7f0100000000000000000000000000000000000000000000000000000000000000027effffffffffffffffffffffffffffffffffffffffffffffffffffffffffffff1916108015611152575060397f010000000000000000000000000000000000000000000000000000000000000002838260ff1660208110151561110b57fe5b1a7f0100000000000000000000000000000000000000000000000000000000000000027effffffffffffffffffffffffffffffffffffffffffffffffffffffffffffff1916115b5b806112dd575060307f010000000000000000000000000000000000000000000000000000000000000002838260ff1660208110151561118e57fe5b1a7f0100000000000000000000000000000000000000000000000000000000000000027effffffffffffffffffffffffffffffffffffffffffffffffffffffffffffff19161080156112585750602e7f010000000000000000000000000000000000000000000000000000000000000002838260ff1660208110151561121057fe5b1a7f0100000000000000000000000000000000000000000000000000000000000000027effffffffffffffffffffffffffffffffffffffffffffffffffffffffffffff191614155b80156112dc5750602d7f010000000000000000000000000000000000000000000000000000000000000002838260ff1660208110151561129457fe5b1a7f0100000000000000000000000000000000000000000000000000000000000000027effffffffffffffffffffffffffffffffffffffffffffffffffffffffffffff191614155b5b156112eb5760009150611413565b8080600101915050610f3f565b602e7f010000000000000000000000000000000000000000000000000000000000000002836001830360ff1660208110151561133057fe5b1a7f0100000000000000000000000000000000000000000000000000000000000000027effffffffffffffffffffffffffffffffffffffffffffffffffffffffffffff191614806113fb5750605f7f010000000000000000000000000000000000000000000000000000000000000002836001830360ff166020811015156113b457fe5b1a7f0100000000000000000000000000000000000000000000000000000000000000027effffffffffffffffffffffffffffffffffffffffffffffffffffffffffffff1916145b156114095760009150611413565b60018160ff161191505b50919050565b600080600260009054906101000a900473ffffffffffffffffffffffffffffffffffffffff1673ffffffffffffffffffffffffffffffffffffffff1663fb166bb0846000604051604001526040518263ffffffff167c0100000000000000000000000000000000000000000000000000000000028152600401808273ffffffffffffffffffffffffffffffffffffffff1673ffffffffffffffffffffffffffffffffffffffff1681526020019150506040805180830381600087803b15156114e057600080fd5b6102c65a03f115156114f157600080fd5b505050604051805190602001805190505080915050600554811015915050919050565b6000843373ffffffffffffffffffffffffffffffffffffffff16600760003384604051808373ffffffffffffffffffffffffffffffffffffffff1673ffffffffffffffffffffffffffffffffffffffff166c0100000000000000000000000002815260140182600019166000191681526020019250505060405180910390206000191660001916815260200190815260200160002060020160009054906101000a900473ffffffffffffffffffffffffffffffffffffffff1673ffffffffffffffffffffffffffffffffffffffff161415156115ef57600080fd5b3386604051808373ffffffffffffffffffffffffffffffffffffffff1673ffffffffffffffffffffffffffffffffffffffff166c010000000000000000000000000281526014018260001916600019168152602001925050506040518091039020915073__IpfsHash______________________________63294ba8e76007600085600019166000191681526020019081526020016000206000018787876000604051602001526040518563ffffffff167c01000000000000000000000000000000000000000000000000000000000281526004018085815260200184600019166000191681526020018360ff1660ff1681526020018260ff1660ff16815260200194505050505060206040518083038186803b151561170e57600080fd5b6102c65a03f4151561171f57600080fd5b50505060405180519050151561173457600080fd5b3373ffffffffffffffffffffffffffffffffffffffff1686600019167f8e967a1d5f826b9f572402c2fc5eb8eb372dd53c081ffb1612ff738b1f08c9a360405160405180910390a3505050505050565b60055481565b60008060009054906101000a900473ffffffffffffffffffffffffffffffffffffffff1673ffffffffffffffffffffffffffffffffffffffff163373ffffffffffffffffffffffffffffffffffffffff161415156117e757600080fd5b81600360006101000a81548173ffffffffffffffffffffffffffffffffffffffff021916908373ffffffffffffffffffffffffffffffffffffffff16021790555060019050919050565b6000809054906101000a900473ffffffffffffffffffffffffffffffffffffffff1681565b6000809054906101000a900473ffffffffffffffffffffffffffffffffffffffff1673ffffffffffffffffffffffffffffffffffffffff163373ffffffffffffffffffffffffffffffffffffffff161415156118b157600080fd5b6118ba8161232f565b15156118c557600080fd5b50565b6000809054906101000a900473ffffffffffffffffffffffffffffffffffffffff1673ffffffffffffffffffffffffffffffffffffffff163373ffffffffffffffffffffffffffffffffffffffff1614151561192357600080fd5b80600260006101000a81548173ffffffffffffffffffffffffffffffffffffffff021916908373ffffffffffffffffffffffffffffffffffffffff16021790555050565b600160009054906101000a900473ffffffffffffffffffffffffffffffffffffffff1673ffffffffffffffffffffffffffffffffffffffff163373ffffffffffffffffffffffffffffffffffffffff161415156119c357600080fd5b6119cc81610a4a565b15156119d757600080fd5b611a0960016006600084600019166000191681526020019081526020016000206000015461240890919063ffffffff16565b6006600083600019166000191681526020019081526020016000206000018190555050565b6000809054906101000a900473ffffffffffffffffffffffffffffffffffffffff1673ffffffffffffffffffffffffffffffffffffffff163373ffffffffffffffffffffffffffffffffffffffff16141515611a8957600080fd5b6000809054906101000a900473ffffffffffffffffffffffffffffffffffffffff1673ffffffffffffffffffffffffffffffffffffffff166108fc3073ffffffffffffffffffffffffffffffffffffffff16319081150290604051600060405180830381858888f193505050501515611afe57fe5b565b600080600160009054906101000a900473ffffffffffffffffffffffffffffffffffffffff1673ffffffffffffffffffffffffffffffffffffffff163373ffffffffffffffffffffffffffffffffffffffff16141515611b5f57600080fd5b600260009054906101000a900473ffffffffffffffffffffffffffffffffffffffff1673ffffffffffffffffffffffffffffffffffffffff1663fb166bb0846000604051604001526040518263ffffffff167c0100000000000000000000000000000000000000000000000000000000028152600401808273ffffffffffffffffffffffffffffffffffffffff1673ffffffffffffffffffffffffffffffffffffffff1681526020019150506040805180830381600087803b1515611c2357600080fd5b6102c65a03f11515611c3457600080fd5b5050506040518051906020018051905050809150506005548110151515611c5a57600080fd5b611c638461232f565b1515611c6e57600080fd5b600191505092915050565b600080fd5b600060076000836000191660001916815260200190815260200160002060020160009054906101000a900473ffffffffffffffffffffffffffffffffffffffff169050919050565b6000611cd133611419565b1515611cdc57600080fd5b3385604051808373ffffffffffffffffffffffffffffffffffffffff1673ffffffffffffffffffffffffffffffffffffffff166c0100000000000000000000000002815260140182600019166000191681526020019250505060405180910390209050600073ffffffffffffffffffffffffffffffffffffffff1660076000836000191660001916815260200190815260200160002060020160009054906101000a900473ffffffffffffffffffffffffffffffffffffffff1673ffffffffffffffffffffffffffffffffffffffff16141515611db857600080fd5b73__IpfsHash______________________________63294ba8e76007600084600019166000191681526020019081526020016000206000018686866000604051602001526040518563ffffffff167c01000000000000000000000000000000000000000000000000000000000281526004018085815260200184600019166000191681526020018360ff1660ff1681526020018260ff1660ff16815260200194505050505060206040518083038186803b1515611e7457600080fd5b6102c65a03f41515611e8557600080fd5b505050604051805190501515611e9a57600080fd5b3360076000836000191660001916815260200190815260200160002060020160006101000a81548173ffffffffffffffffffffffffffffffffffffffff021916908373ffffffffffffffffffffffffffffffffffffffff160217905550611f4a6001600860003373ffffffffffffffffffffffffffffffffffffffff1673ffffffffffffffffffffffffffffffffffffffff1681526020019081526020016000205461240890919063ffffffff16565b600860003373ffffffffffffffffffffffffffffffffffffffff1673ffffffffffffffffffffffffffffffffffffffff16815260200190815260200160002081905550600360009054906101000a900473ffffffffffffffffffffffffffffffffffffffff1673ffffffffffffffffffffffffffffffffffffffff1663d97995a082600080604051602001526040518363ffffffff167c010000000000000000000000000000000000000000000000000000000002815260040180836000191660001916815260200182815260200192505050602060405180830381600087803b151561203657600080fd5b6102c65a03f1151561204757600080fd5b50505060405180519050151561205c57600080fd5b3373ffffffffffffffffffffffffffffffffffffffff1685600019167f514d77d5449cde5a7b300e7ca4ffa08a95fcea6c390aad7b538f0c2ef4bbb4698360405180826000191660001916815260200191505060405180910390a35050505050565b6000600860008373ffffffffffffffffffffffffffffffffffffffff1673ffffffffffffffffffffffffffffffffffffffff168152602001908152602001600020549050919050565b6000809054906101000a900473ffffffffffffffffffffffffffffffffffffffff1673ffffffffffffffffffffffffffffffffffffffff163373ffffffffffffffffffffffffffffffffffffffff1614151561216257600080fd5b600073ffffffffffffffffffffffffffffffffffffffff168173ffffffffffffffffffffffffffffffffffffffff161415151561219e57600080fd5b8073ffffffffffffffffffffffffffffffffffffffff166000809054906101000a900473ffffffffffffffffffffffffffffffffffffffff1673ffffffffffffffffffffffffffffffffffffffff167f8be0079c531659141344cd1fd0a4f28419497f9722a3daafe3b4186f6b6457e060405160405180910390a3806000806101000a81548173ffffffffffffffffffffffffffffffffffffffff021916908373ffffffffffffffffffffffffffffffffffffffff16021790555050565b8273ffffffffffffffffffffffffffffffffffffffff1663a9059cbb83836000604051602001526040518363ffffffff167c0100000000000000000000000000000000000000000000000000000000028152600401808373ffffffffffffffffffffffffffffffffffffffff1673ffffffffffffffffffffffffffffffffffffffff16815260200182815260200192505050602060405180830381600087803b151561230757600080fd5b6102c65a03f1151561231857600080fd5b50505060405180519050151561232a57fe5b505050565b600061233a82610e30565b151561234557600080fd5b61234e82610a4a565b15151561235a57600080fd5b81600019167f1f4f3e144955401cc3687ad427773fc3950a2b0dfe4a4962f8ae7bf9a67869d160405160405180910390a2600160066000846000191660001916815260200190815260200160002060010160006101000a81548160ff0219169083151502179055506123d8600160045461240890919063ffffffff16565b60048190555060019050919050565b60008060008360200151846040015185600001519250925092509193909250565b600080828401905083811015151561241c57fe5b80915050929150505600a165627a7a723058204162c056ad91717f6c01e3243ce46837bb2e11a8b0401362307794e3ce8838190029",
  "source": "pragma solidity ^0.4.0;\n\n\nimport 'zeppelin-solidity/contracts/ownership/HasNoTokens.sol';\nimport 'zeppelin-solidity/contracts/ownership/HasNoEther.sol';\nimport 'zeppelin-solidity/contracts/math/SafeMath.sol';\nimport \"./IpfsHash.sol\";\nimport './Entries.sol';\nimport './token/Essence.sol';\nimport './Votes.sol';\n\n\ncontract Tags is HasNoEther, HasNoTokens {\n    using SafeMath for uint256;\n\n    Entries entry;\n\n    Essence essence;\n\n    Votes votes;\n\n    uint256 public total = 0;\n\n    uint256 public minCollected = 10**21;\n\n    struct TagList {\n    IpfsHash.Multihash hash;\n    address creator;\n    }\n\n    struct Tag {\n    uint256 totalEntries;\n    bool created;\n    }\n\n    mapping (bytes32 => Tag) tags;\n\n    mapping (bytes32 => TagList) lists;\n\n    mapping (address => uint256) listsCount;\n\n    event TagCreate(bytes32 indexed tag);\n\n    event ListCreate(bytes32 indexed name, address indexed publisher, bytes32 id);\n\n    event ListUpdate(bytes32 indexed name, address indexed publisher);\n\n    function Tags()\n    public\n    HasNoEther()\n    HasNoTokens()\n    {\n\n    }\n\n    modifier only_creator(bytes32 _name)\n    {\n        require(lists[keccak256(msg.sender, _name)].creator == msg.sender);\n        _;\n    }\n\n    modifier only_entry()\n    {\n        require(msg.sender == address(entry));\n        _;\n    }\n\n    function setEntry(Entries _entry)\n    public\n    onlyOwner\n    {\n        entry = _entry;\n    }\n\n    function setEssence(Essence _essence)\n    public\n    onlyOwner\n    {\n        essence = _essence;\n    }\n\n    function setVotesAddress(address _votes)\n    public\n    onlyOwner\n    returns (bool)\n    {\n        votes = Votes(_votes);\n        return true;\n    }\n\n    function incrementTotalEntries(bytes32 _tag)\n    public\n    only_entry\n    {\n        require(exists(_tag));\n        tags[_tag].totalEntries = tags[_tag].totalEntries.add(1);\n    }\n\n\n    function adminAdd(bytes32 _tag)\n    public\n    onlyOwner\n    {\n        require(createTag(_tag));\n    }\n\n    function add(bytes32 _tag)\n    public\n    {\n        uint256 karma;\n        (karma, ) = essence.getCollected(msg.sender);\n        require(karma >= minCollected);\n        require(createTag(_tag));\n    }\n\n    function addFromEntry(bytes32 _tag, address _creator)\n    public\n    only_entry\n    returns (bool)\n    {\n        uint256 karma;\n        (karma, ) = essence.getCollected(_creator);\n        require(karma >= minCollected);\n        require(createTag(_tag));\n        return true;\n    }\n\n    function setMinCollected(uint256 _amount)\n    public\n    onlyOwner\n    {\n        minCollected = _amount;\n    }\n\n    function canCreate(address _creator)\n    public\n    view\n    returns (bool)\n    {\n        uint256 karma;\n        (karma, ) = essence.getCollected(_creator);\n        return (karma >= minCollected);\n    }\n\n    function createTag(bytes32 _tag)\n    internal\n    returns (bool)\n    {\n        require(check_format(_tag));\n        require(!exists(_tag));\n        TagCreate(_tag);\n        tags[_tag].created = true;\n        total = total.add(1);\n        return true;\n    }\n\n    function create_list(bytes32 _name, bytes32 _hash, uint8 _fn, uint8 _digestSize)\n    public\n    {\n        require(canCreate(msg.sender));\n        var listHash = keccak256(msg.sender, _name);\n        require(lists[listHash].creator == address(0x0));\n        require(IpfsHash.create(lists[listHash].hash, _hash, _fn, _digestSize));\n        lists[listHash].creator = msg.sender;\n        listsCount[msg.sender] = listsCount[msg.sender].add(1);\n        require(votes.registerResource(listHash, 0));\n        ListCreate(_name, msg.sender, listHash);\n    }\n\n    function total_lists(address _publisher)\n    public\n    view\n    returns (uint256 _total)\n    {\n        _total = listsCount[_publisher];\n    }\n\n    function update_list(bytes32 _name, bytes32 _hash, uint8 _fn, uint8 _digestSize)\n    public\n    only_creator(_name)\n    {\n        var listHash = keccak256(msg.sender, _name);\n        require(IpfsHash.create(lists[listHash].hash, _hash, _fn, _digestSize));\n        ListUpdate(_name, msg.sender);\n    }\n\n    function list_exists(bytes32 _id)\n    public\n    view\n    returns (bool)\n    {\n        return lists[_id].creator != address(0x0);\n    }\n\n    function list_creator(bytes32 _id)\n    public\n    view\n    returns (address)\n    {\n        return lists[_id].creator;\n    }\n\n    function get_list(bytes32 _id)\n    public\n    view\n    returns (address _creator, uint8 _fn, uint8 _digestSize, bytes32 _hash)\n    {\n        _creator = lists[_id].creator;\n        (_fn, _digestSize, _hash) = IpfsHash.getHash(lists[_id].hash);\n    }\n\n    function get_list_publisher(bytes32 _name, address _publisher)\n    public\n    view\n    returns (address _creator, uint8 _fn, uint8 _digestSize, bytes32 _hash)\n    {\n        var listHash = keccak256(_publisher, _name);\n        return get_list(listHash);\n    }\n\n    function exists(bytes32 _tag)\n    public\n    view\n    returns (bool)\n    {\n        return tags[_tag].created;\n    }\n\n    function totalEntries(bytes32 _tag)\n    public\n    view\n    returns(uint _total)\n    {\n        _total = tags[_tag].totalEntries;\n    }\n\n    //[a-z0-9---.]\n    function check_format(bytes32 id)\n    public\n    pure\n    returns (bool)\n    {\n\n        if (id[0] == 46 || id[0] == 95) {\n            return false;\n        }\n\n        for (uint8 i = 0; i < id.length; i++)\n        {\n            if (id[i] == 0) break;\n\n            if (id[i] > 122 || (id[i] < 97 && id[i] > 57) || (id[i] < 48 && id[i] != 46 && id[i] != 45))\n            {\n                return false;\n            }\n        }\n\n        if (id[i - 1] == 46 || id[i - 1] == 95) {\n            return false;\n        }\n\n        return i > 1;\n    }\n}\n",
  "sourcePath": "/home/kenshyx/projects/contracts.alpha/contracts/Tags.sol",
  "compiler": {
    "name": "solc",
    "version": "0.4.18+commit.9cf6e910.Emscripten.clang"
  },
  "schemaVersion": "1.0.1",
  "updatedAt": "2017-11-23T16:29:21.736Z"
}